:100000000C9493000C94BB000C94BB000C94BB00AC
:100010000C94BB000C94BB000C94BB000C94BB0074
:100020000C94BB000C94F4040C94BB000C94BB0027
:100030000C94BB000C94BB000C94BB000C94BB0054
:100040000C94AA040C94BB000C9433030C940D0381
:100050000C94BB000C94BB000C94BB000C94BB0034
:100060000C9466050C94BB00580D6A0D730D980D29
:10007000AF0DBE0DD50DDE0D5504A304A304A304DE
:10008000A3048804A304A304A304A3047F04880492
:10009000920488049B0488044E414E494E495459A9
:1000A000494E46CDCCCC3D0AD7233C17B7D1387743
:1000B000CC2B329595E6241FB14F0A000020410059
:1000C00000C84200401C4620BCBE4CCA1B0E5AAEA3
:1000D000C59D7400000000250028002B00000000D2
:1000E00000240027002A0004040404040404040279
:1000F00002020202020303030303030102040810C5
:100100002040800102040810200102040810200091
:1001100000000800020100000304070000000000C6
:1001200000000000AC1911241FBECFEFD8E0DEBFE5
:10013000CDBF25E0A0E0B2E001C01D92AA3AB2070F
:10014000E1F712E0A0E0B1E0ECEBF8E402C00590CA
:100150000D92A030B107D9F710E0C3E9D0E004C098
:100160002197FE010E944B20C239D107C9F70E9496
:1001700037070C945C240C940000CF92DF92EF922E
:10018000FF920F931F93CF93DF936C017A018B0142
:10019000C0E0D0E0CE15DF0589F0D8016D918D016A
:1001A000D601ED91FC910190F081E02DC6010995F9
:1001B000892B11F47E0102C02196ECCFC701DF919B
:1001C000CF911F910F91FF90EF90DF90CF90089506
:1001D000FC01538D448D252F30E0842F90E0821B4D
:1001E000930B541710F0CF96089501970895FC01D2
:1001F000918D828D981761F0828DDF01A80FB11D5E
:100200005D968C91928D9F5F9F73928F90E0089581
:100210008FEF9FEF0895FC01918D828D981731F03B
:10022000828DE80FF11D858D90E008958FEF9FEF8F
:100230000895FC01918D228D892F90E0805C9F4F65
:10024000821B91098F73992708958EE593E00E9490
:10025000190121E0892B09F420E0822F0895FC0187
:10026000848DDF01A80FB11DA35ABF4F2C91848D3F
:1002700090E001968F739927848FA689B7892C9374
:10028000A089B1898C9180648C93938D848D98130F
:1002900006C00288F389E02D80818F7D80830895D8
:1002A000EF92FF920F931F93CF93DF93EC0181E0C6
:1002B000888F9B8D8C8D981305C0E889F989808182
:1002C00085FD24C0F62E0B8D10E00F5F1F4F0F73BE
:1002D0001127E02E8C8DE8120CC00FB607FCFACF68
:1002E000E889F989808185FFF5CFCE010E942F0131
:1002F000F1CF8B8DFE01E80FF11DE35AFF4FF08225
:100300000B8FEA89FB898081806207C0EE89FF89B3
:100310006083E889F98980818064808381E090E04E
:10032000DF91CF911F910F91FF90EF900895CF93A0
:10033000DF93EC01888D8823C9F0EA89FB898081ED
:1003400085FD05C0A889B9898C9186FD0FC00FB6BF
:1003500007FCF5CF808185FFF2CFA889B9898C9100
:1003600085FFEDCFCE010E942F01E7CFDF91CF9126
:10037000089580E090E0892B29F00E9425018111E9
:100380000C940000089585ED8093BC008091BC0022
:1003900084FDFCCF10920802089540910E03262F91
:1003A00030E0240F311D21323105DCF420910802A8
:1003B0002430C9F4FC0180E090E0861758F43091B5
:1003C0000E032191DC01A251BD4FA30FB11D2C934F
:1003D0000196F3CF80910E03680F60930E0380E0C7
:1003E000089581E0089582E00895E0910002F0917F
:1003F0000102309729F010920A0210920902099422
:100400000895CF93DF93AC01E091EC02F091ED02FF
:100410003097F1F090910C0280910B029817C0F088
:1004200090E0292F30E02617370754F4D901A45360
:10043000BD4FEA01C20FD31F88818C939F5FF1CF1C
:1004400010920C0260930B02CB01DF91CF910994C3
:10045000DF91CF9108950895E0910C0280910B02F5
:10046000E81730F4F0E0E453FD4F808190E0089508
:100470008FEF9FEF089590910C0280910B029817D7
:1004800050F4E92FF0E0E453FD4F208130E09F5F0E
:1004900090930C0202C02FEF3FEFC90108958091A5
:1004A0000B0290E020910C02821B91090895CF93DA
:1004B000DF9300D0CDB7DEB7CB01642F49835A83D9
:1004C0000E94CD014981842F5A81952F0F900F9062
:1004D000DF91CF910895CF93DF931F92CDB7DEB711
:1004E000698361E0CE0101960E94CD0181E090E038
:1004F0000F90DF91CF910895089580E090E00895E6
:100500008091BB0090E0959587958231910589F1A6
:1005100030F48C30910571F0419781F10895873165
:10052000910509F443C08034910569F1469709F0BB
:100530005CC02EC081E090E020913202222311F0B5
:1005400080E090E0880F991FFC01E25DFD4F608123
:10055000718180912C0290912D028830910514F4C4
:10056000019602C080E090E090932D0280932C02CF
:100570002CC0609113027091140227C06091170281
:100580007091180222C060910F02709110021DC07C
:1005900081E090E020913B02222311F080E090E086
:1005A000880F991FFC01E95CFD4F0DC081E090E0D0
:1005B00020913B02222311F080E090E0880F991FE8
:1005C000FC01ED5CFD4F608171816115710569F081
:1005D0008091FB039091FC03DC01ED91FC91028082
:1005E000F381E02D40E150E0099408950E94A0219C
:1005F0006115710579F0FB0101900020E9F7319751
:10060000AF01461B570BDC01ED91FC910280F38199
:10061000E02D099480E090E008951F920F920FB6AC
:100620000F9211242F933F934F935F936F937F9378
:100630008F939F93AF93BF93EF93FF938EE593E0D8
:100640000E942F01FF91EF91BF91AF919F918F91E8
:100650007F916F915F914F913F912F910F900FBEBE
:100660000F901F9018951F920F920FB60F921124A2
:100670002F938F939F93EF93FF93E0916E03F091ED
:100680006F038081E0917403F091750382FD12C0C5
:100690009081809177038F5F8F7320917803821709
:1006A00051F0E0917703F0E0E25AFC4F958F809390
:1006B000770301C08081FF91EF919F918F912F91DE
:1006C0000F900FBE0F901F90189590E0FC01E15F16
:1006D000FE4F3491FC01E550FF4F2491FC01E9519C
:1006E000FF4FE491EE2309F43BC0332339F133305B
:1006F00091F038F43130A9F0323001F584B58F7DB6
:1007000012C0373091F03830A1F03430B9F4809114
:1007100080008F7D03C0809180008F778093800060
:100720000DC084B58F7784BD09C08091B0008F77EC
:1007300003C08091B0008F7D8093B000F0E0EE0F99
:10074000FF1FED52FF4FA591B4918FB7F894EC9134
:10075000611103C020952E2301C02E2B2C938FBF37
:1007600008953FB7F89480915A0390915B03A0914C
:100770005C03B0915D0326B5A89B05C02F3F19F01F
:100780000196A11DB11D3FBFBA2FA92F982F882711
:10079000820F911DA11DB11DBC01CD0143E0660F6B
:1007A000771F881F991F4A95D1F708958F929F92BE
:1007B000AF92BF92CF92DF92EF92FF926B017C01DA
:1007C0000E94B1034B015C01C114D104E104F104A6
:1007D000F1F00E94B103DC01CB0188199909AA0943
:1007E000BB09883E9340A105B10570F321E0C21A10
:1007F000D108E108F10888EE880E83E0981EA11C5C
:10080000B11CC114D104E104F10419F7DDCFFF904C
:10081000EF90DF90CF90BF90AF909F908F90089512
:100820002FB7F89460915603709157038091580345
:10083000909159032FBF0895CF92DF92EF92FF92CC
:100840000F931F930E9410042091CA023091CB0293
:100850002F5F3F4F243031052CF43093CB0220938F
:10086000CA0271C01092CB021092CA022091C80233
:100870003091C9022F5F3F4F243131052CF4309362
:10088000C9022093C80204C01092C9021092C80283
:10089000E091C802F091C9023197E031F10508F00A
:1008A00052C0E45CFF4F0C944B20E0912802F09181
:1008B000290200811181228133816B017C01C01AE0
:1008C000D10AE20AF30A40EDC41647E0D406E10477
:1008D000F10498F0E0912602F09127020081118145
:1008E00022813381DC01CB01801B910BA20BB30B66
:1008F000803D9740A105B10530F561E00AC0E09167
:100900002A02F0912B02808191810697E4F0F5CFC5
:1009100060E08DE01F910F91FF90EF90DF90CF90FE
:100920000C946503E0912A02F0912B028081918161
:1009300008974CF0E2CFE0912A02F0912B028081DF
:1009400091810A97D4F61F910F91FF90EF90DF905D
:10095000CF9008951F920F920FB60F9211242F93EC
:100960003F938F939F93AF93BF9380915603909142
:100970005703A0915803B09159033091550326E0D5
:10098000230F2D3720F40296A11DB11D05C029E8C3
:10099000230F0396A11DB11D209355038093560389
:1009A00090935703A0935803B093590380915A032F
:1009B00090915B03A0915C03B0915D030196A11D32
:1009C000B11D80935A0390935B03A0935C03B09393
:1009D0005D03BF91AF919F918F913F912F910F90A8
:1009E0000FBE0F901F9018951F920F920FB60F9287
:1009F00011242F933F934F935F936F937F938F9324
:100A00009F93AF93BF93EF93FF9380911E029091BA
:100A10001F028093B20080911A0290911B02A09154
:100A20001C02B0911D020196A11DB11D80931A02F6
:100A300090931B02A0931C02B0931D0280911A0296
:100A400090911B02A0911C02B0911D0240912202C4
:100A5000509123026091240270912502841795071A
:100A6000A607B70710F18091190281111EC081E01D
:100A70008093190280911A0290911B02A0911C028E
:100A8000B0911D02841B950BA60BB70B80931A0225
:100A900090931B02A0931C02B0931D02E0912002D0
:100AA000F0912102099510921902FF91EF91BF91E7
:100AB000AF919F918F917F916F915F914F913F91F6
:100AC0002F910F900FBE0F901F9018951F920F92AD
:100AD0000FB60F9211242F933F934F935F936F9311
:100AE0007F938F939F93AF93BF93EF93FF938091E7
:100AF000B900887F803609F49CC068F5883209F413
:100B00005BC090F4803109F454C038F4882309F4B0
:100B1000F6C0883009F44DC0F6C0883109F44CC0E5
:100B2000803209F45DC0EFC0803409F468C048F435
:100B3000803309F455C0883309F0E5C08093310350
:100B4000D8C0803509F44FC0883509F45DC08834B9
:100B500009F0D9C0D6C0883909F4C7C0A8F48837CD
:100B600009F467C038F4883609F463C0803709F4A3
:100B700060C0C9C0883809F4B8C0803909F45FC0C2
:100B8000803809F0C0C05BC0803B09F486C038F4EF
:100B9000803A09F466C0883A09F47FC0B4C0803C4A
:100BA00009F4A7C0883C09F4A4C0883B09F48AC0B2
:100BB000AAC08091540310C09091530380915203B6
:100BC000981770F5E091530381E08E0F80935303E3
:100BD000F0E0EE5CFC4F80818093BB0085EC86C02A
:100BE000809331038EC0E091530381E08E0F809398
:100BF00053038091BB00F0E0EE5CFC4F808390914A
:100C00005303809152036EC0E091530381E08E0F35
:100C1000809353038091BB00F0E0EE5CFC4F808337
:100C20008091070281116DC081E08093060284EA01
:100C300061C083E08093080210923003CFCF80918F
:100C40003003803208F051C0E091300381E08E0F14
:100C5000809330038091BB00F0E0E05FFC4F808325
:100C6000BDCF85EC8093BC001092080280913003C8
:100C7000803230F4E0913003F0E0E05FFC4F10820E
:100C80006091300370E0E0910402F091050280E190
:100C900093E009951092300336C084E080930802F7
:100CA00010920F0310920E03E0910202F0910302E2
:100CB000099580910E03811105C081E080930E0398
:100CC0001092EE02E0910F0381E08E0F80930F03EC
:100CD000F0E0E251FD4F80818093BB0090910F03C3
:100CE00080910E03981708F479CF85E88093BC00B3
:100CF0000AC085EC8093BC001092080204C01092D8
:100D000031030E94C301FF91EF91BF91AF919F9179
:100D10008F917F916F915F914F913F912F910F90A4
:100D20000FBE0F901F901895CF93DF93EA011882A2
:100D3000FB011082FC01248130E02C5F3F4FAC01AD
:100D40004E5F5F4FA0E0B0E0FA018191AF01FB017F
:100D50009081980F90838881980F98831196A2179D
:100D6000B30794F3DF91CF910895CF92DF92EF9282
:100D7000FF920F931F93CF93DF93CDB7DEB7C2548B
:100D8000D1090FB6F894DEBF0FBECDBF23961FAEBC
:100D9000239722961FAE2297DC0112960C9110E049
:100DA0007801B4E0EB0EF11CEBE3EE16F1040CF06D
:100DB0004AC025EB298322E62A83DE011396FC0133
:100DC00021912D939F01281B390B2E153F05C4F34C
:100DD0006B01AE014F5B5F4FBE016E5B7F4FCE017B
:100DE00001960E949406FE01E00FF11F23968FAD3D
:100DF00023978783FE01E00FF11F22968FAD229784
:100E000080878091900590919105085F1F4FDC01CC
:100E1000ED91FC910280F381E02DA801BE016F5F8E
:100E20007F4F0995C114D10489F0C09EB001C19EC5
:100E3000700DD09E700D1124072E000C880B990B9D
:100E40000E94D60303C080E090E001C0C701CE5BE2
:100E5000DF4F0FB6F894DEBF0FBECDBFDF91CF914D
:100E60001F910F91FF90EF90DF90CF900895CF9357
:100E7000DF93CDB7DEB7C056D1090FB6F894DEBF09
:100E80000FBECDBF789484B5826084BD84B5816087
:100E900084BD85B5826085BD85B5816085BD809145
:100EA0006E00816080936E001092810080918100BD
:100EB00082608093810080918100816080938100B5
:100EC000809180008160809380008091B100846077
:100ED0008093B1008091B00081608093B0008091D8
:100EE0007A00846080937A0080917A008260809397
:100EF0007A0080917A008E7F80937A0080917A00C8
:100F0000806880937A001092C10094E5E92E91E008
:100F1000F92E2DEF33E0F70100E010E040E050E063
:100F2000BA01812C912C54018A948191882399F0E3
:100F3000D9018D939D0190E0A0E0B0E08822992234
:100F4000AA22BB22482B592B6A2B7B2B0F5F1F4FEA
:100F50000830110551F7482559256A257B2540930E
:100F600005045093060460930704709308041092DC
:100F70003E0210926002109270021092800258019C
:100F800085E0AA0CBB1C8A95E1F7C5010E9473207D
:100F90006C0190933D0280933C02009709F488C055
:100FA000A50160E070E00E94A5210C5A1E4F80E16F
:100FB000E016F106E1F1F60120E030E0D7019C9166
:100FC00090839231D1F040F49C3099F0913111F539
:100FD000D901AB5EBD4F1CC09731B9F0903489F098
:100FE0009631C1F4D901A95CBD4FED93FC9386877E
:100FF00011C0D901A25DBD4F0BC0D901AF5EBD4F7D
:1010000007C0D901A35FBD4F03C0D901AD5CBD4F7F
:10101000ED93FC932E5F3F4F70962430310571F6AF
:10102000B0E2CB0ED11CEFEFEE1AFE0AC1CF8CE27C
:101030008093BA0085EF91E09093030280930202BF
:1010400081E092E0909305028093040210920C02DA
:1010500010920B0210920A021092090210920802DA
:1010600081E0809307021092060261E082E10E9413
:10107000650361E083E10E9465038091B9008E7F82
:101080008093B9008091B9008D7F8093B90080E290
:101090008093B80085E48093BC0080910504880F9C
:1010A0008093BD0080E892E090930102809300025B
:1010B00086E090E090933F0180933E0188E090E0CD
:1010C00090934101809340018AE090E09093010168
:1010D000809300010E94100460934E0270934F02AF
:1010E000809350029093510286E0ECE4F1E0DE013F
:1010F000A75BBF4F01900D928A95E1F761961FAEF5
:101100001EAE6197FE01319688E4DF011D928A953B
:10111000E9F790EF99832AE02A839C8389E08D8305
:101120009F8381E089879A878B879D8730E43E87FC
:10113000988B46E0498B9B8B52E05C8B2D8B9E8B72
:1011400037E03F8B998F33E03A8F9C8F64E06D8F4F
:101150008E8F9F8F7EE078A39AA371E47BA32CA34C
:101160009DA375E07EA398A798E099A78BA76CA78D
:101170002DA78EA75FA788AB89AB4AAB8BAB8CAB97
:101180003DAB8EAB8FAB91E298AF89AF8AAF92E166
:101190009BAF8CAF1092DE04EEE5F5E08EED94E0AF
:1011A00081939193B5E0E039FB07D1F781E090E0BE
:1011B0009093DB048093DA041092DD041092DC0437
:1011C0008EE593E09093910580939005E0916E03F6
:1011D000F0916F0382E08083E0916A03F0916B03EA
:1011E0001082E0916C03F0916D0387E6808310928A
:1011F0007603E0917203F091730386E08083E091BF
:101200007003F0917103808180618083E0917003AD
:10121000F0917103808188608083E0917003F09188
:101220007103808180688083E0917003F091710385
:1012300080818F7D80836AEF70E080E090E00E9483
:10124000D60363E070E0CE01875B9F4F0E94B50636
:1012500088EC90E0909387048093860463E070E0CC
:101260008AE291E00E94B50688EC80932E011092EC
:101270002F0163E070E08AE291E00E94B5068E01E2
:101280000D5F1F4FF801329780818823E1F0809332
:101290002001F8013197808180932101F80180813C
:1012A0008093220180932301809324018093250160
:1012B000809326018093270162E070E08CE191E049
:1012C0000E94B506DDCF12E01093140110920E01BA
:1012D00086E980930F011092100163E070E082E0D4
:1012E00091E00E94B506E0919005F0919105A089EA
:1012F000B1891C93A485B5851C92A685B78589E123
:101300008C93108EA489B58986E08C93A289B389C9
:101310008C9180618C93A289B3898C9188608C9325
:10132000A289B3898C9180688C930288F389E02D1F
:1013300080818F7D8083E8E0F1E02491E4EFF0E0AC
:101340008491882399F090E0880F991FFC01E35263
:10135000FF4FA591B491FC01ED52FF4F85919491FF
:101360008FB7F894EC91E22BEC938FBF61E08DE0A6
:101370000E94650360E08DE00E94650383E694E0CF
:1013800090932B0280932A028AEA94E09093290298
:10139000809328028EEA94E090932702809326029D
:1013A00089E190E0A0E0B0E08093220290932302D4
:1013B000A0932402B09325028CE194E09093210243
:1013C00080932002809170008E7F809370008091C6
:1013D000B0008C7F8093B0008091B100877F8093B4
:1013E000B1008091B6008F7D8093B600809170002F
:1013F0008D7F809370008091B10084608093B100F4
:101400008091B1008C7F8093B10083E890E090934D
:101410001F0280931E0210921A0210921B02109259
:101420001C0210921D021092190280911E029091CE
:101430001F028093B20080917000816080937000E1
:101440000E94B103A1966CAF7DAF8EAF9FAFA19705
:101450000E9410042B013C010E94100468966CAF9E
:101460007DAF8EAF9FAF6897809190059091910569
:10147000DC01ED91FC910084F185E02D0995892B2B
:1014800009F47EC18091900590919105DC01ED9168
:10149000FC910284F385E02D09951C01682F809151
:1014A0005E0290915F02892BC9F4643279F4E1E025
:1014B000F0E0F0935F02E0935E0210925D02109202
:1014C0005C0210925B0210925A0208C0653B31F434
:1014D00002E010E010935F0200935E0240915E0212
:1014E00050915F024130510509F094C0809158023B
:1014F000909159029C01275F3B4FF901EB52FF4F3E
:101500002082643209F469C030F46A3051F06D30E1
:1015100009F455C067C06A3209F453C06C3249F10E
:1015200061C080915D028F9380915C028F93A2E9EC
:10153000B1E0BF93AF9301E010E00C0F1D1F1F93AC
:101540000F930E94BB21E0918E05F0918F050F90C3
:101550000F900F900F900F900F90998180819813AA
:101560000C9406149A81818198130C9406140C949F
:10157000B51340915A0250915B02452B49F04091BE
:101580005C0250915D02422550935D0240935C02E3
:101590004091380150913901BA016F5F7F4F7093CC
:1015A000390160933801440F551FFA01E25AFA4F8E
:1015B00081529B4F91838083F901EB52FF4F108240
:1015C00020C0108281529B4F90938F0580938E058F
:1015D00010925B0210925A0214C050935B02409327
:1015E0005A020FC080915A0290915B02892B49F0F8
:1015F00080915C0290915D02822590935D028093C0
:101600005C02809158029091590201969093590280
:101610008093580280915E0290915F02029709F0D8
:1016200098C020915802309159028901075F1B4FE1
:10163000F801EB52FF4F20822430310541F433246E
:1016400046E0240E311C3092370120923601809101
:1016500036019091370101962817390709F070C0BB
:10166000AE014E5A5F4FBE016D5A7F4F8EED94E032
:101670000E949406F801EC52FF4F908164968FAD62
:10168000649798130C94A1193196908163968FAD4D
:10169000639798130C94A11980917D0490917E0416
:1016A000A0917F04B09180040196A11DB11D80938B
:1016B0007D0490937E04A0937F04B0938004809176
:1016C000DC049091DD04892B61F00E9410044091AC
:1016D000E004413011F40C949B16463011F40C9444
:1016E000291968960CAD1DAD2EAD3FAD68970093DE
:1016F000AE041093AF042093B0043093B1048091F2
:10170000960590919705009779F0DC01ED91FC9199
:1017100040913601509137014E5F5F4F0280F38157
:10172000E02D6EED74E00995E0E8F0E0F0935902E9
:10173000E093580286E090E0909337018093360161
:10174000809158029091590201969093590280938A
:1017500058028091580290915902803891050CF4FA
:1017600083CE10925F0210925E0210925902109284
:10177000580201E010E0109339010093380174CE53
:1017800080915602909157028830910508F046C02A
:10179000409152025091530260915402709155024F
:1017A00068960CAD1DAD2EAD3FAD6897041B150BB3
:1017B000260B370BB901A801493853416105710562
:1017C00068F19C012F5F3F4F3093570220935602E0
:1017D000837099278130910569F038F0029781F480
:1017E00060E070E08CE591E009C060E070E088E6C0
:1017F00091E004C060E070E082E691E00E94B506EE
:1018000068962CAD3DAD4EAD5FAD6897209352020A
:101810003093530240935402509355028091BE027C
:101820009091BF02A091C002B091C10293018201C8
:10183000081B190B2A0B3B0B053611052105310539
:1018400040F04092BE025092BF026092C00270927D
:10185000C1028091BA029091BB02A091BC02B091EA
:10186000BD02A3019201281B390B4A0B5B0BDA0165
:10187000C9018E349140A105B10508F4EAC0009178
:1018800063041091640408301105ACF180915F0489
:10189000909160042091B8023091B902281739075D
:1018A00024F49093B9028093B8028090D60490906B
:1018B000D704A090D804B090D9046091B40270917C
:1018C000B5028091B6029091B7020E940C1D9B0157
:1018D000AC01C501B4010E94941F181664F4C5013F
:1018E000B4010E94651F6093B4027093B5028093A7
:1018F000B6029093B7028090BA049090BB04A09077
:10190000BC04B090BD0428E439EF41E550E4C501C2
:10191000B4010E946D1D0E945E1F6B017C017093DB
:10192000B3026093B20280914201909143018133EE
:1019300048EF9407BCF18601081B190B1093B10204
:101940000093B0022091AC023091AD024091AE0202
:101950005091AF02C501B4010E947F1E6B017C0152
:101960006093A8027093A9028093AA029093AB029D
:101970002091A4023091A5024091A6025091A702A5
:101980000E94941F18160CF05CC01093A3020093E1
:10199000A202C092A402D092A502E092A602F09206
:1019A000A7024FC051E645165AEE55066104710470
:1019B00008F447C0083011050CF443C080915F045F
:1019C000909160041816190604F18091CE0490914C
:1019D000CF04A091D004B091D10480939E02909343
:1019E0009F02A093A002B093A1028091D204909193
:1019F000D304A091D404B091D50480939A0290931B
:101A00009B02A0939C02B0939D0220E030E040E056
:101A100050E46091CA047091CB048091CC04909101
:101A2000CD040E94071D87FF0CC0D0924301C092D5
:101A300042018092AC029092AD02A092AE02B092AE
:101A4000AF024092BA025092BB026092BC02709206
:101A5000BD0280913C0190913D01892B21F01092B3
:101A60003D0110923C01E0913202EE0FFF0BE25D6E
:101A7000FD4F0081118119820115110509F4CDC0B6
:101A8000E0912C02F0912D0280913A0190913B015E
:101A9000E817F90709F4C1C0F0933B01E0933A015C
:101AA000E830F10508F0A1C0EC5CFF4F0C944B202E
:101AB00086EA91E09F938F9382EB91E09F938F93BF
:101AC00081E090E08C0F9D1F9F938F930E94BB211C
:101AD0001D8664C0809164048F93809163048F930A
:101AE0008AEB91E042C0809180048F9380917F04C3
:101AF0008F9380917E048F9380917D048F9380914A
:101B00007C048F9380917B048F9380917A048F93D0
:101B1000809179048F9382EC91E09F938F93E1E021
:101B2000F0E0EC0FFD1FFF93EF930E94BB2158C024
:101B3000809178048F93809177048F9380917604BD
:101B40008F93809175048F938DEC91E09F938F9389
:101B500041E050E04C0F5D1F5F934F933FC08FE417
:101B600094E09F938F9386ED91E09F938F93A1E0F4
:101B7000B0E0AC0FBD1FBF93AF930EC087E594E0FC
:101B80009F938F938FED91E09F938F93E1E0F0E02F
:101B9000EC0FFD1FFF93EF930E94BB210F900F905E
:101BA0000F900F900F900F9020C04DE050E060E636
:101BB00072E0CE0101960E94AC2117C00E94100471
:101BC0009F938F937F936F9388EE91E09F938F9372
:101BD00021E030E02C0F3D1F3F932F930E94BB214B
:101BE0000FB6F894DEBF0FBECDBF4DE050E0BE0192
:101BF0006F5F7F4FC80103960E94AC2180912C0239
:101C0000D80112968C9312971F961C9281E09091A6
:101C10003202911180E0809332028091820490918F
:101C200083049C01237033272330310509F0E4C17C
:101C30008C7F909383048093820480913B02880F71
:101C4000990BFC01E95CFD4F00811181FC01ED5C09
:101C5000FD4FE080F1800115110509F4CDC1E114BB
:101C6000F10409F4C9C18BE294E00E94631B4C01AA
:101C70009F928F938DEE91E09F938F93E1E0F0E040
:101C8000EC0FFD1FFF93EF930E94BB218A81982FD9
:101C90009295907F8B818053892BD70119968C93D5
:101CA0008C81982F9295907F8D818053892BF8019C
:101CB00083838E818295807F8283E9E0F4E00190C6
:101CC0000020E9F73197E950F4400F900F900F9002
:101CD0000F900F900F90399780F180910904982F01
:101CE0009295907F80910A048053892BD801179692
:101CF0008C93179780910B04982F9295907F8091E9
:101D00000C048053892B16968C93169780910E04A1
:101D1000982F9295907F80910F048053892B159670
:101D20008C93159780911004982F9295907F8091B5
:101D300011048053892B14968C93E9E1F4E001900F
:101D40000020E9F7CF018A5194400A9790F18091E1
:101D50001A04982F9295907F80911B048053892BB1
:101D6000F801838780911C04982F9295907F809131
:101D70001D048053892B828780911F04982F929590
:101D8000907F809120048053892B8187809121044A
:101D9000982F9295907F809122048053892B808781
:101DA000C09019040C2C000CDD08F0E3CF1AD10808
:101DB00002C0C12CD12C87E494E00E94631B9F9346
:101DC0008F9382EF91E09F938F9321E030E02C0F6F
:101DD0003D1F3F932F930E94BB218A81982F92959C
:101DE000907F8B818053892BD8011D968C931D97F2
:101DF0008C818295807F1C968C938FE494E00E9466
:101E00005F1B2B013C010F900F900F900F900F90D4
:101E10000F9026E636E64EE151E40E94941F181614
:101E200024F489E9F80186871DC0C301B2010E942C
:101E3000651FB62E66EFB69EA02C112420E030E080
:101E400040E251E4C301B2010E946D1D0E94651F72
:101E5000A60EF0E1BF9EC0011124BA2CB82AD80109
:101E60001E96BC928FE394E00E94631B9F938F9316
:101E700082EF91E09F938F93E1E0F0E0EC0FFD1F84
:101E8000FF93EF930E94BB218A81982F9295907FB8
:101E90008B818053892BD70113968C9313978C8158
:101EA0008295807F12968C931297E3E3F4E0019081
:101EB0000020E9F7CF01845394400F900F900F90CA
:101EC0000F900F900F90099778F180913304982F1D
:101ED0009295907F809134048053892B17968C9330
:101EE000179780913504982F9295907F80913604B2
:101EF0008053892B16968C93169780913704982FD0
:101F00009295907F809138048053892B15968C93FD
:101F1000159780913A04982F9295907F80913B0479
:101F20008053892B14968C93809163049091640460
:101F30006AE070E00E9418206295607F862BF701AE
:101F4000808780E1D8011F968C9381E090912904CD
:101F50009E3409F080E08061F801878790912A041F
:101F6000953411F090E001C092E0892BCD2811F456
:101F700090E001C094E0892BD8011F968C932091AA
:101F8000650430916604232B11F490E001C098E0C1
:101F9000892B97FC02C090E001C090E8892BF801E2
:101FA00087872091650430916604232B69F0409166
:101FB0006304509164042091400130914101421723
:101FC000530714F0806287878091650490916604BE
:101FD000892B91F0209163043091640480913E013B
:101FE00090913F01281739073CF081E090913B0226
:101FF000911180E080933B0284E490E890939902F1
:102000008093980280918404909185049C012474AB
:1020100030782434304809F084C38B7B9F779093C9
:102020008504809384048091900290919102A09104
:102030009202B09193020196A11DB11D809390026E
:1020400090939102A0939202B093930280913B02ED
:10205000880F990BFC01E95CFD4F20803180FC0169
:10206000ED5CFD4FC080D1802114310409F459C3C7
:10207000C114D10409F455C380918E0490918F044A
:10208000A0919004B0919104B7FD05C00EE469964B
:102090000FAF699704C013E569961FAF69978091E8
:1020A000920490919304A0919404B0919504B7FD8B
:1020B00005C005E46D960FAF6D9704C017E56D96EA
:1020C0001FAF6D976091960470919704809198046A
:1020D0009091990428EE33E040E050E00E942C20DB
:1020E00068962CAF3DAF4EAF5FAF68975F934F934D
:1020F0003F932F938DEE91E09F938F9321E030E0FB
:102100002C0F3D1F3F932F930E94BB218A81982F54
:102110009295907F8B818053892BD60119968C9351
:102120008C81982F9295907F8D818053892BF1011E
:1021300083838E818295807F828310928F0280902C
:102140008E0490908F04A0909004B0909104B7FEFC
:1021500008C0B094A09490948094811C911CA11C00
:10216000B11CC501B40120E836E948E950E00E94FD
:102170002C20F901142F052F60E876E988E990E01A
:102180000E94F41FA5019401261B370B480B590B25
:10219000ACE3B0E00E942E1E2B013C010F931F9375
:1021A000FF93EF9381EA91E09F938F9380E892E011
:1021B0009F938F930E94BB210FB6F894DEBF0FBE92
:1021C000CDBF812C91EE992E95EFA92E95E0B92ED9
:1021D000E12CF12C02E010E0C301B201A501940151
:1021E0000E942C20E22FC501B4010E94F41F461A60
:1021F000570A680A790AC8010196D801A058BD4F4C
:10220000E05DEC9321E0E216F10441F40E5F1F4F14
:10221000FC01E058FD4F3EE2308301C08C014FEFDE
:10222000E41AF40AC501B4012AE030E040E050E0CD
:102230000E942C2049015A01093011050CF490C06C
:10224000F801E058FD4F8CE28083F801EF57FD4F15
:1022500069965FAD69975083F801EE57FD4F108284
:1022600080918002982F9295907F80918102805377
:10227000892BD10117968C93179780918202982F02
:102280009295907F809183028053892B16968C9330
:10229000169780918502982F9295907F8091860263
:1022A0008053892B15968C93159780918702982FD0
:1022B0009295907F809188028053892B14968C93FD
:1022C00010927F028090920490909304A0909404C6
:1022D000B0909504B7FE08C0B094A09490948094F8
:1022E000811C911CA11CB11CC501B40120E836E978
:1022F00048E950E00E942C20F901142F052F60E8D6
:1023000076E988E990E00E94F41FA5019401261B5C
:10231000370B480B590BACE3B0E00E942E1E2B018B
:102320003C010F931F93FF93EF9387EF91E09F93EF
:102330008F9380E792E09F938F930E94BB210FB60B
:10234000F894DEBF0FBECDBF03E010E0812C81EE1C
:10235000982E85EFA82E85E0B82EE12CF12C1BC01D
:10236000F9E0EF16F10409F037CF6ACF8C014FEF97
:10237000E41AF40AC501B4012AE030E040E050E07C
:102380000E942C2049015A010A30110534F5E9E078
:10239000EE16F10411F1C301B201A50194010E94EE
:1023A0002C20E22FC501B4010E94F41F461A570ADF
:1023B000680A790AC8010196D801A059BD4FE05DAD
:1023C000EC9321E0E216F10489F60E5F1F4FFC0149
:1023D000E059FD4F3EE23083CACFF801E059FD4F8E
:1023E0008CE28083F801EF58FD4F6D965FAD6D97DD
:1023F0005083F801EE58FD4F108280917102982FA2
:102400009295907F809172028053892BD1011B9607
:102410008C931B9780917302982F9295907F809157
:1024200074028053892B1A968C931A9780917602A6
:10243000982F9295907F809177028053892B1996DF
:102440008C93199780917802982F9295907F809124
:1024500079028053892B18968C93109170026091A9
:102460009A0470919B0480919C0490919D0420E1BA
:1024700037E240E050E00E942C203F932F9382EF00
:1024800091E09F938F93E1E0F0E0EC0FFD1FFF934D
:10249000EF930E94BB218981982F9295907F8A812A
:1024A0008053892BD1011D968C931D978B81982F7A
:1024B0009295907F8C818053892B1C968C93E09110
:1024C0008A04F0918B040F900F900F900F900F9053
:1024D0000F90EF3DB3E0FB0728F089E9D1011E968C
:1024E0008C931BC0CF0164E670E00E9404209B0126
:1024F0004CE94603C001479F900D11248E0F9F1F8A
:102500006AE070E00E940420C901B4E0880F991FBE
:10251000BA95E1F7862BF10186876091B604709138
:10252000B7048091B8049091B9040E940C1D28E46E
:102530003DE34FE95CE30E946D1D20E030E040E2A6
:1025400051E40E946D1D20E030E040E05FE30E9416
:10255000801E0E945E1F7F936F9382EF91E09F9396
:102560008F9321E030E02C0F3D1F3F932F930E946B
:10257000BB218981982F9295907F8A818053892BE6
:10258000D60113968C9313978B81982F9295907FF9
:102590008C818053892B12968C9380916D0490913D
:1025A0006E042AE030E0B9010E94182094E0660F22
:1025B000771F9A95E1F7862BF601878380916F0448
:1025C00090917004B9010E94182044E0660F771FB3
:1025D0004A95E1F7862B868380917104909172046D
:1025E000B9010E94182054E0660F771F5A95E1F751
:1025F000862B85838091730490917404B9010E94A5
:102600001820A4E0660F771FAA95E1F7862B848334
:102610008091630490916404B9010E94182062952E
:10262000607F862B808780918104825041E00F90EB
:102630000F900F900F900F900F90833008F040E0B4
:1026400081E069960FAD69970E3409F080E08061F2
:102650006D960FAD6D97053411F030E001C032E09A
:10266000832B103311F420E001C024E0822B4111B0
:1026700002C090E001C098E0892B68960CAD1DADBA
:102680002EAD3FAD689737FD02C090E001C090E8E5
:10269000892BD1011F968C93909181049350923095
:1026A00068F460916304709164042091400130915A
:1026B00041016217730714F090E201C090E0892B8A
:1026C000F1018787442391F02091630430916404E1
:1026D00080913E0190913F01281739073CF081E03D
:1026E00090913B02911180E080933B028091930294
:1026F0008F93809192028F93809191028F9380911A
:1027000090028F938CEF91E09F938F9380E692E0FD
:102710009F938F930E94BB210FB6F894DEBF0FBE2C
:10272000CDBF0E94B103DC01CB01A1962CAD3DAD24
:102730004EAD5FADA197821B930BA40BB50B80939D
:10274000940290939502A0939602B0939702809181
:10275000440190914501892B21F01092450110927E
:1027600044010E94B9010C94200A80919405909133
:102770009505009709F45BC06EED74E00E94F802C5
:1027800000E615E0EE24E394F12C8091380190915D
:102790003901E816F906D4F48091940590919505D5
:1027A000DC01ED91FC910190F081E02D6CE2099546
:1027B000F801619171918F01809194059091950537
:1027C0000E94F802FFEFEF1AFF0ADFCF80918F051A
:1027D0008F9380918E058F93A7E9B1E0BF93AF935C
:1027E00001E010E00C0F1D1F1F930F930E94BB21EF
:1027F000B80180919405909195050E94F8020F9080
:102800000F900F900F900F900F9011C08091750452
:10281000909176040196909376048093750420E855
:1028200030E030935902209358020C94010B8091B0
:10283000790490917A04A0917B04B0917C04019674
:10284000A11DB11D8093790490937A04A0937B0419
:10285000B0937C048091DA049091DB04892B09F415
:102860005BC280913801909139012091E1042734B5
:1028700009F07FC12091E204273409F010C22091B1
:10288000E304213409F048C20B970CF445C280914F
:1028900082049091830481609093830480938204E6
:1028A00000916005109161054BE050E0B80183E3B1
:1028B00094E00E94AC21F80101900020E9F73197E3
:1028C000E01BF10B399708F463C0D8018C91082EF6
:1028D000000C990BC0974AE0489F9001499F300D2A
:1028E000112411968C911197082E000C990BC0970A
:1028F000820F931F90936E0480936D0412968C91B7
:102900001297082E000C990BC097489F9001499F81
:10291000300D112413968C911397082E000C990BEF
:10292000C097820F931F9093700480936F04149646
:102930008C911497082E000C990BC097489F90011A
:10294000499F300D112415968C911597082E000C77
:10295000990BC097820F931F909372048093710418
:1029600017968C911797082E000C990BC097489FCB
:102970009001499F300D112418968C91082E000C5F
:10298000990BC097820F931F9093740480937304E4
:10299000E0916405F09165058081811101C08EE4AC
:1029A000809329040091620510916305F80101905C
:1029B0000020E9F73197E01BF10B399708F441C08B
:1029C0004FE050E0B80189E094E00E94AC21109201
:1029D0001804C80102960E945F1B4B015C01F801BC
:1029E0001282C8010E94631BBC01990F880B990BCE
:1029F0000E940E1D6B017C0120E030E040E752E4B4
:102A0000C501B4010E94EC1E9B01AC01C701B601D7
:102A10000E94801E6093CE047093CF048093D004F4
:102A20009093D10420912904233559F4DC01CB0182
:102A3000B0588093CE049093CF04A093D004B09369
:102A4000D104E0916805F09169058081811101C090
:102A500085E480932A040091660510916705F801CA
:102A600001900020E9F73197E01BF10B3A9708F449
:102A700042C04FE050E0B80189E194E00E94AC21EF
:102A800010922804C80103960E945F1B4B015C0151
:102A9000D80113961C92C8010E94631BBC01990FB8
:102AA000880B990B0E940E1D6B017C0120E030E029
:102AB00040E752E4C501B4010E94EC1E9B01AC0149
:102AC000C701B6010E94801E6093D2047093D304A4
:102AD0008093D4049093D50420912A04273559F487
:102AE000DC01CB01B0588093D2049093D304A0931F
:102AF000D404B093D50480916A0590916B05FC01D4
:102B00002081222319F00E94631B02C080E090E024
:102B1000909366048093650480916C0590916D0597
:102B2000DC012C91222319F00E94631B02C080E07B
:102B300090E0909364048093630400917005109179
:102B40007105F8018081882309F4E6C047E050E070
:102B5000B8018BE294E00E94AC21C8010E945F1B87
:102B60006093BA047093BB048093BC049093BD043B
:102B7000D3C0223509F0D0C02091E2042D3409F0F1
:102B8000CBC02091E304233409F0C6C00B970CF4AA
:102B9000C3C08091820490918304826090938304E7
:102BA00080938204E0917005F0917105DF010D9032
:102BB0000020E9F71197AE1BBF0B169708F441C030
:102BC0008081082E000C990BC0974AE0489F900125
:102BD000499F300D11248181082E000C990BC0975C
:102BE000820F931F90936C0480936B048281082E54
:102BF000000C990BC097489F9001499F300D1124FC
:102C00008381082E000C990BC097820F931F90931D
:102C10006A04809369042481022E000C330B205334
:102C20003109429FC001439F900D11242581820FDD
:102C3000911D27FD9A958056984F90936804809334
:102C4000670400916C0510916D05D8018C91882363
:102C500071F047E050E0B8018FE394E00E94AC21AE
:102C6000C8010E94631B9093600480935F040091ED
:102C70006E0510916F05F8018081882309F44CC01E
:102C800047E050E0B80187E494E00E94AC21C8011D
:102C90000E94631B90936204809361043DC02335BE
:102CA000D9F52091E3042134B9F54197ACF1809135
:102CB00082049091830484609093830480938204BF
:102CC00060917E0570917F0547E050E08FE494E0CD
:102CD0000E94AC21609180057091810547E050E031
:102CE00087E594E00E94AC218FE494E00E945F1B92
:102CF0006093C6047093C7048093C8049093C9047A
:102D000087E594E00E945F1B6093CA047093CB0434
:102D10008093CC049093CD0468960CAD1DAD2EAD80
:102D20003FAD68970093AA041093AB042093AC04C2
:102D30003093AD0474CD8091E104803190F4209102
:102D400084043091850441E050E0082E02C0440F15
:102D5000551F0A94E2F7242B352B309385042093DA
:102D60008404863009F40AC138F4823009F480C042
:102D7000843051F00C94710B823109F46BC18132B3
:102D800009F409C10C94710B6091EF0470E0762F87
:102D900066278091EE04682B70938D0460938C04F9
:102DA00080E090E00E940C1D2AE037ED43E25CE3F6
:102DB0000E946D1D6093CA047093CB048093CC0471
:102DC0009093CD040091F10410E0102F0027809122
:102DD000F004082B10938B0400938A04B80180E060
:102DE00090E00E940C1D2AE037ED43E25CE30E9474
:102DF0006D1D6093C6047093C7048093C8049093BC
:102E0000C9048091DA049091DB04892B11F00C94B1
:102E1000710B54E6E52EF12CC801B7010E94042085
:102E20009F938F937F936F930DE911E01F930F93FF
:102E30008FE494E09F938F930E94BB2180918C0438
:102E400090918D04B7010E9404209F938F937F93EC
:102E50006F931F930F9387E594E09F938F930E9446
:102E6000BB210FB6F894DEBF0FBECDBF0C94710B23
:102E70002091E9046091EA04862F90E0A0E0B0E0A0
:102E8000DC0199278827922B2091E804822B20913E
:102E9000EB04BC01CD01922B6093920470939304D8
:102EA00080939404909395040E940E1D20E836E9C7
:102EB00048E15BE40E94EC1E6093D2047093D3045B
:102EC0008093D4049093D5042091ED046091EE0496
:102ED000862F90E0A0E0B0E0DC0199278827922BB4
:102EE0002091EC04822B2091EF04BC01CD01922BA8
:102EF00060938E0470938F04809390049093910458
:102F00000E940E1D20E836E948E15BE40E94EC1EB9
:102F10006093CE047093CF048093D0049093D10437
:102F20002091F5046091F604862F90E0A0E0B0E0D7
:102F3000DC0199278827922B2091F404822B209181
:102F4000F704BC01CD01922B609396047093970413
:102F500080939804909399040E940E1D2FE632E10D
:102F600043E85AE30E946D1D6093BA047093BB045A
:102F70008093BC049093BD040C94710B8091EE047B
:102F8000809381048091130590E090936404809372
:102F900063040C94710B8091840490918504906873
:102FA00090938504809384048091F70482FD02C08D
:102FB0000C94710B8091F10490E0982F8827209158
:102FC000F004820F911D90936804809367048091B0
:102FD000F20490E090936A04809369048091F30472
:102FE00090E090936C0480936B048091F40490E0E3
:102FF00090936E0480936D048091F50490E090931B
:10300000700480936F048091F60490E090937204B2
:10301000809371042091ED046091EE04862F90E07E
:10302000A0E0B0E0DC0199278827922B2091EC04E6
:10303000822B2091EF04BC01CD01922B20E836E9D0
:1030400048E950E00E942C203093740420937304CC
:103050000C94710B2091E9046091EA04862F90E0B2
:10306000A0E0B0E0DC0199278827922B2091E804AA
:10307000822B2091EB04BC01CD01922B60939E0426
:1030800070939F048093A0049093A1042091ED0479
:103090008090EE04912CA12CB12C54019924882409
:1030A000922A2091EC04822A2091EF04B22A809285
:1030B000A2049092A304A092A404B092A50420912B
:1030C000F104C090F204D12CE12CF12C7601DD2426
:1030D000CC24D22A2091F004C22A2091F304F22AAF
:1030E000C092A604D092A704E092A804F092A9048A
:1030F0009B01AC010E94F41F6C966CAF7DAF8EAF4C
:103100009FAF6C97A5019401C501B4010E94F41F03
:103110006C968CAC9DACAEACBFAC6C97860E971E1B
:10312000A81EB91EA7019601C701B6010E94F41F8F
:10313000680D791D8A1D9B1D0E940E1D0E949F1FF8
:103140006093D6047093D7048093D8049093D904E5
:1031500028E43DE34FE95CE30E946D1D0E945E1F81
:10316000072E000C880B990B0E940E1D6093C20461
:103170007093C3048093C4049093C5042091F50414
:103180008091F60490E0A0E0B0E0DC019927882768
:10319000922B2091F404822B2091F704B22B809380
:1031A000B2049093B304A093B404B093B5042091F7
:1031B000F9046091FA04862F90E0A0E0B0E0DC0111
:1031C00099278827922B2091F804822B2091FB04C9
:1031D000BC01CD01922B6093B6047093B704809329
:1031E000B8049093B9040E940C1D28E43DE34FE914
:1031F0005CE30E946D1D0E945E1F709360046093EB
:103200005F042091FD046091FE04862F90E0A0E011
:10321000B0E0DC0199278827922B2091FC04822BB7
:103220002091FF04BC01CD01922B60939A0470930E
:103230009B0480939C0490939D0420EA36E841E02F
:1032400050E00E942C2030936204209361040C947F
:10325000710B8091E104883021F0843229F10C94C3
:10326000710B8091E50490E0982F88272091E40469
:10327000822B909389048093880420918604309156
:1032800087042817390710F00C94710B40932C0118
:1032900020932E0130932F0160E070E08AE291E0EC
:1032A0000E94B5060C94710B8091E60490E007979C
:1032B00034F487E08093E60481E090E002C080E08F
:1032C00090E02091E704223021F082E08093E7042F
:1032D00004C0892B11F40C94710B62961FAE629797
:1032E0002A961FAE2A970091E20410E0AE01475BD8
:1032F0005F4FBE016F5A7F4F8EED94E00E9494069F
:10330000C801835F9B4FFC01E952FF4F62962FADCE
:103310006297208331962A968FAD2A978083809179
:10332000900590919105DC01ED91FC91A801485F19
:103330005F4F0280F381E02D6EED74E009950C94EF
:10334000710B8091770490917804019690937804A2
:10335000809377040C94940B109261031092600395
:1033600088EE93E0A0E0B0E0809362039093630363
:10337000A0936403B093650322E731E030935F03C9
:1033800020935E0325EC30E030936B0320936A03B7
:1033900024EC30E030936D0320936C0320EC30E09C
:1033A00030936F0320936E0321EC30E03093710370
:1033B0002093700322EC30E0309373032093720368
:1033C00026EC30E03093750320937403109277035A
:1033D000109278031092790310927A0310929B0551
:1033E00010929A0580939C0590939D05A0939E054D
:1033F000B0939F0584E891E0909399058093980598
:103400008EE48093290485E480932A04109260045A
:1034100010925F041092620410926104109264048E
:1034200010926304109266041092650480ED97E098
:10343000909368048093670481E090E090936A041D
:103440008093690490936C0480936B0410926E04D3
:1034500010926D041092700410926F041092720416
:1034600010927104109274041092730410927604F6
:1034700010927504109278041092770410927904D7
:1034800010927A0410927B0410927C0410927D04B6
:1034900010927E0410927F04109280041092810496
:1034A0001092830410928204109285041092840476
:1034B00088EC90E0909387048093860410928904AE
:1034C0001092880410928B0410928A0410928D043A
:1034D00010928C0410928E0410928F04109290041B
:1034E00010929104109292041092930410929404FA
:1034F00010929504109296041092970410929804DA
:103500001092990410929A0410929B0410929C04B9
:1035100010929D0410929E0410929F041092A00499
:103520001092A1041092A2041092A3041092A40479
:103530001092A5041092A6041092A7041092A80459
:103540001092A9041092AA041092AB041092AC0439
:103550001092AD041092AE041092AF041092B00419
:103560001092B1041092B2041092B3041092B404F9
:103570001092B5041092B6041092B7041092B804D9
:103580001092B9041092BA041092BB041092BC04B9
:103590001092BD041092BE041092BF041092C00499
:1035A0001092C1041092C2041092C3041092C40479
:1035B0001092C50481EE9AEFA7ECB2E48093C604A2
:1035C0009093C704A093C804B093C9048093CA041D
:1035D0009093CB04A093CC04B093CD041092CE046E
:1035E0001092CF041092D0041092D1041092D20401
:1035F0001092D3041092D4041092D5041092D604E1
:103600001092D7041092D8041092D9041092DB04BF
:103610001092DA041092DD041092DC04A9E1B4E007
:10362000E9E0F4E080E28D93819394E0E831F907DA
:10363000D1F71092240410921304109228041092CF
:10364000180410925E0410925704109256041092BF
:103650004F0410923E041092330410924E041092C4
:1036600047041092460410923F04109232041092C4
:103670002B041092910510929005109297051092CC
:10368000960510929505109294051092930510924C
:1036900092051092050410920604109207041092ED
:1036A0000804EDEFF3E0119284E0E530F807D9F774
:1036B00088E995E09093FC038093FB0308956627C7
:1036C00077270C94891BFC0188279927E89421917E
:1036D0002032E9F3293010F02E30C8F32B3241F0BC
:1036E0002D3239F4689404C00E94811B820F911D11
:1036F000219120532A30C0F31EF4909581959F4F5D
:1037000008957AE0979F902D879F802D910D112429
:103710000895A0E0B0E0EFE8FBE10C943D1EEC0161
:103720007B016115710519F0DB018D939C938E016E
:103730000F5F1F4F7880872D90E00E94E61C892B39
:1037400011F0E801F4CFBDE27B1205C00F5F1F4FFF
:103750007980C1E008C0EBE27E1204C08E010E5FEA
:103760001F4F7980C0E06801F1E0CF1AD10843E033
:1037700050E060EA70E0C6010E94EF1C892BF1F472
:10378000680122E0C20ED11C45E050E06BE970E018
:10379000C6010E94EF1C892B21F4680187E0C80E46
:1037A000D11CE114F10419F0D701CD92DC92C111C2
:1037B000FFC060E070E080E89FE703C143E050E0B5
:1037C00068E970E0C6010E94EF1C892B51F4E114F6
:1037D000F10409F4F2C00E5F1F4FF701118300835B
:1037E000ECC0680160E070E0CB0100E010E0F601A1
:1037F000D0EDD70DDA3058F52C2F2260622E2C2F09
:103800002870C2FF05C0211128C00F5F1F4F25C0BF
:10381000222311F001501109A5E0B0E09B01AC0199
:103820000E942E1E4B015C01880C991CAA1CBB1C1B
:10383000C501B4016D0F711D811D911D6839A9E984
:103840007A078A07A9E19A0740F0C66005C0DE3F03
:1038500051F4C3FD44C0C8606C2EBFEFCB1ADB0A25
:103860007080C62DC4CF2D2F2F7D2531C1F540810D
:103870004D3211F4C06106C04B3221F0319621E087
:1038800030E006C03296D60111964C9122E030E02D
:10389000A0EDA40FAA3018F0E21BF30B20C040E00B
:1038A00050E04038BCE05B075CF49A01220F331F04
:1038B000220F331F420F531F440F551F4A0F511D34
:1038C0003196DF0111972C91A0EDA20FAA3048F399
:1038D000C4FF03C0519541955109040F151FC1FF45
:1038E00007C0E114F10421F03197D701ED93FC9367
:1038F0000E940C1DC370C33019F06B017C0106C01F
:103900006B017C01F7FAF094F7F8F09420E030E0D6
:10391000A901C701B6010E94071D882309F445C00B
:1039200017FF06C0119501951109C7EBD0E002C041
:10393000CFECD0E05E01B8E1AB1AB1084601BE2D74
:10394000AF2D90E2E92EF12C0E151F0584F0FE013B
:103950002591359145915491B4018B2F9A2F0E9456
:103960006D1D4B01B82FA92F0E191F09EDCF2497FC
:10397000F594E794CA15DB0539F76401EB2EFA2EAE
:103980008E2D880F8F2D881F8F3F49F020E030E06B
:10399000A901C701B6010E94071D811106C082E27C
:1039A00090E09093A5058093A405C701B60109C0D6
:1039B00060E070E080E89FEF04C060E070E080ECC1
:1039C0009FE7CDB7DEB7EEE00C94591E91110C9431
:1039D000DA1D803219F089508550C8F70895FB012F
:1039E000DC014150504088F08D9181341CF08B35C2
:1039F0000CF4805E659161341CF06B350CF4605EF4
:103A0000861B611171F3990B0895881BFCCF0E94EE
:103A1000491D08F481E00895E89409C097FB3EF43D
:103A200090958095709561957F4F8F4F9F4F99230B
:103A3000A9F0F92F96E9BB279395F6958795779589
:103A40006795B795F111F8CFFAF4BB0F11F460FF49
:103A50001BC06F5F7F4F8F4F9F4F16C0882311F0A1
:103A600096E911C0772321F09EE8872F762F05C0B5
:103A7000662371F096E8862F70E060E02AF09A9550
:103A8000660F771F881FDAF7880F9695879597F945
:103A90000895990F0008550FAA0BE0E8FEEF1616DF
:103AA0001706E807F907C0F012161306E407F50732
:103AB00098F0621B730B840B950B39F40A2661F0A6
:103AC000232B242B252B21F408950A2609F4A14049
:103AD000A6958FEF811D811D08950E94801D0C9475
:103AE000F41D0E94E61D38F00E94ED1D20F0952384
:103AF00011F00C94DD1D0C94E31D11240C94281E70
:103B00000E94051E70F3959FC1F3950F50E0551F5D
:103B1000629FF001729FBB27F00DB11D639FAA2722
:103B2000F00DB11DAA1F649F6627B00DA11D661F71
:103B3000829F2227B00DA11D621F739FB00DA11D92
:103B4000621F839FA00D611D221F749F3327A00D4C
:103B5000611D231F849F600D211D822F762F6A2FE8
:103B600011249F5750409AF0F1F088234AF0EE0F4D
:103B7000FF1FBB1F661F771F881F91505040A9F77A
:103B80009E3F510580F00C94DD1D0C94281E5F3F74
:103B9000E4F3983ED4F3869577956795B795F795B6
:103BA000E7959F5FC1F7FE2B880F911D969587952E
:103BB00097F9089599278827089597F99F6780E8CE
:103BC00070E060E008959FEF80EC089500240A946F
:103BD0001616170618060906089500240A941216E8
:103BE0001306140605060895092E0394000C11F41B
:103BF000882352F0BB0F40F4BF2B11F460FF04C0C8
:103C00006F5F7F4F8F4F9F4F089557FD9058440F20
:103C1000551F59F05F3F71F04795880F97FB991F2B
:103C200061F09F3F79F087950895121613061406E8
:103C3000551FF2CF4695F1DF08C016161706180675
:103C4000991FF1CF86957105610508940895E89450
:103C5000BB2766277727CB0197F908950E94701E2E
:103C6000A59F900DB49F900DA49F800D911D1124D0
:103C700008952F923F924F925F926F927F928F9210
:103C80009F92AF92BF92CF92DF92EF92FF920F93EB
:103C90001F93CF93DF93CDB7DEB7CA1BDB0B0FB6F5
:103CA000F894DEBF0FBECDBF09942A8839884888B2
:103CB0005F846E847D848C849B84AA84B984C88448
:103CC000DF80EE80FD800C811B81AA81B981CE0F3F
:103CD000D11D0FB6F894DEBF0FBECDBFED01089524
:103CE000A29FB001B39FC001A39F700D811D11243D
:103CF000911DB29F700D811D1124911D0895505882
:103D0000BB27AA270E94971E0C94F41D0E94E61D53
:103D100038F00E94ED1D20F039F49F3F19F426F48D
:103D20000C94E31D0EF4E095E7FB0C94DD1DE92FE8
:103D30000E94051E58F3BA17620773078407950798
:103D400020F079F4A6F50C94271E0EF4E0950B2EC6
:103D5000BA2FA02D0B01B90190010C01CA01A001DD
:103D60001124FF27591B99F0593F50F4503E68F138
:103D70001A16F040A22F232F342F4427585FF3CF79
:103D8000469537952795A795F0405395C9F77EF44A
:103D90001F16BA0B620B730B840BBAF09150A1F093
:103DA000FF0FBB1F661F771F881FC2F70EC0BA0F19
:103DB000621F731F841F48F4879577956795B795A1
:103DC000F7959E3F08F0B0CF9395880F08F099279C
:103DD000EE0F9795879508950E94001F0C94F41D8F
:103DE0000E94ED1D58F00E94E61D40F029F45F3F4F
:103DF00029F00C94DD1D51110C94281E0C94E31D28
:103E00000E94051E68F39923B1F3552391F3951B86
:103E1000550BBB27AA2762177307840738F09F5FEB
:103E20005F4F220F331F441FAA1FA9F335D00E2E58
:103E30003AF0E0E832D091505040E695001CCAF7C5
:103E40002BD0FE2F29D0660F771F881FBB1F261788
:103E500037074807AB07B0E809F0BB0B802DBF015F
:103E6000FF2793585F4F3AF09E3F510578F00C942E
:103E7000DD1D0C94281E5F3FE4F3983ED4F3869535
:103E800077956795B795F7959F5FC9F7880F911D4F
:103E90009695879597F90895E1E0660F771F881F3B
:103EA000BB1F621773078407BA0720F0621B730BEE
:103EB000840BBA0BEE1F88F7E09508950E94651FEA
:103EC0006894B1110C94281E08950E940D1E88F06C
:103ED0009F5798F0B92F9927B751B0F0E1F0660FCE
:103EE000771F881F991F1AF0BA95C9F714C0B1300F
:103EF00091F00E94271EB1E008950C94271E672FB1
:103F0000782F8827B85F39F0B93FCCF3869577953D
:103F10006795B395D9F73EF4909580957095619526
:103F20007F4F8F4F9F4F08950E94491D08F48FEFD8
:103F3000089519F416F40C94E31D0C94DF1F0E94ED
:103F40000D1EB8F39923C9F3B6F39F57550B87FF9E
:103F50000E94ED1F0024A0E640EA9001805856958B
:103F6000979528F4805C660F771F881F20F026172E
:103F70003707480730F4621B730B840B2029312963
:103F80004A2BA69517940794202531254A2758F7E0
:103F9000660F771F881F20F026173707480730F471
:103FA000620B730B840B200D311D411DA09581F711
:103FB000B901842F9158880F9695879508959F3F52
:103FC00031F0915020F4879577956795B795880FD4
:103FD000911D9695879597F9089591505040660FD9
:103FE000771F881FD2F70895DB018F939F930E945C
:103FF0002E1EBF91AF91A29F800D911DA39F900D8A
:10400000B29F900D11240895AA1BBB1B51E107C05C
:10401000AA1FBB1FA617B70710F0A61BB70B881F58
:10402000991F5A95A9F780959095BC01CD010895E7
:1040300097FB072E16F4009407D077FD09D00E9455
:10404000042007FC05D03EF4909581959F4F08957C
:10405000709561957F4F0895052E97FB1EF400948F
:104060000E94432057FD07D00E94512007FC03D037
:104070004EF40C94432050954095309521953F4F38
:104080004F4F5F4F089590958095709561957F4F44
:104090008F4F9F4F0895EE0FFF1F0590F491E02D75
:1040A0000994A1E21A2EAA1BBB1BFD010DC0AA1F79
:1040B000BB1FEE1FFF1FA217B307E407F50720F091
:1040C000A21BB30BE40BF50B661F771F881F991F0C
:1040D0001A9469F760957095809590959B01AC0155
:1040E000BD01CF010895CF93DF938230910510F485
:1040F00082E090E0E091A805F091A90520E030E091
:10410000C0E0D0E0309711F1408151814817590744
:10411000C0F04817590761F482819381209719F004
:104120009B838A832BC09093A9058093A80526C002
:104130002115310519F04217530718F49A01BE01F1
:10414000DF01EF010280F381E02DDCCF2115310585
:1041500009F1281B390B2430310590F412968D910A
:104160009C9113976115710521F0FB019383828364
:1041700004C09093A9058093A805FD01329644C020
:10418000FD01E20FF31F81939193225031092D938A
:104190003C933AC02091A6053091A705232B41F40A
:1041A00020914801309149013093A7052093A6053D
:1041B00020914601309147012115310541F42DB779
:1041C0003EB740914A0150914B01241B350BE091C1
:1041D000A605F091A705E217F307A0F42E1B3F0BED
:1041E0002817390778F0AC014E5F5F4F2417350769
:1041F00048F04E0F5F1F5093A7054093A60581938B
:10420000919302C0E0E0F0E0CF01DF91CF910895FB
:104210000F931F93CF93DF93009709F48CC0FC0199
:104220003297138212820091A8051091A9050115F9
:10423000110581F420813181820F931F2091A60501
:104240003091A7052817390779F5F093A705E09372
:10425000A60571C0D80140E050E0AE17BF0750F48A
:1042600012962D913C911397AD012115310509F15D
:10427000D901F3CF9D01DA013383228360817181FB
:10428000860F971F8217930769F4EC012881398103
:10429000260F371F2E5F3F4F318320838A819B81FA
:1042A00093838283452B29F4F093A905E093A80515
:1042B00042C01396FC93EE931297ED0149915991E8
:1042C0009E01240F351FE217F30771F4808191815D
:1042D000840F951F029611969C938E9382819381F1
:1042E00013969C938E931297E0E0F0E0D80112961B
:1042F0008D919C911397009719F0F8018C01F6CFDE
:104300008D919C9198012E5F3F4F820F931F2091BA
:10431000A6053091A7052817390769F4309729F4C5
:104320001092A9051092A80502C013821282109360
:10433000A7050093A605DF91CF911F910F910895D6
:1043400081E090E0F8940C945C24DC0101C06D9352
:1043500041505040E0F70895FB01DC0141505040CE
:1043600048F001900D920020C9F701C01D92415004
:104370005040E0F70895AEE0B0E0E1ECF1E20C94DB
:10438000471E0D891E8986E08C831A8309838FEF6F
:104390009FE79E838D83AE01475E5F4F6F89788D67
:1043A000CE0101960E94DE212F813885F801E20FAF
:1043B000F31F10822E96E4E00C94631EACE0B0E094
:1043C000E4EEF1E20C94391E7C016B018A01FC01E0
:1043D00017821682838181FFBDC1CE0101964C01F7
:1043E000F7019381F60193FD859193FF81916F0110
:1043F000882309F4ABC1853239F493FD859193FF8D
:1044000081916F01853229F4B70190E00E94C623A3
:10441000E7CF512C312C20E02032A0F48B3269F010
:1044200030F4803259F0833269F420612CC08D322F
:1044300039F0803339F4216026C02260246023C023
:10444000286021C027FD27C030ED380F3A3078F4BE
:1044500026FF06C0FAE05F9E300D1124532E13C0D4
:104460008AE0389E300D1124332E20620CC08E322B
:1044700021F426FD6BC1206406C08C3611F420683F
:1044800002C0883641F4F60193FD859193FF819136
:104490006F018111C1CF982F9F7D9554933028F4DF
:1044A0000C5F1F4FFFE3F9830DC0833631F0833774
:1044B00071F0833509F05BC022C0F80180818983E7
:1044C0000E5F1F4F44244394512C540115C03801F2
:1044D000F2E06F0E711CF801A080B18026FF03C0CE
:1044E000652D70E002C06FEF7FEFC5012C870E9441
:1044F000BB232C0183012C852F77222E17C0380176
:10450000F2E06F0E711CF801A080B18026FF03C09D
:10451000652D70E002C06FEF7FEFC5012C870E9410
:10452000B0232C012C852068222E830123FC1BC084
:10453000832D90E048165906B0F4B70180E290E070
:104540000E94C6233A94F4CFF50127FC859127FEFB
:1045500081915F01B70190E00E94C62331103A9427
:10456000F1E04F1A51084114510471F7E5C0843647
:1045700011F0893639F5F80127FF07C06081718194
:10458000828193810C5F1F4F08C060817181072E6B
:10459000000C880B990B0E5F1F4F2F76722E97FF22
:1045A00009C090958095709561957F4F8F4F9F4F73
:1045B0002068722E2AE030E0A4010E94FE23A82E7B
:1045C000A81844C0853729F42F7EB22E2AE030E0A7
:1045D00025C0F22FF97FBF2E8F36C1F018F4883531
:1045E00079F0B4C0803719F0883721F0AFC02F2F91
:1045F0002061B22EB4FE0DC08B2D8460B82E09C090
:1046000024FF0AC09F2F9660B92E06C028E030E034
:1046100005C020E130E002C020E132E0F801B7FE41
:1046200007C060817181828193810C5F1F4F06C03A
:104630006081718180E090E00E5F1F4FA4010E94B5
:10464000FE23A82EA818FB2DFF777F2E76FE0BC029
:10465000372D3E7FA51450F474FE0AC072FC08C0CA
:10466000372D3E7E05C0BA2C372D03C0BA2C01C0B1
:10467000B52C34FF0DC0FE01EA0DF11D80818033A1
:1046800011F4397E09C032FF06C0B394B39404C05C
:10469000832F867809F0B39433FD13C030FF06C032
:1046A0005A2CB31418F4530C5B18B32CB31468F4DD
:1046B000B70180E290E03C870E94C623B3943C851A
:1046C000F5CFB31410F43B1801C0312C34FF12C0E5
:1046D000B70180E390E03C870E94C6233C8532FF0F
:1046E00017C031FD03C088E790E002C088E590E084
:1046F000B7010CC0832F867859F031FF02C08BE2DE
:1047000001C080E237FD8DE2B70190E00E94C62330
:10471000A51438F4B70180E390E00E94C6235A94B0
:10472000F7CFAA94F401EA0DF11D8081B70190E062
:104730000E94C623A110F5CF332009F451CEB70152
:1047400080E290E00E94C6233A94F6CFF70186817A
:10475000978102C08FEF9FEF2C96E2E10C94551EDB
:10476000FC010590615070400110D8F7809590953C
:104770008E0F9F1F0895FC01615070400190011041
:10478000D8F7809590958E0F9F1F08950F931F93D4
:10479000CF93DF93FB01238121FD03C08FEF9FEFB8
:1047A00028C022FF16C046815781248135814217D7
:1047B000530744F4A081B1819D012F5F3F4F3183A6
:1047C00020838C93268137812F5F3F4F3783268349
:1047D00010C0EB01092F182F0084F185E02D0995F9
:1047E000892BE1F68E819F8101969F838E83812F95
:1047F000902FDF91CF911F910F910895FA01AA2771
:10480000283051F1203181F1E8946F936E7F6E5F13
:104810007F4F8F4F9F4FAF4FB1E03ED0B4E03CD0C1
:10482000670F781F891F9A1FA11D680F791F8A1FA4
:10483000911DA11D6A0F711D811D911DA11D20D00B
:1048400009F468943F912AE0269F11243019305DC5
:104850003193DEF6CF010895462F4770405D4193B6
:10486000B3E00FD0C9F7F6CF462F4F70405D4A3303
:1048700018F0495D31FD4052419302D0A9F7EACFCB
:10488000B4E0A6959795879577956795BA95C9F7FA
:1048900000976105710508959B01AC010A2E0694ED
:1048A0005795479537952795BA95C9F7620F731FA6
:0C48B000841F951FA01D0895F894FFCFF1
:1048BC000A000600140001000000D0080000004BA4
:1048CC0000000300030000000000000006010800C7
:1048DC00F002000000000001000006080600C800FD
:1048EC0001000100000006000100FFFF01000600AE
:1048FC00080030F801000000AA0580000600010045
:10490C000100000016170000000000000624000043
:10491C000000063E00000000060800000000000039
:10492C0000005001BD00E80097011901F7000B01D0
:10493C00000000006B0257027D022B024F023B026B
:10494C002C0225303258002A25730D0A00253264BA
:10495C002E25303264004A756C20203920323032DA
:10496C003000475053332025730025642073617445
:10497C00730025356C6420252D356C640025356459
:10498C0020252D35640048444F50202535730056A2
:10499C00444F50202535730025366C640025303685
:1049AC006400253034640025303364002564000035
:00000001FF
