:100000000C947B000C94A3000C94A3000C94A3000C
:100010000C94A3000C94A3000C94A3000C94A300D4
:100020000C94A3000C94DA050C94A3000C94A30088
:100030000C94A3000C94A3000C94A3000C94A300B4
:100040000C9490050C94A3000C945E050C94380558
:100050000C94A3000C94A3000C94A3000C94A30094
:100060000C944C060C94A3004E414E494E495459F1
:10007000494E46CDCCCC3D0AD7233C17B7D1387773
:10008000CC2B329595E6241FB14F0A000020410089
:1000900000C84200401C4620BCBE4CCA1B0E5AAED3
:1000A000C59D740000000800020100000304070061
:1000B0000000000000000000000000250028002BC8
:1000C0000000000000240027002A000404040404A7
:1000D00004040402020202020203030303030301F5
:1000E00002040810204080010204081020010204CC
:1000F000081020006B0711241FBECFEFD8E0DEBF31
:10010000CDBF25E0AEEFB1E001C01D92A038B2072F
:10011000E1F711E0A0E0B1E0EEE6F7E402C00590FF
:100120000D92AE3FB107D9F710E0CBE7D0E004C0A5
:100130002197FE010E94B11FCA37D107C9F70E945B
:1001400015090C94B5230C940000CF93DF93EA01BA
:100150001882FB011082FC01248130E02C5F3F4FAC
:10016000AC014E5F5F4FB0E0A0E0FA018191AF01BA
:10017000FB019081890F80839881890F8883119674
:10018000A217B30794F3DF91CF910895E091A502F0
:10019000F091A602309729F01092AC021092AB02B7
:1001A000099408950895AF92BF92CF92DF92EF9293
:1001B000FF920F931F93CF93DF936C017B018B0111
:1001C000040F151FEB015E01AE18BF08C017D10761
:1001D00059F06991D601ED91FC910190F081E02DEB
:1001E000C6010995892B79F7C501DF91CF911F9140
:1001F0000F91FF90EF90DF90CF90BF90AF90089558
:10020000FC01538D448D252F30E0842F90E0821B1C
:10021000930B541710F0CF96089501970895FC01A1
:10022000918D828D981761F0A28DAE0FBF2FB11DF9
:100230005D968C91928D9F5F9F73928F90E0089551
:100240008FEF9FEF0895FC01918D828D981731F00B
:10025000828DE80FF11D858D90E008958FEF9FEF5F
:100260000895FC01918D228D892F90E0805C9F4F35
:10027000821B91098F73992708958CE393E00E9464
:10028000310121E0892B09F420E0822F089580E0DC
:1002900090E0892B29F00E943D0181110C9400000F
:1002A0000895FC01A48DA80FB92FB11DA35ABF4F0B
:1002B0002C91848D90E001968F739927848FA68965
:1002C000B7892C93A089B1898C91837080648C93B9
:1002D000938D848D981306C00288F389E02D808168
:1002E0008F7D80830895EF92FF920F931F93CF939A
:1002F000DF93EC0181E0888F9B8D8C8D98131AC061
:10030000E889F989808185FF15C09FB7F894EE8947
:10031000FF896083E889F9898081837080648083A4
:100320009FBF81E090E0DF91CF911F910F91FF90EF
:10033000EF900895F62E0B8D10E00F5F1F4F0F7397
:100340001127E02E8C8D8E110CC00FB607FCFACF52
:10035000E889F989808185FFF5CFCE010E9451019E
:10036000F1CFEB8DEC0FFD2FF11DE35AFF4FF08223
:100370009FB7F8940B8FEA89FB8980818062CFCF89
:10038000CF93DF93EC01888D8823B9F0AA89BB89CC
:10039000E889F9898C9185FD03C0808186FD0DC0B7
:1003A0000FB607FCF7CF8C9185FFF2CF808185FFD8
:1003B000EDCFCE010E945101E9CFDF91CF91089599
:1003C00090E0FC01ED55FF4F2491FC01E152FF4FFD
:1003D0003491FC01E553FF4FE491EE23C9F0222351
:1003E00039F0233001F1A8F4213019F1223029F13C
:1003F000F0E0EE0FFF1FE954FF4FA591B4918FB7C6
:10040000F894EC91611126C030953E233C938FBF48
:1004100008952730A9F02830C9F0243049F7809199
:1004200080008F7D03C0809180008F778093800053
:10043000DFCF84B58F7784BDDBCF84B58F7DFBCFD5
:100440008091B0008F778093B000D2CF8091B000C0
:100450008F7DF9CF3E2BDACF3FB7F8948091A10280
:100460009091A202A091A302B091A40226B5A89BEC
:1004700005C02F3F19F00196A11DB11D3FBFBA2F36
:10048000A92F982F8827BC01CD01620F711D811DF6
:10049000911D43E0660F771F881F991F4A95D1F77A
:1004A00008958F929F92AF92BF92CF92DF92EF9278
:1004B000FF924B015C010E942C026B017C010E94A7
:1004C0002C026C197D098E099F09683E73408105D5
:1004D0009105A8F321E0821A9108A108B10888EEDD
:1004E000C80E83E0D81EE11CF11C81149104A10404
:1004F000B10429F7FF90EF90DF90CF90BF90AF90BD
:100500009F908F900895AF92BF92CF92DF92EF921B
:10051000FF920F931F93CF93DF93CDB7DEB7C254F3
:10052000D1090FB6F894DEBF0FBECDBF23961FAE24
:10053000239722961FAE2297DC0112960C9110E0B1
:100540007801B4E0EB0EF11CEBE3EE16F1040CF0D5
:100550005EC025EB298322E62A83FC01CE010196A9
:100560005C01DC01819112968C9312971196CD015A
:100570008A199B098E159F05ACF36B01AE014F5B89
:100580005F4FBE016E5B7F4FC5010E94A500FE015B
:10059000E00FF11F23968FAD23978783FE01E00FB5
:1005A000F11F22968FAD22978087809172059091DE
:1005B0007305085F1F4FDC01ED91FC910280F38110
:1005C000E02DA801B5010995C114D10469F00C9D75
:1005D000B0010D9D700D1C9D700D1124072E000C97
:1005E000880B990B0E945102C701CE5BDF4F0FB6FB
:1005F000F894DEBF0FBECDBFDF91CF911F910F9159
:10060000FF90EF90DF90CF90BF90AF900895F12CC6
:10061000E12CEACF2FB7F89460919D0270919E0271
:1006200080919F029091A0022FBF0895CF92DF92F8
:10063000EF92FF920F931F930E940A0320910A02E8
:1006400030910B022F5F3F4F30930B0220930A0231
:1006500020910802309109022F5F3F4F243031056D
:100660005CF430930902209308021F910F91FF90D0
:10067000EF90DF90CF900895109209021092080237
:1006800020910602309107022F5F3F4F2431310540
:1006900004F53093070220930602E0910602F091E0
:1006A00007023197E031F10500F7E75AFC4F0C944F
:1006B000B11F6E0335033503350335039F0335033F
:1006C000350335033503A1039F03AB039F03B50334
:1006D0009F031092070210920602DFCFE091D00232
:1006E000F091D10200811181228133816B017C0163
:1006F000C01AD10AE20AF30A97018601003D1740A9
:100700002105310590F0E091CE02F091CF020081F9
:10071000118122813381601B710B820B930B603D31
:1007200077408105910508F0A0CF61E08DE01F9131
:100730000F91FF90EF90DF90CF900C94E00160E07C
:10074000F5CFE091D202F091D3028081918106979A
:100750000CF48BCFEACFE091D202F091D3028081EA
:10076000918108970CF481CFE0CFE091D202F09113
:10077000D302808191810A970CF477CFD6CF209154
:100780005202260F3327331F21323105ECF420911A
:100790007602FC0190E080E0243069F082E0089568
:1007A000A09152022191AC014E5C5D4FA40FB52F78
:1007B000B11D2C930196861798F380915202680F11
:1007C0006093520280E0089581E0089510927602CD
:1007D00081E0809378021092770261E082E10E94CA
:1007E000E00161E083E10E94E001E9EBF0E080815B
:1007F0008E7F808380818D7F808380E28093B800AC
:1008000085E48093BC0008950895E091AE02809144
:10081000AD02E81730F4F0E0E45FFD4F808190E036
:1008200008958FEF9FEF08959091AE028091AD02F1
:100830002FEF3FEF981748F4E92FF0E0E45FFD4F0A
:10084000208130E09F5F9093AE02C90108958091AE
:10085000AD029091AE02891B990B0895CF93DF935F
:10086000CB01EA01642F0E94BF03CE01DF91CF913B
:100870000895CF93DF931F92CDB7DEB7698361E010
:10088000CE0101960E94BF0381E090E00F90DF91BE
:10089000CF91089590E080E008958091BB0090E0B2
:1008A000959587958631910509F460C0BCF5813135
:1008B000910509F451C08231910509F448C00C97A3
:1008C00009F069C081E090E02091E802222311F054
:1008D00090E080E0880F991FFC01EC51FD4F608192
:1008E00071818091E2029091E3028830910564F574
:1008F00001969093E3028093E2026115710509F479
:100900004AC08091E5039091E603DC01ED91FC91F2
:100910000280F381E02D40E150E009948A33910593
:10092000A9F180349105E9F04797A9F581E090E0BD
:1009300020912103222311F090E080E0880F991F7D
:10094000FC01E75EFC4F1FC090E080E0D2CF6091D9
:10095000B9027091BA02D1CF6091BD027091BE020E
:10096000CCCF6091B5027091B602C7CF81E090E024
:1009700020912103222311F090E080E0880F991F3D
:10098000FC01E35EFC4F60817181B7CF6091B102E1
:100990007091B202B2CF08956115710579F0FB0133
:1009A00001900020E9F73197AF01461B570BDC019E
:1009B000ED91FC910280F381E02D099490E080E0BC
:1009C0000895CF93DF9385ED8093BC0080912E0234
:1009D00090912F02A0913002B09131020796A11D93
:1009E000B11D23E0B695A795979587952A95D1F7E0
:1009F0002091BC0024FD03C01092760236C04091C5
:100A00002E0250912F026091300270913102452BDD
:100A1000462B472B69F30097A105B10541F02AE168
:100A20002A95F1F700C00197A109B109E1CF8091A2
:100A30002D0291E090932C028823B9F0C091B80068
:100A4000D091BA008091BC008A7B8093BC0060E0AA
:100A500082E10E94E00160E083E10E94E0010E94E7
:100A6000E603D093BA00C093B800DF91CF91089508
:100A70001F920F920FB60F9211242F933F934F9313
:100A80005F936F937F938F939F93AF93BF93EF93F6
:100A9000FF938CE393E00E945101FF91EF91BF918E
:100AA000AF919F918F917F916F915F914F913F9106
:100AB0002F910F900FBE0F901F9018951F920F92BD
:100AC0000FB60F9211242F938F939F93EF93FF9361
:100AD000E0914C03F0914D038081E0915203F0913D
:100AE000530382FD1BC09081809155038F5F8F73EC
:100AF00020915603821741F0E0915503F0E0E45C49
:100B0000FC4F958F80935503FF91EF919F918F91AB
:100B10002F910F900FBE0F901F9018958081F4CFEA
:100B20001F920F920FB60F9211242F933F938F9322
:100B30009F93AF93BF9380919D0290919E02A0914D
:100B40009F02B091A00230919C0226E0230F2D3726
:100B500058F50296A11DB11D20939C0280939D0221
:100B600090939E02A0939F02B093A0028091A10255
:100B70009091A202A091A302B091A4020196A11D9E
:100B8000B11D8093A1029093A202A093A302B093FF
:100B9000A402BF91AF919F918F913F912F910F90A0
:100BA0000FBE0F901F90189529E8230F0396A11DE3
:100BB000B11DD2CF1F920F920FB60F9211242F9317
:100BC0003F934F935F936F937F938F939F93AF93D5
:100BD000BF93EF93FF938091C6029091C7028093D9
:100BE000B2008091C2029091C302A091C402B09160
:100BF000C5020196A11DB11D8093C2029093C3024C
:100C0000A093C402B093C5028091C2029091C30226
:100C1000A091C402B091C5024091CA025091CB028A
:100C20006091CC027091CD0284179507A607B70793
:100C300010F18091C10281111EC081E08093C10238
:100C40008091C2029091C302A091C402B091C502EA
:100C5000841B950BA60BB70B8093C2029093C30223
:100C6000A093C402B093C502E091C802F091C902FA
:100C700009951092C102FF91EF91BF91AF919F91A1
:100C80008F917F916F915F914F913F912F910F9035
:100C90000FBE0F901F9018951F920F920FB60F92D4
:100CA00011242F933F934F935F936F937F938F9371
:100CB0009F93AF93BF93EF93FF938091B900887F89
:100CC000803609F44AC0F0F5883209F4A7C018F557
:100CD000803109F49BC0B8F4882309F4F9C0883046
:100CE00009F494C0FF91EF91BF91AF919F918F91C3
:100CF0007F916F915F914F913F912F910F900FBE18
:100D00000F901F901895883109F488C0803251F7F0
:100D10008093750214C0803409F49DC040F4803380
:100D2000B9F38833F9F68093750285ECB0C080354D
:100D300009F485C0883509F496C0883499F60E9474
:100D4000E104D0CF883909F48CC038F5883729F010
:100D500050F4883611F0803729F683E080937602CC
:100D60001092740257C0883809F47BC0803919F09A
:100D7000803809F0B7CF80917402803208F071C0DA
:100D8000E091740281E08E0F809374028091BB0029
:100D9000F0E0EC5AFD4F80833DC0803B39F0E0F439
:100DA000803A09F479C0883A09F09CCF84E08093B6
:100DB00076021092530210925202E091A902F09131
:100DC000AA0209958091520281110FC081E080939F
:100DD00052021092320209C0803C09F4A6CF883C2E
:100DE00009F4A3CF883B09F07DCFE091530281E065
:100DF0008E0F80935302F0E0EE5CFD4F8081809374
:100E0000BB00909153028091520229C080919B02B5
:100E10008093BB0085EC8093BC0064CF90919A02D4
:100E200080919902981758F5E0919A0281E08E0F0F
:100E300080939A02F0E0E758FD4F8081E9CFE0917E
:100E40009A0281E08E0F80939A028091BB00F0E0BD
:100E5000E758FD4F808390919A02809199029817EC
:100E6000C8F285E8D8CFE0919A0281E08E0F809396
:100E70009A028091BB00F0E0E758FD4F808380919B
:100E8000780281115CCF81E08093770284EA8093BD
:100E9000BC001092760226CF85EC8093BC001092A5
:100EA000760280917402803230F4E0917402F0E0B6
:100EB000EC5AFD4F10826091740270E0E091A7023D
:100EC000F091A80284E592E00995109274020ACF8D
:100ED0001092750234CF10923F0310923E0388EEB9
:100EE00093E0A0E0B0E08093400390934103A0938F
:100EF0004203B093430320E731E030933D03209356
:100F00003C0325EC30E0309349032093480324EC64
:100F100030E030934B0320934A0320EC30E03093D1
:100F20004D0320934C0321EC30E030934F0320938A
:100F30004E0322EC30E0309351032093500326EC13
:100F400030E03093530320935203109255031092D4
:100F5000560310925703109258031092DC0310921C
:100F6000DB038093DD039093DE03A093DF03B09354
:100F7000E00382E891E09093DA038093D9038EE452
:100F800080930B0485E480930C0410924204109229
:100F900041041092440410924304109246041092AB
:100FA0004504109248041092470480ED97E0909316
:100FB0004A048093490481E090E090934C0480932C
:100FC0004B0490934E0480934D0410925004109261
:100FD0004F04109252041092510410925404109233
:100FE0005304109256041092550410925804109213
:100FF000570410925A041092590410925B041092F4
:101000005C0410925D0410925E0410925F041092D2
:1010100060041092610410926204109263041092B2
:10102000650410926404109267041092660488ECC0
:1010300090E0909369048093680410926B0410927E
:101040006A0410926D0410926C0410926F04109256
:101050006E04109270041092710410927204109237
:101060007304109274041092750410927604109216
:101070007704109278041092790410927A041092F6
:101080007B0410927C0410927D0410927E041092D6
:101090007F041092800410928104109282041092B6
:1010A0008304109284041092850410928604109296
:1010B0008704109288041092890410928A04109276
:1010C0008B0410928C0410928D0410928E04109256
:1010D0008F04109290041092910410929204109236
:1010E0009304109294041092950410929604109216
:1010F0009704109298041092990410929A041092F6
:101100009B0410929C0410929D0410929E041092D5
:101110009F041092A0041092A1041092A2041092B5
:10112000A3041092A4041092A5041092A604109295
:10113000A70481EE9AEFA7ECB2E48093A804909301
:10114000A904A093AA04B093AB048093AC04909339
:10115000AD04A093AE04B093AF041092B00410920B
:10116000B1041092B2041092B3041092B40410921D
:10117000B5041092B6041092B7041092B8041092FD
:10118000B9041092BA041092BB041092BD041092DC
:10119000BC041092BF041092BE04EBEEF3E080E2B8
:1011A000808B819393E0EA3FF907D1F71092060410
:1011B0001092F50310920A041092FA031092400460
:1011C00010923904109238041092310410922004C5
:1011D00010921504109230041092290410922804E1
:1011E000109221041092140410920D0410927305B1
:1011F0001092720510927905109278051092770579
:101200001092760510927505109274051092E703FE
:101210001092E8031092E9031092EA0389ED93E03B
:101220009093E6038093E5030895CF93DF93CDB7C2
:10123000DEB7C156D1090FB6F894DEBF0FBECDBFE1
:10124000789484B5826084BD84B5816084BD85B5A1
:10125000826085BD85B5816085BD80916E008160AD
:1012600080936E0010928100809181008260809353
:101270008100809181008160809381008091800055
:101280008160809380008091B10084608093B10080
:101290008091B00081608093B00080917A0084607A
:1012A00080937A0080917A00826080937A008091A6
:1012B0007A008E7F80937A0080917A008068809394
:1012C0007A001092C10002E511E0F80180E090E0A0
:1012D000DC01812C912C54018A94312C212C4191D8
:1012E000442391F050E070E060E084229522A62231
:1012F000B722842B952BA62BB72B2FEF221A320A5D
:1013000038E02316310459F788259925AA25BB25ED
:101310008093E7039093E803A093E903B093EA0373
:101320001092E9021092F902109209036101B5E0EE
:10133000CC0CDD1CBA95E1F7C6010E94D91F3C0117
:101340009093C0028093BF02009709F4A5C0A60144
:1013500070E060E00E94FE20A1014E5A5E4F1A012B
:10136000AFE74A2E2016310609F472C084EE92E0EF
:101370002BEBE22E22E0F22E67EB72E043EB52E021
:101380002DE133E0E9E1AE2EE3E0BE2EFFEA8F2E41
:10139000F2E09F2EF301D801DC90D082B6E1DB169B
:1013A000E1F1BD1540F1B1E15B2ED51481F1A2E16F
:1013B000DA1679F1BCE0DB1203C0DC01ED93FC939B
:1013C00070960296A2E0EA0EF11C6E5F7F4F4E5FB0
:1013D0005F4F2E5F3F4FB2E0AB0EB11CA2E08A0E12
:1013E000911CB2E0883E9B07B1F6E0E26E0E711CE4
:1013F0000F5F1F4FB7CFAAE35A2ED514A1F0A0E478
:10140000DA1649F0B7E1DB12DBCFD501D7CFD70130
:10141000D5CFDB01D3CFDA01D1CFD901ED93FC9346
:10142000B0E1B687CDCFD401ED93FC936F01BEE060
:10143000CB0ED11CDF0113964C92139755245A946E
:1014400012965C9212971296AC15BD05A1F7B8CF13
:101450001092AE021092AD021092AC021092AB024A
:101460000E94E60386EC90E09093AA028093A90282
:1014700082ED90E09093A8028093A7028CE2809383
:10148000BA008091E703880F8093BD008DE494E05B
:101490009093A6028093A50286E090E090933D0190
:1014A00080933C0188E090E090933F0180933E015F
:1014B0000E940A0386E0EAE4F1E0DE01A75BBF4F89
:1014C00001900D928A95E1F761961FAE1EAE61976D
:1014D000FE01339686E4DF011D928A95E9F790EFCD
:1014E00099832AE02A839C8389E08D839F8381E00E
:1014F00089879A878B879D8730E43E87988B46E063
:10150000498B9B8B52E05C8B2D8B9E8B37E03F8B06
:10151000998F33E03A8F9C8F64E06D8F8E8F9F8F11
:101520007EE078A39AA371E47BA32CA39DA375E02E
:101530007EA398A798E099A78BA76CA72DA78EA745
:101540005FA788AB89AB4AAB8BAB8CAB3DAB8EABAB
:101550008FAB91E298AF89AF8AAF92E19BAF8CAF2E
:101560001092C004E0E4F5E082E795E020EC34E07E
:10157000219331938E179F07D9F781E090E09093E4
:10158000BD048093BC041092BF041092BE048CE38F
:1015900093E09093730580937205E0914C03F09172
:1015A0004D0382E08083E0914803F091490310826B
:1015B000E0914A03F0914B0387E680831092540335
:1015C000E0915003F091510386E08083E0914E0357
:1015D000F0914F03808180618083E0914E03F09110
:1015E0004F03808188608083E0914E03F0914F0328
:1015F000808180688083E0914E03F0914F03808169
:101600008F7D80836AEF70E080E090E00E9451025D
:1016100063E070E0CE01875B9F4F0E94830288ECFD
:1016200090E0909369048093680463E070E088E23E
:1016300091E00E94830288EC80932C0110922D018E
:1016400063E070E088E291E00E9483028E010F5F08
:101650001F4FF80180818823D9F080931E0181817A
:1016600080931F01828180932001809321018093C8
:10167000220180932301809324018093250162E05D
:1016800070E08AE191E00E9483020D5F1F4FE1CF7D
:10169000F2E0FF2EF092120110920C018BE4809385
:1016A0000D0110920E0163E070E080E091E00E9475
:1016B00083028091720590917305DC01ED91FC919C
:1016C0000680F781E02D0995009172051091730550
:1016D000D801ED91FC910680F781E02DC8010995B4
:1016E000D8015296ED91FC91539780818F7E808333
:1016F0005296ED91FC9153978081877F808352961B
:10170000ED91FC91539780818F7780835296ED9174
:10171000FC91539780818F7D80835A968C915A9744
:1017200059968C9361E070E080E090E00E94510255
:10173000E0917205F0917305A089B189FC92A485AE
:10174000B5851C92A685B78583E38C93108EA489FA
:10175000B58986E08C93A289B3898C9180618C9342
:10176000A289B3898C9188608C93A289B3898C916A
:1017700080688C930288F389E02D80818F7D80833F
:10178000ECEEF0E02491E8EDF0E08491882399F00C
:1017900090E0880F991FFC01EF53FF4FA591B49182
:1017A000FC01E954FF4F859194918FB7F894EC9127
:1017B000E22BEC938FBF61E08DE00E94E00160E0DE
:1017C0008DE00E94E00185E494E09093D302809341
:1017D000D2028CE894E09093D1028093D00280E909
:1017E00094E09093CF028093CE0289E190E0A0E054
:1017F000B0E08093CA029093CB02A093CC02B09346
:10180000CD0286E193E09093C9028093C802809153
:1018100070008E7F809370008091B0008C7F8093E9
:10182000B0008091B100877F8093B1008091B600B5
:101830008F7D8093B600809170008D7F80937000C3
:101840008091B10084608093B1008091B1008C7F61
:101850008093B10083E890E09093C7028093C60222
:101860001092C2021092C3021092C4021092C502DA
:101870001092C1028091C6029091C7028093B2007B
:1018800080917000816080937000FE0131961F018D
:101890000E942C020E940A036B017C010E940A0331
:1018A0006C966CAF7DAF8EAF9FAF6C9780917205D9
:1018B00090917305DC01ED91FC910084F185E02DA0
:1018C000099566969FAF8EAF6697892B09F4F4C68B
:1018D0008091720590917305DC01ED91FC91028479
:1018E000F385E02D099566969FAF8EAF6697659656
:1018F0006FAD65978091E0029091E102892B89F4A8
:10190000643209F045C0E1E0F0E0F093E102E093D9
:10191000E0021092DF021092DE021092DD021092BD
:10192000DC020091E0021091E1020130110509F0A2
:1019300085C28091DA029091DB029C0125513C4FD7
:10194000F901EB52FF4F65964FAD65974083669660
:101950004EAD5FAD66975527643209F4E3C308F5D1
:101960006A3009F44CC06D3009F4CEC38091DC02BA
:101970009091DD02892B09F458C28091DE0290918A
:10198000DF02482759275093DF024093DE024DC201
:10199000653B39F602E010E01093E1020093E002AB
:1019A000C0CF6A3209F4B2C36C3201F76091DC0235
:1019B0007091DD02672B51F06091DE027091DF02C1
:1019C000462757275093DF024093DE0240913601AD
:1019D00050913701BA016F5F7F4F70933701609369
:1019E0003601440F551FFA01E05CFA4F8F539B4FAD
:1019F000918380832B523F4FD9011C9216C2809154
:101A0000DF028F938091DE028F9380E991E09F93B4
:101A10008F933F922F920E941421E0917005F091D4
:101A200071050F900F900F900F900F900F9099816C
:101A3000808198135FC39A81818198135BC38091E1
:101A4000760590917705009709F443C060EC74E047
:101A50000E94CC0472E4A72E75E0B72E8091360167
:101A60009091370108171907CCF480917605909171
:101A70007705DC01ED91FC910190F081E02D6CE2A5
:101A80000995F501619171915F01809176059091C1
:101A900077050E94CC040F5F1F4FE0CF8091710546
:101AA0008F93809170058F9305E911E01F930F9339
:101AB0003F922F920E941421B1018091760590915E
:101AC00077050E94CC040F900F900F900F900F900D
:101AD0000F9080915B0490915C04A0915D04B091A3
:101AE0005E040196A11DB11D80935B0490935C047C
:101AF000A0935D04B0935E048091BC049091BD04FA
:101B0000892B09F47EC18091360190913701209193
:101B1000C304273409F017C22091C404273409F004
:101B2000A8C22091C504213409F06BC10B970CF4B5
:101B300068C180916404909165048160909365040C
:101B40008093640400914205109143054BE050E0FE
:101B5000B80185E194E00E940521F8010190002080
:101B6000E9F73197E01BF10B399708F463C0D8010E
:101B70008C91082E000C990BC0974AE0489F900169
:101B8000499F300D112411968C911197082E000C4D
:101B9000990BC097820F931F9093500480934F042A
:101BA00012968C911297082E000C990BC097489FA3
:101BB0009001499F300D112413968C911397082E94
:101BC000000C990BC097820F931F9093520480933F
:101BD000510414968C911497082E000C990BC09701
:101BE000489F9001499F300D112415968C911597AF
:101BF000082E000C990BC097820F931F90935404EA
:101C00008093530417968C911797082E000C990B0C
:101C1000C097489F9001499F300D112418968C91D0
:101C2000082E000C990BC097820F931F90935604B7
:101C300080935504E0914605F0914705808181111C
:101C400001C08EE480930B0400914405109145057A
:101C5000F80101900020E9F73197E01BF10B39976B
:101C600008F43FC04FE050E0B8018BEE93E00E94D3
:101C700005211092FA03C80102960E94D21A2B0184
:101C80003C01F8011282C8010E94D61ABC01990FCA
:101C9000880B990B0E94741C4B015C0120E030E022
:101CA00040E752E4C301B2010E94521E9B01AC0105
:101CB000C501B4010E94E61D6093B0047093B104A5
:101CC0008093B2049093B30420910B04233549F41C
:101CD00090586093B0047093B1048093B2049093D1
:101CE000B304E0914A05F0914B058081811101C058
:101CF00085E480930C040091480510914905F80192
:101D000001900020E9F73197E01BF10B3A9708F4B6
:101D100040C04FE050E0B8018BEF93E00E940521F6
:101D200010920A04C80103960E94D21A2B013C01AA
:101D3000D80113961C92C8010E94D61ABC01990FB3
:101D4000880B990B0E94741C4B015C0120E030E071
:101D500040E752E4C301B2010E94521E9B01AC0154
:101D6000C501B4010E94E61D6093B4047093B504EC
:101D70008093B6049093B70420910C04273549F45E
:101D800090586093B4047093B5048093B604909314
:101D9000B70480914C0590914D05FC0120812223D0
:101DA00009F4CBC00E94D61A90934804809347044C
:101DB00080914E0590914F05DC012C91222309F46E
:101DC000BFC00E94D61A90934604809345040091A8
:101DD000520510915305F8018081882391F047E066
:101DE00050E0B8018DE094E00E940521C8010E94F6
:101DF000D21A60939C0470939D0480939E049093E8
:101E00009F046C960CAD1DAD2EAD3FAD6C9700934D
:101E10008C0410938D0420938E0430938F0420E85B
:101E200030E03093DB022093DA028091DA02909165
:101E3000DB0201969093DB028093DA028091E0024C
:101E40009091E102029709F061C08091DA029091CD
:101E5000DB028C0105511C4FF801EB52FF4F6596D8
:101E6000BFAD6597B0838430910559F466962EAD69
:101E70003FAD669733272A5F3F4F3093350120935C
:101E80003401A0903401B090350195012F5F3F4F90
:101E90002817390791F5AE014E5A5F4FBE016D5AB2
:101EA0007F4F80EC94E00E94A500F501E054FB4FC9
:101EB000908164968FAD649798130AC0F801EB5235
:101EC000FF4F908163968FAD6397981709F42FC1E8
:101ED0008091590490915A04019690935A048093EA
:101EE0005904E0E8F0E0F093DB02E093DA0206E068
:101EF00010E010933501009334018091DA02909143
:101F0000DB0201969093DB028093DA028091DA0281
:101F10009091DB02803891050CF4C8CC1092E1025C
:101F20001092E0021092DB021092DA0281E090E05F
:101F30009093370180933601B9CC90E080E034CFA4
:101F400090E080E040CF223509F05BCF2091C404BF
:101F50002D3409F056CF2091C504233409F051CF18
:101F60000B970CF44ECF80916404909165048260CD
:101F70009093650480936404E0915205F0915305B9
:101F8000DF010D900020E9F71197AE1BBF0B1697EC
:101F900008F441C08081082E000C990BC0974AE0DC
:101FA000489F9001499F300D11248181082E000C1B
:101FB000990BC097820F931F90934E0480934D040A
:101FC0008281082E000C990BC097489F9001499F71
:101FD000300D11248381082E000C990BC097820FBD
:101FE000931F90934C0480934B042481022E000C89
:101FF000330B20533109429FC001439F900D1124A0
:102000002581820F911D27FD9A958056984F9093B8
:102010004A048093490400914E0510914F05D80160
:102020008C91882371F047E050E0B80181E294E0A0
:102030000E940521C8010E94D61A90934204809301
:1020400041040091500510915105F80180818823C9
:1020500009F4D7CE47E050E0B80189E294E00E944D
:102060000521C8010E94D61A90934404809343042A
:10207000C8CE233509F0C5CE2091C504213409F01E
:10208000C0CE41970CF4BDCE80916404909165045C
:1020900084609093650480936404609160057091FE
:1020A000610547E050E081E394E00E9405216091E2
:1020B00062057091630547E050E089E394E00E9477
:1020C000052181E394E00E94D21A6093A8047093E2
:1020D000A9048093AA049093AB0489E394E00E943E
:1020E000D21A6093AC047093AD048093AE049093C5
:1020F000AF0487CE80915704909158040196909335
:102100005804809357048BCE10828FCE10828F5349
:102110009B4F90937105809370051092DD02109291
:10212000DC0283CE1093DD020093DC027ECE809130
:102130005F0490916004A0916104B09162040196E3
:10214000A11DB11D80935F0490936004A09361046E
:10215000B09362040E940A032091C204213041F12D
:10216000263009F432C26C960CAD1DAD2EAD3FADDC
:102170006C970093900410939104209392043093F1
:1021800093048091780590917905009709F4A9CE80
:1021900040913401509135014E5F5F4FDC01ED916C
:1021A000FC910280F381E02D60EC74E0099599CEFA
:1021B0008091C304803190F42091660430916704CB
:1021C00041E050E0082E02C0440F551F0A94E2F788
:1021D000242B352B3093670420936604863009F452
:1021E00029C108F070C0823009F4C3C0843009F0FE
:1021F000BACF6091D0047091D10470936F04609352
:102200006E0490E080E00E94721C2AE037ED43E209
:102210005CE30E94D31C6093AC047093AD04809384
:10222000AE049093AF040091D2041091D3041093A4
:102230006D0400936C04B80190E080E00E94721C71
:102240002AE037ED43E25CE30E94D31C6093A804CC
:102250007093A9048093AA049093AB048091BC046A
:102260009091BD04892B09F07ECF34E6A32EB12CCA
:10227000C801B5010E946A1F9F938F937F936F934C
:102280000BE911E01F930F9381E394E09F938F93E9
:102290000E94142180916E0490916F04B5010E94F8
:1022A0006A1F9F938F937F936F931F930F9389E37D
:1022B00094E09F938F930E9414210FB6F894DEBF91
:1022C0000FBECDBF50CF823109F4C0C0813209F0BA
:1022D0004ACF809166049091670490689093670458
:1022E000809366048091D90482FF3DCF8091D3040E
:1022F00090E0982F88272091D204820F911D90930F
:102300004A04809349048091D40490E090934C0453
:1023100080934B048091D50490E090934E04809379
:102320004D048091D60490E09093500480934F0424
:102330008091D70490E0909352048093510480914F
:10234000D80490E090935404809353046091CE0499
:102350007091CF048091D0049091D10420E836E9A7
:1023600048E950E00E94921F309356042093550490
:10237000FACE6091CA047091CB048091CC04909104
:10238000CD046093740470937504809376049093E5
:1023900077040E94741C20E836E948E15BE40E945F
:1023A000521E6093B4047093B5048093B604909366
:1023B000B7046091CE047091CF048091D0049091C5
:1023C000D1046093700470937104809372049093AD
:1023D00073040E94741C20E836E948E15BE40E9423
:1023E000521E6093B0047093B1048093B204909332
:1023F000B3046091D6047091D7048091D804909171
:10240000D904609378047093790480937A0490934C
:102410007B040E94741C2FE632E143E85AE30E94D9
:10242000D31C60939C0470939D0480939E049093AE
:102430009F0499CE8091D004809363048091F50429
:1024400090E090934604809345048DCE6091CA0439
:102450007091CB048091CC049091CD046093800462
:102460007093810480938204909383044090CE04FF
:102470005090CF046090D0047090D10440928404B6
:102480005092850460928604709287048090D204F2
:102490009090D304A090D404B090D5048092880486
:1024A00090928904A0928A04B0928B049B01AC01A3
:1024B0000E945A1F68966CAF7DAF8EAF9FAF689732
:1024C000A3019201C301B2010E945A1F68964CAC4D
:1024D0005DAC6EAC7FAC6897460E571E681E791EC9
:1024E000A5019401C501B4010E945A1F640D751D18
:1024F000861D971D0E94741C0E94051F6093B804DE
:102500007093B9048093BA049093BB0428E43DE32C
:102510004FE95CE30E94D31C0E94C41E072E000CEE
:10252000880B990B0E94741C6093A4047093A504FB
:102530008093A6049093A7048091D6049091D70429
:10254000A091D804B091D9048093940490939504F9
:10255000A0939604B09397046091DA047091DB0421
:102560008091DC049091DD04609398047093990449
:1025700080939A0490939B040E94721C28E43DE38C
:102580004FE95CE30E94D31C0E94C41E7093420476
:10259000609341046091DE047091DF048091E00457
:1025A0009091E10460937C0470937D0480937E0499
:1025B00090937F0420EA36E841E050E00E94921FA9
:1025C0003093440420934304CECD8091C3048830DB
:1025D00009F44EC0843209F0C6CD8091C80487301A
:1025E00008F063C087E08093C80481E090E0209108
:1025F000C904223009F45CC082E08093C90485E0FC
:102600008093C6041092C70462961FAE62972A9602
:102610001FAE2A970091C40410E0AE01475B5F4FE4
:10262000BE016F5A7F4F80EC94E00E94A500C80164
:102630000496FC01EE53FB4F62962FAD6297208308
:102640008D539B4F2A962FAD2A97DC012C938091B6
:10265000720590917305A801485F5F4FDC01ED9111
:10266000FC910280F381E02D60EC74E009957BCD54
:102670004091C6045091C70450936B0440936A0480
:1026800080916804909169048417950708F06BCDD8
:1026900020932A0180932C0190932D0170E060E03B
:1026A00088E291E00E9483025ECD90E080E09FCFBF
:1026B000892B09F0A4CF57CD8091D8029091D902EF
:1026C00088309105C8F54091D4025091D5026091AF
:1026D000D6027091D7026C960CAD1DAD2EAD3FADFC
:1026E0006C97041B150B260B370BB901A801493851
:1026F00053416105710500F19C012F5F3F4F3093FD
:10270000D9022093D802837099278130910509F46A
:10271000FAC008F4F1C0029709F4FAC06C962CAD27
:102720003DAD4EAD5FAD6C972093D4023093D50292
:102730004093D6025093D702809138039091390389
:10274000A0913A03B0913B0397018601081B190B36
:102750002A0B3B0BD901C80185369105A105B105AE
:1027600040F0C0923803D0923903E0923A03F092DD
:102770003B038091340390913503A0913603B091CF
:102780003703A7019601281B390B4A0B5B0BDA01B3
:10279000C9018E349140A105B10508F476C00091BD
:1027A00045041091460408301105ACF180914104B4
:1027B0009091420420913203309133032817390756
:1027C00024F490933303809332038090B804909064
:1027D000B904A090BA04B090BB0460912E0370912C
:1027E0002F0380913003909131030E94721C9B0152
:1027F000AC01C501B4010E94FA1E181664F4C501AB
:10280000B4010E94CB1E60932E0370932F0380931C
:1028100030039093310380909C0490909D04A0908D
:102820009E04B0909F0480914201909143018133B6
:10283000984F0CF472C020912A0330912B034091E1
:102840002C0350912D03C501B4010E94E51D4B01DD
:102850005C01209126033091270340912803509179
:1028600029030E94FA1E181644F4809226039092BF
:102870002703A0922803B0922903C0923403D09278
:102880003503E0923603F092370380913A0190913C
:102890003B01892B21F010923B0110923A01E0910B
:1028A000E802EE0FFF0BEC51FD4F00811181198200
:1028B0000115110509F48DC0E091E202F091E302E7
:1028C0008091380190913901E817F90709F481C026
:1028D000F0933901E0933801E830F10508F063C066
:1028E000EC58FB4E0C94B11FC0141A1A291A4F1A37
:1028F000641A6B1A721A7A1A70E060E086E691E048
:102900000E9483020BCF70E060E080E691E0F8CF98
:1029100070E060E08AE591E0F3CF51E6C5165AEE2B
:10292000D506E104F10408F4A8CF083011050CF431
:10293000A4CF20E030E040E050E46091AC0470911E
:10294000AD048091AE049091AF040E946D1C87FF8E
:1029500094CF28E439EF41E550E4C501B4010E9469
:10296000D31C0E94C41E7093430160934201809265
:102970002A0390922B03A0922C03B0922D037DCFBB
:1029800084EA91E09F938F9380EB91E09F938F93E4
:102990003F922F920E9414211D860F900F900F904E
:1029A0000F900F900F904DE050E0B101C8010396D9
:1029B0000E9405218091E202D80112968C93129711
:1029C0001F961C9281E09091E802911180E0809323
:1029D000E80280916404909165049C012370332780
:1029E0002330310509F0C4C18C7F90936504809336
:1029F000640480912103880F990BFC01E35EFC4F76
:102A0000008111810115110509F4B2C1875E9C4F47
:102A1000FC01E080F180E114F10409F4A9C18DE02A
:102A200094E00E94D61AD92E9F938F938BEE91E05B
:102A30009F938F9321E030E02C0F3D1F3F932F9306
:102A40000E941421DD1CDD24DD1C6F96DFAE6F9724
:102A5000A0961FAEA0978A818295807F9B8190531C
:102A6000892BD70119968C938C818295807F9D81CB
:102A70009053892BF80183838E818295807F828396
:102A80008BEE93E0DC010D900020E9F7CD018C5E28
:102A900093400F900F900F900F900F900F90099709
:102AA00020F18091EB038295807F9091EC0390530D
:102AB000892B87838091ED038295807F9091EE032F
:102AC0009053892B86838091F0038295807F90912B
:102AD000F1039053892B85838091F2038295807F47
:102AE0009091F3039053892B84838BEF93E0FC0147
:102AF00001900020E9F7CF018C5F9340D12CC12CCD
:102B00000A97A0F18091FC038295807F9091FD034C
:102B10009053892BD8011B968C931B978091FE03B1
:102B20008295807F9091FF039053892B1A968C9306
:102B30001A97809101048295807F909102049053AE
:102B4000892B19968C931997809103048295807F25
:102B5000909104049053892B18968C93C090FB039A
:102B60000C2C000CDD08B0E3CB1AD10889E294E00C
:102B70000E94D61A9F938F9380EF91E09F938F933B
:102B8000E1E0F0E0EC0FFD1FFF93EF930E941421B2
:102B90008A818295807F9B819053892BD8011D96D5
:102BA0008C931D978C818295807F1C968C9381E3FA
:102BB00094E00E94D21A2B013C010F900F900F90CD
:102BC0000F900F900F9026E636E64EE151E40E94FA
:102BD000FA1E18160CF097C489E9F801868781E27D
:102BE00094E00E94D61A9F938F9380EF91E09F9379
:102BF0008F93E1E0F0E0EC0FFD1FFF93EF930E9455
:102C000014218A818295807F9B819053892BD701E3
:102C100013968C9313978C818295807F12968C9358
:102C2000129785E194E0FC0101900020E9F7CF01C3
:102C3000865194400F900F900F900F900F900F902F
:102C4000099758F1809115048295807F9091160420
:102C50009053892B17968C93179780911704829520
:102C6000807F909118049053892B16968C93169719
:102C7000809119048295807F90911A049053892B3A
:102C800015968C93159780911C048295807F909166
:102C90001D049053892B14968C9380914504909138
:102CA00046046AE070E00E947E1F6295607F862B7A
:102CB000D70118968C9380E1F801878781E0909185
:102CC0000B049E3409F080E08061D8011F968C933C
:102CD00090910C04953409F033C492E0892B94E070
:102CE000CD2809F490E0892BF801878720914704CB
:102CF0003091480498E0232B09F490E0892BA096AA
:102D00002EAD3FADA09790E8232B09F490E0892BDE
:102D1000D8011F968C931F97209147043091480447
:102D2000232B71F0409145045091460420913E01BF
:102D300030913F01421753071CF080621F968C931D
:102D40008091470490914804892B91F0209145048B
:102D50003091460480913C0190913D01281739073C
:102D60003CF081E090912103911180E08093210358
:102D700080916604909167049C0124743078243417
:102D8000304809F03BC38B7B9F7790936704809317
:102D900066048091220390912303A0912403B091B3
:102DA00025030196A11DB11D809322039093230357
:102DB000A0932403B093250380912103880F990BDE
:102DC000FC01E35EFC4F608071806114710409F4C2
:102DD00015C3875E9C4FFC01408051804114510413
:102DE00009F40CC38091700490917104A091720455
:102DF000B0917304B7FFA6C303E56D960FAF6D974F
:102E00008091740490917504A0917604B091770438
:102E1000B7FF9DC307E56E960FAF6E97609178047C
:102E20007091790480917A0490917B0428EE33E0CC
:102E300040E050E00E94921F69017A01FF924F9397
:102E4000DF922F938BEE91E09F938F9321E030E000
:102E50002C0F3D1F3F932F930E941421FF0CCC0891
:102E6000DC2C7601A296DFAECEAEA2978A81829547
:102E7000807F9B819053892BD20119968C938C81F2
:102E80008295807F9D819053892BF30183838E816E
:102E90008295807F828310921803609170047091F4
:102EA0007104809172049091730497FF07C090950C
:102EB0008095709561957F4F8F4F9F4F0FB6F89417
:102EC000DEBF0FBECDBF20E836E948E950E00E94E2
:102ED000921FF901142F052F9B01AC01ACE3B0E068
:102EE0000E94941D4B015C010F931F93FF93EF937E
:102EF0008FE991E09F938F9389E093E09F938F9365
:102F00000E9414210FB6F894DEBF0FBECDBF6A96A3
:102F10001FAE1EAE6A97C12C01EED02E05EFE02E3B
:102F200005E0F02E02E010E0C501B401A701960112
:102F30000E94921F4B015C01C8010196F801E75FF6
:102F4000FC4F205D20836A96AEADBFAD6A971197A6
:102F500009F002C30E5F1F4F875F9C4F2EE2FC01FA
:102F600020836A964EAD5FAD6A974F5F5F4F6A965A
:102F70005FAF4EAF6A97C701B6012AE030E040E08C
:102F800050E00E94921F69017A01093011053CF45A
:102F90006A964EAD5FAD6A974930510529F6F80142
:102FA000E75FFC4F8CE28083F801E65FFC4F6D9693
:102FB0005FAD6D975083F801E55FFC4F1082809103
:102FC00009038295807F90910A039053892BD30146
:102FD00017968C93179780910B038295807F909121
:102FE0000C039053892B16968C93169780910E03A1
:102FF0008295807F90910F039053892B15968C9327
:103000001597809110038295807F909111039053C2
:10301000892B14968C93109208036091740470911C
:103020007504809176049091770497FF07C090957E
:103030008095709561957F4F8F4F9F4F20E836E9BF
:1030400048E950E00E94921FF901142F052F9B01BF
:10305000AC01ACE3B0E00E94941D4B015C010F9306
:103060001F93FF93EF9385EF91E09F938F9389EFE9
:1030700092E09F938F930E9414210FB6F894DEBFC5
:103080000FBECDBFC12C11EED12E15EFE12E15E0F4
:10309000F12E03E010E0C501B401A70196010E94E2
:1030A000921F4B015C01C8010196F801E750FD4FEA
:1030B000205D208366964EAD5FAD66974130510529
:1030C00009F04CC20E5F1F4F87509D4FEEE2DC01AE
:1030D000EC9366962EAD3FAD66972F5F3F4F669699
:1030E0003FAF2EAF6697C701B6012AE030E040E05F
:1030F00050E00E94921F69017A010A3011053CF4E8
:1031000066962EAD3FAD66972930310521F6F80160
:10311000E750FD4F8CE28083F801E650FD4F6E963C
:103120003FAD6E973083F801E550FD4F10828091DE
:10313000FA028295807F9091FB029053892BD301F4
:103140001B968C931B978091FC028295807F9091B7
:10315000FD029053892B1A968C931A978091FF0247
:103160008295807F909100039053892B19968C93C0
:103170001997809101038295807F9091020390536B
:10318000892B18968C931091F90260917C047091B0
:103190007D0480917E0490917F0420E137E240E03D
:1031A00050E00E94921F3F932F9380EF91E09F93F6
:1031B0008F93E1E0F0E0EC0FFD1FFF93EF930E948F
:1031C000142189818295807F9A819053892BD30124
:1031D0001D968C931D978B818295807F9C81905347
:1031E000892B1C968C9320916C0430916D040F9068
:1031F0000F900F900F900F900F902F3DB3E03B0773
:1032000008F4AEC189E9F301868760919804709152
:10321000990480919A0490919B040E94721C28E466
:103220003DE34FE95CE30E94D31C20E030E040E244
:1032300051E40E94D31C20E030E040E05FE30E94B4
:10324000E61D0E94C41E7F936F9380EF91E09F93D1
:103250008F93E1E0F0E0EC0FFD1FFF93EF930E94EE
:10326000142189818295807F9A819053892BD20184
:1032700013968C9313978B818295807F9C819053BA
:10328000892B12968C9380914F04909150042AE0E0
:1032900030E0B9010E947E1F94E0660F771F9A9577
:1032A000E1F7682BF20167838091510490915204F9
:1032B000B9010E947E1F44E0660F771F4A95E1F72F
:1032C000682B66838091530490915404B9010E9445
:1032D0007E1F54E0660F771F5A95E1F7682B6583D0
:1032E0008091550490915604B9010E947E1FA4E07C
:1032F000660F771FAA95E1F7682B648380914504D8
:1033000090914604B9010E947E1F6295607F862BD2
:10331000808790916304925081E00F900F900F90FE
:103320000F900F900F906D960FAD6D970E3409F0C2
:1033300080E080616E960FAD6E9722E0053409F053
:1033400020E0822B24E0103309F420E0822B28E0D7
:10335000933008F020E0822BA2960EAD1FADA2970D
:103360000F3F1F4F09F01AC120E8822BD3011F968F
:103370008C93209163042350223008F011C14091B6
:1033800045045091460420913E0130913F0142177F
:1033900053070CF405C120E2822BF3018787933099
:1033A00090F4209145043091460480913C01909125
:1033B0003D01281739073CF081E0909121039111DC
:1033C00080E080932103809125038F9380912403D3
:1033D0008F93809123038F93809122038F938AEFA1
:1033E00091E09F938F9389EE92E09F938F930E9439
:1033F00014210FB6F894DEBF0FBECDBF0E942C0281
:103400008091400190914101892B21F0109241015E
:103410001092400180E090E0892B11F40C94480C4C
:103420000E943D01882311F40C94480C0E94000076
:103430000C94480C809146048F93809145048F939F
:1034400088EB91E09F938F933F922F920E941421DB
:10345000A4CA809162048F93809161048F938091BC
:1034600060048F9380915F048F9380915E048F93AB
:1034700080915D048F9380915C048F9380915B04B5
:103480008F9380EC91E09F938F933F922F920E94B5
:1034900014210FB6F894DEBF0FBECDBF84CA809151
:1034A0005A048F93809159048F93809158048F937D
:1034B000809157048F938BEC91E09F938F933F9271
:1034C0002F920E941421E5CF81E394E09F938F9384
:1034D00084ED91E0B7CF89E394E09F938F938DEDD6
:1034E00091E0B0CF4DE050E069EE72E0C1010E9482
:1034F000052159CA0E940A039F938F937F936F936C
:1035000086EE91E0DACFC301B2010E94CB1EB62E47
:1035100020E030E040E251E4C301B2010E94D31C3C
:103520000E94CB1EF6EFBF9E600D112420E1B29EDB
:10353000C0011124B62EB82AD8011E96BC924FCBDA
:1035400090E0CCCB1EE46D961FAF6D9759CC15E47F
:103550006E961FAF6E9762CC8C0103CD8C01B9CDF6
:10356000C90164E670E00E946A1FFB0144E6469FC1
:10357000C001479F900D1124A901481B590BCA0196
:103580006AE070E00E946A1FB4E0EE0FFF1FBA9578
:10359000E1F7E62BD3011E96EC9337CE20E0E5CE83
:1035A00020E0FACE662777270C94FC1AFC018827C6
:1035B0009927E89421912032E9F3293010F02E3038
:1035C000C8F32B3241F02D3239F4689404C00E94C4
:1035D000F41A820F911D219120532A30C0F31EF45A
:1035E000909581959F4F08957AE0979F902D879FA2
:1035F000802D910D11240895B0E0A0E0E2E0FBE100
:103600000C94A51D5C017B016115710519F0DB01AE
:103610008D939C9385010F5F1F4FF501D0818D2FF6
:1036200090E00E944C1C6C01892BB9F5DD32B9F594
:103630000F5F1F4FD5011196DC91C1E05801F1E0F9
:10364000AF1AB10843E050E060E770E0C5010E94A6
:10365000551C892B69F5680182E0C80ED11C45E034
:1036600050E06BE670E0C6010E94551C892B21F4E6
:10367000680197E0C90ED11CE114F10419F0D701DB
:10368000CD92DC9260E070E080E89FEFC111FFC056
:1036900060E070E080E89FE7FAC05801BBCFDB3202
:1036A00029F485010E5F1F4FF501D181C0E0C6CF1F
:1036B00043E050E068E670E0C5010E94551C892B8C
:1036C000E9F0F80110E000E020E030E0A9015F013E
:1036D000B0ED8B2E8D0E89E08815C8F19C2E689474
:1036E00091F88C2F8870C2FF16C0811102C00F5F45
:1036F0001F4F3196D501DC91C92DE9CFE114F104BA
:1037000029F00E5F1F4FF7011183008360E070E026
:1037100080EC9FE7BCC0882311F001501109A5E09F
:10372000B0E00E94941D9B01AC01220F331F441F87
:10373000551F280D311D411D511D283999E93907A3
:10374000490799E15907A8F2C6609C2ED2CFAEEF87
:103750008A1206C0C3FD3CC09C2E689493F8C9CF62
:10376000DF7DD534A9F580818D3239F4C061DF0168
:103770001296818162E070E006C0DF018B32C1F3F6
:10378000119661E070E080535D01A61AB70A8A3095
:10379000F8F4E0E8CE16ECE0DE065CF4B601660F65
:1037A000771F660F771FC60ED71ECC0CDD1CC80E08
:1037B000D11C5D01FFEFAF1ABF0A8C9180538A3094
:1037C000A8F1C4FF03C0D194C194D1080C0D1D1DF4
:1037D000C1FF09C0E114F10431F081E0A81AB10879
:1037E000D701AD92BC92CA01B9010E94721CC3708C
:1037F000C33009F490584B015C0120E030E0A9018E
:103800000E946D1C882309F440C0CFE9D0E017FF67
:1038100005C0119501951109C7E8D0E06E01B8E126
:10382000CB1AD10880E2E82EF12C0FC0D501B1CF20
:10383000FE0125913591459154910E191F09C5013D
:10384000B4010E94D31C4B015C01D501C4010E15CB
:103850001F0574F72497F594E794CC16DD06A9F7B5
:103860008A2F880F8B2F881F8F3F49F020E030E090
:10387000A901C501B4010E946D1C811106C082E23C
:1038800090E090937B0580937A05C501B401CDB794
:10389000DEB7ECE00C94C11D91110C94401D8032F8
:1038A00019F089508550C8F70895FB01DC0141509B
:1038B000504088F08D9181341CF08B350CF4805E83
:1038C000659161341CF06B350CF4605E861B6111F0
:1038D00071F3990B0895881BFCCF0E94AF1C08F46C
:1038E00081E00895E89409C097FB3EF49095809597
:1038F000709561957F4F8F4F9F4F9923A9F0F92FB6
:1039000096E9BB279395F695879577956795B79533
:10391000F111F8CFFAF4BB0F11F460FF1BC06F5F19
:103920007F4F8F4F9F4F16C0882311F096E911C02B
:10393000772321F09EE8872F762F05C0662371F04C
:1039400096E8862F70E060E02AF09A95660F771F60
:10395000881FDAF7880F9695879597F90895990F3C
:103960000008550FAA0BE0E8FEEF16161706E80749
:10397000F907C0F012161306E407F50798F0621B6A
:10398000730B840B950B39F40A2661F0232B242B3F
:10399000252B21F408950A2609F4A140A6958FEF5E
:1039A000811D811D08950E94E61C0C945A1D0E94E1
:1039B0004C1D38F00E94531D20F0952311F00C94FB
:1039C000431D0C94491D11240C948E1D0E946B1DE7
:1039D00070F3959FC1F3950F50E0551F629FF00162
:1039E000729FBB27F00DB11D639FAA27F00DB11D7B
:1039F000AA1F649F6627B00DA11D661F829F222704
:103A0000B00DA11D621F739FB00DA11D621F839F8A
:103A1000A00D611D221F749F3327A00D611D231F60
:103A2000849F600D211D822F762F6A2F11249F57AE
:103A300050409AF0F1F088234AF0EE0FFF1FBB1FB1
:103A4000661F771F881F91505040A9F79E3F510570
:103A500080F00C94431D0C948E1D5F3FE4F3983E60
:103A6000D4F3869577956795B795F795E7959F5F1A
:103A7000C1F7FE2B880F911D9695879597F90895AC
:103A800099278827089597F99F6780E870E060E09C
:103A900008959FEF80EC089500240A9416161706E7
:103AA00018060906089500240A941216130614062F
:103AB00005060895092E0394000C11F4882352F092
:103AC000BB0F40F4BF2B11F460FF04C06F5F7F4F4A
:103AD0008F4F9F4F089557FD9058440F551F59F031
:103AE0005F3F71F04795880F97FB991F61F09F3FEB
:103AF00079F087950895121613061406551FF2CF14
:103B00004695F1DF08C0161617061806991FF1CF63
:103B100086957105610508940895E894BB2766278A
:103B20007727CB0197F908950E94D61DA59F900D88
:103B3000B49F900DA49F800D911D112408952F9284
:103B40003F924F925F926F927F928F929F92AF922D
:103B5000BF92CF92DF92EF92FF920F931F93CF937A
:103B6000DF93CDB7DEB7CA1BDB0B0FB6F894DEBF11
:103B70000FBECDBF09942A88398848885F846E8437
:103B80007D848C849B84AA84B984C884DF80EE8081
:103B9000FD800C811B81AA81B981CE0FD11D0FB68A
:103BA000F894DEBF0FBECDBFED010895A29FB00116
:103BB000B39FC001A39F700D811D1124911DB29F61
:103BC000700D811D1124911D08955058BB27AA27FF
:103BD0000E94FD1D0C945A1D0E944C1D38F00E943D
:103BE000531D20F039F49F3F19F426F40C94491D1D
:103BF0000EF4E095E7FB0C94431DE92F0E946B1D2A
:103C000058F3BA17620773078407950720F079F411
:103C1000A6F50C948D1D0EF4E0950B2EBA2FA02D59
:103C20000B01B90190010C01CA01A0011124FF2769
:103C3000591B99F0593F50F4503E68F11A16F04064
:103C4000A22F232F342F4427585FF3CF4695379563
:103C50002795A795F0405395C9F77EF41F16BA0B28
:103C6000620B730B840BBAF09150A1F0FF0FBB1FD6
:103C7000661F771F881FC2F70EC0BA0F621F731F1F
:103C8000841F48F4879577956795B795F7959E3F7C
:103C900008F0B0CF9395880F08F09927EE0F97950D
:103CA000879508950E94661E0C945A1D0E94531D0C
:103CB00058F00E944C1D40F029F45F3F29F00C940D
:103CC000431D51110C948E1D0C94491D0E946B1DB7
:103CD00068F39923B1F3552391F3951B550BBB273B
:103CE000AA2762177307840738F09F5F5F4F220F80
:103CF000331F441FAA1FA9F335D00E2E3AF0E0E877
:103D000032D091505040E695001CCAF72BD0FE2FC0
:103D100029D0660F771F881FBB1F26173707480754
:103D2000AB07B0E809F0BB0B802DBF01FF2793580C
:103D30005F4F3AF09E3F510578F00C94431D0C9470
:103D40008E1D5F3FE4F3983ED4F386957795679593
:103D5000B795F7959F5FC9F7880F911D9695879541
:103D600097F90895E1E0660F771F881FBB1F621760
:103D700073078407BA0720F0621B730B840BBA0B1E
:103D8000EE1F88F7E09508950E94CB1E6894B1114C
:103D90000C948E1D08950E94731D88F09F5798F013
:103DA000B92F9927B751B0F0E1F0660F771F881F40
:103DB000991F1AF0BA95C9F714C0B13091F00E945A
:103DC0008D1DB1E008950C948D1D672F782F8827E5
:103DD000B85F39F0B93FCCF3869577956795B39581
:103DE000D9F73EF490958095709561957F4F8F4FF0
:103DF0009F4F08950E94AF1C08F48FEF089519F4A7
:103E000016F40C94491D0C94451F0E94731DB8F3C1
:103E10009923C9F3B6F39F57550B87FF0E94531F91
:103E20000024A0E640EA900180585695979528F422
:103E3000805C660F771F881F20F02617370748071A
:103E400030F4621B730B840B202931294A2BA69571
:103E500017940794202531254A2758F7660F771FB6
:103E6000881F20F026173707480730F4620B730BC2
:103E7000840B200D311D411DA09581F7B901842FC0
:103E80009158880F9695879508959F3F31F09150EE
:103E900020F4879577956795B795880F911D96952E
:103EA000879597F9089591505040660F771F881FA6
:103EB000D2F70895DB018F939F930E94941DBF91C9
:103EC000AF91A29F800D911DA39F900DB29F900D69
:103ED00011240895AA1BBB1B51E107C0AA1FBB1FD9
:103EE000A617B70710F0A61BB70B881F991F5A9586
:103EF000A9F780959095BC01CD01089597FB072EF9
:103F000016F4009407D077FD09D00E946A1F07FCC1
:103F100005D03EF4909581959F4F089570956195D9
:103F20007F4F0895052E97FB1EF400940E94A91F51
:103F300057FD07D00E94B71F07FC03D04EF40C9426
:103F4000A91F50954095309521953F4F4F4F5F4F9A
:103F5000089590958095709561957F4F8F4F9F4FF5
:103F60000895EE0FFF1F0590F491E02D0994A1E252
:103F70001A2EAA1BBB1BFD010DC0AA1FBB1FEE1FE3
:103F8000FF1FA217B307E407F50720F0A21BB30B2E
:103F9000E40BF50B661F771F881F991F1A9469F7AA
:103FA00060957095809590959B01AC01BD01CF0106
:103FB00008950F931F93CF93DF938230910510F4F0
:103FC00082E090E0E0917E05F0917F0530E020E016
:103FD000B0E0A0E0309799F42115310509F44AC00A
:103FE000281B390B24303105D8F58A819B81611556
:103FF000710589F1FB0193838283FE0111C0408129
:1040000051810281138148175907E0F04817590779
:1040100099F4109761F012960C93129713961C93D3
:104020003296CF01DF91CF911F910F9108950093A8
:104030007E0510937F05F4CF2115310551F042170D
:10404000530738F0A901DB019A01BD01DF01F80136
:10405000C1CFEF01F9CF90937F0580937E05CDCF3F
:10406000FE01E20FF31F81939193225031093983AE
:104070002883D7CF20917C0530917D05232B41F4F7
:10408000209146013091470130937D0520937C05B6
:1040900020914401309145012115310541F42DB79E
:1040A0003EB74091480150914901241B350BE091E6
:1040B0007C05F0917D05E217F307A0F42E1B3F0B62
:1040C0002817390778F0AC014E5F5F4F241735078A
:1040D00048F04E0F5F1F50937D0540937C05819300
:1040E00091939FCFF0E0E0E09CCFCF93DF930097D8
:1040F000E9F0FC01329713821282A0917E05B09103
:104100007F05ED0130E020E01097A1F4208131819E
:10411000820F931F20917C0530917D052817390768
:1041200009F061C0F0937D05E0937C05DF91CF91AC
:104130000895EA01CE17DF07E8F54A815B819E0109
:1041400041155105B1F7E901FB83EA834991599182
:10415000C40FD51FEC17FD0761F480819181029691
:10416000840F951FE90199838883828193819B83C2
:104170008A83F0E0E0E012968D919C91139700976E
:10418000B9F52D913C911197CD010296820F931FA5
:1041900020917C0530917D052817390739F6309735
:1041A00051F510927F0510927E05B0937D05A09386
:1041B0007C05BCCFD383C28340815181840F951F7E
:1041C000C817D90761F44E5F5F4F88819981480F06
:1041D000591F518340838A819B8193838283211558
:1041E000310509F0B0CFF0937F05E0937E059ECFB7
:1041F000FD01DC01C0CF13821282D7CFDC0101C0E8
:104200006D9341505040E0F70895FB01DC014150AF
:10421000504048F001900D920020C9F701C01D9256
:1042200041505040E0F70895AEE0B0E0EAE1F1E23D
:104230000C94AD1D0D891E8986E08C831A83098339
:104240008FEF9FE79E838D83AE01475E5F4F6F893F
:10425000788DCE0101960E9437212F813885020F7B
:10426000131FF80110822E96E4E00C94C91DABE0F8
:10427000B0E0EDE3F1E20C949F1D7C013B018A016B
:10428000FC0117821682838181FFC8C1CE0101968D
:104290005C01F7019381F30193FD859193FF819177
:1042A0003F01882309F453C1853239F493FD859188
:1042B00093FF81913F01853229F4B70190E00E947C
:1042C0002723E7CF912C212C312CFFE1F31538F077
:1042D0008B3211F190F4803209F1833229F137FCED
:1042E0003CC020ED280F2A3050F536FE20C08AE071
:1042F000989E200D1124922E06C08D3291F08033AD
:1043000071F7689430F8F30193FD859193FF8191E3
:104310003F018111DACF21C0689431F8689432F8F6
:10432000F2CF689433F8EFCF689434F8ECCFEAE03A
:104330002E9E200D1124222E689435F8E4CF8E3263
:1043400029F436FC04C1689436F8DDCF8C3619F4B4
:10435000689437F8D8CF8836B1F2982F9F7D95545E
:104360009330E0F08336A1F18337C1F1833509F052
:1043700063C02801F2E04F0E511CF801C080D180CB
:10438000692D70E036FC02C06FEF7FEFC6010E941E
:1043900011234C01689437F882010AC00C5F1F4F4B
:1043A000FFE3F98388248394912C6501E89437F81E
:1043B00033FE2DC0522C8114910471F5552009F45F
:1043C00068CFB70180E290E00E9427235A94F6CF8D
:1043D000F801808189830E5F1F4FE4CF2801F2E04E
:1043E0004F0E511CF801C080D180692D70E036FC61
:1043F00002C06FEF7FEFC6010E941C234C018201B7
:10440000D5CFB70180E290E00E9427232A94281498
:10441000190409F0B0F7CECFF60137FC859137FECD
:1044200081916F01B70190E00E94272351105A94A7
:10443000F1E08F1A9108BFCF843619F0893609F060
:1044400077C0F80137FE6BC06081718182819381F2
:104450000C5F1F4FF32DFF763F2E97FF09C09095FD
:104460008095709561957F4F8F4F9F4F689437F877
:104470002AE030E0A5010E945723C82ECA188C2CD0
:10448000432C36FE0CC0E89440F8C91440F434FEC6
:1044900005C032FC03C0F32DFE7E4F2E892C44FE56
:1044A00095C0FE01EC0DF11D8081803309F087C0BD
:1044B000242D297E422E842D8870582E43FC95C0D1
:1044C00040FE8FC09C2C821418F42C0C922C98184F
:1044D00044FE91C0B70180E390E00E94272342FE92
:1044E00009C088E790E041FE02C088E590E0B7018E
:1044F0000E942723C91408F48AC0CA94D12C9FEFC4
:10450000C91AD90ACA0CDB1CF60182916F01B701E6
:1045100090E00E942723AC14BD04B1F74FCF608117
:104520007181072E000C880B990B0E5F1F4F92CFE5
:10453000D32CE894D4F82AE030E0853739F1232DE4
:10454000297FD22E8F3601F148F48835A9F0F70182
:10455000868197812B96E2E10C94BB1D803749F050
:104560008837A9F7D4FE02C06894D2F820E130E081
:104570000DC06894D4F8F6CF34FE03C0822F866055
:10458000D82E20E132E002C028E030E0F801D7FE6A
:104590000FC060817181828193810C5F1F4FA501E3
:1045A0000E945723C82ECA183D2CE89437F867CFCD
:1045B0006081718190E080E00E5F1F4FF0CF42FC80
:1045C00002C0839478CF8394839475CF842D8678AA
:1045D00009F471CFF6CFB70180E290E00E94272363
:1045E00083948214C0F3512C73CF522C5818821428
:1045F00008F46ECFF8CF842D867809F47BCF8BE258
:1046000041FE80E247FC8DE2B70190E071CFB70137
:1046100080E390E00E9427239A946CCF8FEF9FEF66
:1046200099CFFC010590615070400110D8F780953A
:1046300090958E0F9F1F0895FC016150704001906E
:104640000110D8F7809590958E0F9F1F08950F93B6
:104650001F93CF93DF93182F092FEB018B8181FDDF
:1046600009C01FEF0FEF812F902FDF91CF911F9186
:104670000F91089582FF14C02E813F818C819D810E
:10468000281739073CF4E881F981CF010196998315
:10469000888310838E819F8101969F838E83E3CFD1
:1046A000E885F985812F0995892BA1F3DACFFA01E5
:1046B000AA27283051F1203181F1E8946F936E7F61
:1046C0006E5F7F4F8F4F9F4FAF4FB1E03ED0B4E052
:1046D0003CD0670F781F891F9A1FA11D680F791F93
:1046E0008A1F911DA11D6A0F711D811D911DA11DA4
:1046F00020D009F468943F912AE0269F11243019B4
:10470000305D3193DEF6CF010895462F4770405D4E
:104710004193B3E00FD0C9F7F6CF462F4F70405DFD
:104720004A3318F0495D31FD4052419302D0A9F758
:10473000EACFB4E0A6959795879577956795BA9552
:10474000C9F700976105710508959B01AC010A2E18
:1047500006945795479537952795BA95C9F7620FEF
:0E476000731F841F951FA01D0895F894FFCFAE
:10476E000600140001000000D0080000004B0000FD
:10477E000300030000000000000006010800F00224
:10478E00000000000001000006080600C80001003D
:10479E000100000006000100FFFF010006000800F6
:1047AE00010030F8000080058000060001000100C5
:1047BE000000161700000000000006240000000094
:1047CE00063E000000000608000000000000000089
:1047DE007301D3000001C00131010F01230100005C
:1047EE00000039042E044A040404270414040504AA
:1047FE0025303258002A25730D0A002532642E25E5
:10480E00303264004F637420323120323032310046
:10481E004750533320257300256420736174730051
:10482E0025356C6420252D356C64002535642025D6
:10483E002D35640048444F50202535730056444FA3
:10484E0050202535730025366C6400253036640003
:0E485E002530346400253033640025640000EA
:00000001FF
