:100000000C9499000C94C1000C94C1000C94C10094
:100010000C94C1000C94C1000C94C1000C94C1005C
:100020000C94C1000C945E040C94C1000C94C100AB
:100030000C94C1000C94C1000C94C1000C94C1003C
:100040000C9414040C94C1000C94E2030C94BC03B3
:100050000C94C1000C94C1000C94C1000C94C1001C
:100060000C94D0040C94C10007634236B79BD8A708
:100070001A39685618AEBAAB558C1D3CB7CC5763CD
:10008000BD6DEDFD753EF6177231BF000000803F7B
:1000900008000000BE922449123EABAAAA2ABECD97
:1000A000CCCC4C3E00000080BEABAAAAAA3E000009
:1000B0000000BF000000803F000000000008417801
:1000C000D3BB4387D1133D190E3CC3BD4282AD2B38
:1000D0003E68EC8276BED98FE1A93E4C80EFFFBE30
:1000E00001C4FF7F3F000000000000000000250069
:1000F00028002B0004040404040404040202020285
:1001000002020303030303030102040810204080DA
:100110000102040810200102040810200000000859
:1001200000020100000304070000000000000000BE
:10013000CA0611241FBECFEFD8E0DEBFCDBF11E04D
:10014000A0E0B1E0E4E7F4E202C005900D92AC3625
:10015000B107D9F723E0ACE6B1E001C01D92AB389E
:10016000B207E1F710E0C9E9D0E004C02197FE0131
:100170000E942312C839D107C9F70E9449070C947D
:1001800038120C9400000895E0912302F0912402AB
:10019000309729F01092200210921F0209940895BE
:1001A0000895AF92BF92CF92DF92EF92FF920F939A
:1001B0001F93CF93DF936C017B018B01040F151FFD
:1001C000EB015E01AE18BF08C017D10759F0699165
:1001D000D601ED91FC910190F081E02DC6010995C9
:1001E000892B79F7C501DF91CF911F910F91FF9076
:1001F000EF90DF90CF90BF90AF900895FC01538DAA
:10020000448D252F30E0842F90E0821B930B5417F0
:1002100010F0CF96089501970895FC01918D828D7D
:10022000981761F0A28DAE0FBF2FB11D5D968C9116
:10023000928D9F5F9F73928F90E008958FEF9FEF55
:100240000895FC01918D828D981731F0828DE80F11
:10025000F11D858D90E008958FEF9FEF0895FC01CB
:10026000918D228D892F90E0805C9F4F821B910998
:100270008F739927089580EA92E00E942F0121E070
:10028000892B09F420E0822F089580E090E0892BEB
:1002900029F00E943B0181110C9400000895FC019B
:1002A000A48DA80FB92FB11DA35ABF4F2C91848DD7
:1002B00090E001968F739927848FA689B7892C9334
:1002C000A089B1898C91837080648C93938D848D87
:1002D000981306C00288F389E02D80818F7D80838A
:1002E0000895EF92FF920F931F93CF93DF93EC014A
:1002F00081E0888F9B8D8C8D98131AC0E889F989CD
:10030000808185FF15C09FB7F894EE89FF896083CF
:10031000E889F98980818370806480839FBF81E050
:1003200090E0DF91CF911F910F91FF90EF90089592
:10033000F62E0B8D10E00F5F1F4F0F731127E02E6D
:100340008C8D8E110CC00FB607FCFACFE889F989A5
:10035000808185FFF5CFCE010E944F01F1CFEB8D5B
:10036000EC0FFD2FF11DE35AFF4FF0829FB7F89479
:100370000B8FEA89FB8980818062CFCFCF93DF9397
:10038000EC01888D8823B9F0AA89BB89E889F989AD
:100390008C9185FD03C0808186FD0DC00FB607FCE2
:1003A000F7CF8C9185FFF2CF808185FFEDCFCE0115
:1003B0000E944F01E9CFDF91CF91089590E0FC01B9
:1003C000E45EFE4F2491FC01E85FFE4F3491FC0196
:1003D000EC50FF4FE491EE23C9F0222339F0233093
:1003E00001F1A8F4213019F1223029F1F0E0EE0FEB
:1003F000FF1FE651FF4FA591B4918FB7F894EC9190
:10040000611126C030953E233C938FBF089527305D
:10041000A9F02830C9F0243049F7809180008F7D01
:1004200003C0809180008F7780938000DFCF84B5F8
:100430008F7784BDDBCF84B58F7DFBCF8091B000FB
:100440008F778093B000D2CF8091B0008F7DF9CFAD
:100450003E2BDACF3FB7F8948091170290911802A3
:10046000A0911902B0911A0226B5A89B05C02F3F92
:1004700019F00196A11DB11D3FBFBA2FA92F982FCA
:100480008827BC01CD01620F711D811D911D43E0C4
:10049000660F771F881F991F4A95D1F708958F928D
:1004A0009F92AF92BF92CF92DF92EF92FF924B0159
:1004B0005C010E942A026B017C010E942A026C19D5
:1004C0007D098E099F09683E734081059105A8F357
:1004D00021E0821A9108A108B10888EEC80E83E0D5
:1004E000D81EE11CF11C81149104A104B10429F768
:1004F000FF90EF90DF90CF90BF90AF909F908F9044
:1005000008952091CC01260F3327331F2132310566
:10051000ECF42091F001FC0190E080E0243069F0DF
:1005200082E00895A091CC012191AC0144555E4F29
:10053000A40FB52FB11D2C930196861798F38091C7
:10054000CC01680F6093CC0180E0089581E00895AC
:100550001092F00181E08093F2011092F10161E0CC
:1005600082E10E94DE0161E083E10E94DE01E9EBAD
:10057000F0E080818E7F808380818D7F808380E228
:100580008093B80085E48093BC0008950895E091BD
:10059000220280912102E81730F4F0E0EA57FE4F82
:1005A000808190E008958FEF9FEF0895909122024F
:1005B000809121022FEF3FEF981748F4E92FF0E0E8
:1005C000EA57FE4F208130E09F5F90932202C901DD
:1005D00008958091210290912202891B990B089520
:1005E000CF93DF93CB01EA01642F0E948102CE01F9
:1005F000DF91CF910895CF93DF931F92CDB7DEB7F0
:10060000698361E0CE0101960E94810281E090E061
:100610000F90DF91CF91089590E080E00895809150
:10062000BB0090E095958795429741F52091960201
:100630003091970281E090E0232B11F090E080E070
:10064000880F991FFC01EE56FD4F608171818091EA
:100650007A0190917B01A0917C01B0917D0101967E
:10066000A11DB11D80937A0190937B01A0937C0121
:10067000B0937D0161157105A9F4089580918201FF
:1006800090918301A0918401B09185010196A11DF3
:10069000B11D8093820190938301A0938401B09354
:1006A0008501089540E150E08DE393E00C94F00261
:1006B000FC0101900020E9F73197AF01481B590B6D
:1006C000BC0180EA92E00C94D100CF93DF9385EDDA
:1006D0008093BC008091A8019091A901A091AA01EA
:1006E000B091AB010796A11DB11D23E0B695A7956A
:1006F000979587952A95D1F72091BC0024FD03C0DA
:100700001092F00136C04091A8015091A90160916A
:10071000AA017091AB01452B462B472B69F300973B
:10072000A105B10541F02AE12A95F1F700C0019732
:10073000A109B109E1CF8091A70191E09093A601B1
:100740008823B9F0C091B800D091BA008091BC0064
:100750008A7B8093BC0060E082E10E94DE0160E061
:1007600083E10E94DE010E94A802D093BA00C093E8
:10077000B800DF91CF9108951F920F920FB60F929C
:1007800011242F933F934F935F936F937F938F9396
:100790009F93AF93BF93EF93FF9380EA92E00E9401
:1007A0004F01FF91EF91BF91AF919F918F917F91F9
:1007B0006F915F914F913F912F910F900FBE0F90CE
:1007C0001F9018951F920F920FB60F9211242F931E
:1007D0008F939F93EF93FF93E091B002F091B1025A
:1007E0008081E091B602F091B70282FD1BC090813A
:1007F0008091B9028F5F8F732091BA02821741F006
:10080000E091B902F0E0E056FD4F958F8093B90278
:10081000FF91EF919F918F912F910F900FBE0F90AD
:100820001F9018958081F4CF1F920F920FB60F92F0
:1008300011242F933F938F939F93AF93BF938091F6
:10084000720290917302A0917402B091750230917E
:10085000160226E0230F2D3758F50296A11DB11D73
:10086000209316028093720290937302A0937402F5
:10087000B09375028091170290911802A09119020D
:10088000B0911A020196A11DB11D80931702909399
:100890001802A0931902B0931A02BF91AF919F91D1
:1008A0008F913F912F910F900FBE0F901F90189531
:1008B00029E8230F0396A11DB11DD2CF1F920F92DD
:1008C0000FB60F9211242F933F934F935F936F9323
:1008D0007F938F939F93AF93BF93EF93FF938091F9
:1008E0002B0290912C028093B20080912E02909165
:1008F0002F02A0913002B09131020196A11DB11DCD
:1009000080932E0290932F02A0933002B093310275
:1009100080912E0290912F02A0913002B09131026D
:1009200040912702509128026091290270912A0279
:1009300084179507A607B70710F180912D02811142
:100940001EC081E080932D0280912E0290912F0293
:10095000A0913002B0913102841B950BA60BB70B0E
:1009600080932E0290932F02A0933002B093310215
:10097000E0912502F0912602099510922D02FF9137
:10098000EF91BF91AF919F918F917F916F915F9107
:100990004F913F912F910F900FBE0F901F90189580
:1009A0001F920F920FB60F9211242F933F934F93E4
:1009B0005F936F937F938F939F93AF93BF93EF93C7
:1009C000FF938091B900887F803609F44AC0F0F522
:1009D000883209F4A7C018F5803109F49BC0B8F437
:1009E000882309F4F9C0883009F494C0FF91EF918D
:1009F000BF91AF919F918F917F916F915F914F9137
:100A00003F912F910F900FBE0F901F901895883136
:100A100009F488C0803251F78093EF0114C080340C
:100A200009F49DC040F48033B9F38833F9F680931C
:100A3000EF0185ECB0C0803509F485C0883509F434
:100A400096C0883499F60E946503D0CF883909F49E
:100A50008CC038F5883729F050F4883611F080378B
:100A600029F683E08093F0011092EE0157C0883898
:100A700009F47BC0803919F0803809F0B7CF809134
:100A8000EE01803208F071C0E091EE0181E08E0F3E
:100A90008093EE018091BB00F0E0E253FE4F808333
:100AA0003DC0803B39F0E0F4803A09F479C0883ADF
:100AB00009F09CCF84E08093F0011092CD01109258
:100AC000CC01E0911D02F0911E0209958091CC01AC
:100AD00081110FC081E08093CC011092AC0109C05C
:100AE000803C09F4A6CF883C09F4A3CF883B09F0E9
:100AF0007DCFE091CD0181E08E0F8093CD01F0E0BC
:100B0000E455FE4F80818093BB009091CD01809190
:100B1000CC0129C0809115028093BB0085EC8093A5
:100B2000BC0064CF9091140280911302981758F57D
:100B3000E091140281E08E0F80931402F0E0ED50FA
:100B4000FE4F8081E9CFE091140281E08E0F809307
:100B500014028091BB00F0E0ED50FE4F8083909135
:100B60001402809113029817C8F285E8D8CFE0915B
:100B7000140281E08E0F809314028091BB00F0E09C
:100B8000ED50FE4F80838091F20181115CCF81E0B6
:100B90008093F10184EA8093BC001092F00126CF8B
:100BA00085EC8093BC001092F0018091EE018032C0
:100BB00030F4E091EE01F0E0E253FE4F10826091DC
:100BC000EE0170E0E0911B02F0911C028EEC91E0CE
:100BD00009951092EE010ACF1092EF0134CF71E027
:100BE000399A38980000000000003998A894000055
:100BF00000000000319BB8D0A2F08894309908948E
:100C0000771F70F7399A803011F0389801C0389A00
:100C10000000000000003998A89400000000319BFB
:100C2000A3D000000000399A872F9927089580E209
:100C300008950894881F01C0880FA9F0399A000010
:100C40000000000018F40000389802C0389A00C074
:100C50003998A894000000000000319B85D012F460
:100C600088270FC0E9CF399A0000000038989927EB
:100C700088273998A8940000319B76D08AF3309B5E
:100C800081E000000000399A089581E00895399AC2
:100C9000389A7ED039987CD0319B66D0389878D0FD
:100CA00008958F938F918F93319B5ED0389A70D037
:100CB000C0DF882311F4EBDFF5CF0F90089508957E
:100CC000399A66D0389864D0399862D0319B4CD02C
:100CD000389A5ED0AEDF089581E00895319B44D00C
:100CE000389A56D0A6DF089581E008951F93CF93D8
:100CF000DF93182FC9E4D3E08FAD0E946E06812FD9
:100D00000E9419068FAD81600E94600681E00E94FA
:100D1000EF05C82F0E9447066C2F70E090E080E03E
:100D2000DF91CF911F910895CF93DF93D82FC62FD6
:100D3000809188030E946E068D2F0E9419068C2FC9
:100D40000E941906DF91CF910C9447063898399884
:100D50004098419888279927309B0895319B0895A2
:100D600081E0089581E00895B0E0A4E1002409D075
:100D700032F40A94E1F71197C9F7289408C0A894AF
:100D800006C0A894319901C02894000008950895E0
:100D900008950895E0EAF2E01382128288EE93E06B
:100DA000A0E0B0E084839583A683B7832EE031E092
:100DB0003183208325EC30E03587248724EC30E034
:100DC0003787268720EC30E0318B208B21EC30E018
:100DD000338B228B22EC30E0358B248B26EC30E0F9
:100DE000378B268B118E128E138E148EEDE3F3E06B
:100DF0001382128284839583A683B78380E291E075
:100E000091838083E9E4F3E01082118213821282DD
:100E100081E0848383E08583868382E087831086F4
:100E200016AE15AE80E79BE69287818783E497E64E
:100E30009487838788E19CEF968785878DE79EE876
:100E4000908B878783E496ED928B818B80ED9BE07E
:100E5000948B838B87E29BE0968B858B88E690E072
:100E6000908F878B89EF9FEF928F818F8CE89CE327
:100E7000948F838F88EF96EC968F858F80E797E12C
:100E800090A3878F10928A03109289038CEE87AF0C
:100E90000895CF93DF93CDB7DEB7A9970FB6F89437
:100EA000DEBF0FBECDBF789484B5826084BD84B5AB
:100EB000816084BD85B5826085BD85B5816085BD55
:100EC00080916E00816080936E001092810080910D
:100ED0008100826080938100809181008160809395
:100EE0008100809180008160809380008091B100BA
:100EF00084608093B1008091B00081608093B000E5
:100F000080917A00846080937A0080917A00826078
:100F100080937A0080917A008E7F80937A0080910E
:100F20007A00806880937A001092C10010922202A9
:100F3000109221021092200210921F020E94A80219
:100F400084EC90E090931E0280931D0280ED90E06F
:100F500090931C0280931B0284E28093BA00E6E027
:100F6000F1E090E08FEF2191222319F08223922B60
:100F7000FACF8927880F8093BD00E2E3F2E080E496
:100F8000DF011D928A95E9F7F0939302E0939202B4
:100F900082E18093320222E432E030939502209382
:100FA0009402809342028FE093E090932402809316
:100FB0002302E091B002F091B10292E09083E091BF
:100FC000AC02F091AD021082E091AE02F091AF025E
:100FD00080E180831092B802E091B402F091B502F2
:100FE00086E08083E091B202F091B302808180615B
:100FF0008083E091B202F091B302808188608083A7
:10100000E091B202F091B302808180688083E09128
:10101000B202F091B30280818F7D808344E650E07C
:1010200060E070E040932702509328026093290209
:1010300070932A0223EC30E030932602209325029D
:10104000809170008E7F809370008091B0008C7FC3
:101050008093B0008091B100877F8093B100809130
:10106000B6008F7D8093B600809170008D7F809355
:1010700070008091B10084608093B1008091B100D4
:101080008C7F8093B10023E830E030932C022093D2
:101090002B0210922E0210922F0210923002109208
:1010A000310210922D0220912B0230912C022093BC
:1010B000B2008091700081608093700081E0809325
:1010C0004D0323E020934E0320934F03909350034E
:1010D000809351030E94A60666EB80EE0E94940660
:1010E0006AE070E080E090E00E944F0280ED0E9494
:1010F00076066093490360914D03B0E26B9FB001A7
:10110000112480914E03E4E08E9FC0011124682BCE
:1011100080914F03682B60934B0384EF0E949406E9
:1011200060915103F0E26F9FB00111248091500350
:1011300024E0829FC0011124682B60934C0385EF4B
:101140000E94940602E513E038E8398389810E9401
:1011500076066B0189818F5F0E947606762F66275F
:101160006C297D29D8016D937D938D01B981BE5F76
:10117000B983B23A59F78EE291E00E94580381E3B5
:1011800091E00E94580382E591E00E9458038EE5A9
:1011900091E00E9458038EE291E00E94580364EFB0
:1011A00071E080E090E00E944F0280919C0290915B
:1011B0009D02A0919E02B0919F020196A11DB11DBA
:1011C00080939C0290939D02A0939E02B0939F02F5
:1011D0008FB7F8942091720230917302409174029B
:1011E000509175022A873B874C875D878FBF80911E
:1011F000980290919902A0919A02B0919B02281BAB
:10120000390B4A0B5B0BDA01C90185369105A10543
:10121000B10508F4FCC1E0919602F0919702EE0F3F
:10122000FF1FEE56FD4F4081518158874F8383EF5A
:101230000E94760660934A0385EF0E9476066093CB
:101240004C0387EF0E9476066C8F7D8F8E8F9F8F69
:1012500088EF0E94760668A379A38AA39BA389EFEF
:101260000E9476066CA37DA38EA39FA38AEF0E94A3
:1012700076066B017C018BEF0E9476060CE0CC0CAD
:10128000DD1CEE1CFF1C0A95D1F724E0660F771FCA
:10129000881F991F2A95D1F7C62AD72AE82AF92A42
:1012A0008CEF0E94760634E0969587957795679542
:1012B0003A95D1F7C62AD72AE82AF92A809152030B
:1012C00090915303B0E0A0E04601570144E0B5948B
:1012D000A794979487944A95D1F7881A990AAA0AED
:1012E000BB0A53E0F594E794D794C7945A95D1F785
:1012F000880F991FAA1FBB1FA7019601281B390B36
:101300004A0B5B0BA0915403B09155030E949810B7
:101310006B017C017BE0F594E794D794C7947A95B0
:10132000D1F7A5019401C501B4010E947D109B0174
:10133000AC01ECE05595479537952795EA95D1F79F
:10134000A0915603B09157030E949810FEE0959526
:10135000879577956795FA95D1F7C60ED71EE81E43
:10136000F91E46015701BB0C8808982C54019601C0
:10137000A701682D782D882D982D345F41405109A3
:10138000610971098109910929A738A749835A83FD
:101390006B837C838D839E8359016A017B018C0161
:1013A0000E94A01029873D8B4E8B5F8B688F798FB1
:1013B0008A8F9B8F30915B0320915A03932F990F53
:1013C000990B492F592F692F792F892F0E94A0102F
:1013D0000CE00E94CF1119012A013B014C01309110
:1013E0005D0320915C03932F990F990BA984BD880D
:1013F000CE88DF88E88CF98C0A8D1B8D492F592FF8
:10140000692F792F892F0E94A01008E00E94E8110F
:1014100051016201730184010E94051270588F4FBF
:101420009F4F20905803309059035101C12CD12C6B
:10143000E12CF12C00E010E00E94A01001E20E94DB
:10144000E8112E873F87488B598B6A8B7B8B8C8B5F
:10145000692EA0E00E94171209F0ECC010928E02D3
:1014600010928F02109290021092910210928A02B2
:1014700010928B0210928C0210928D0220E030E5C7
:101480004DE754E460918A0270918B0280918C0246
:1014900090918D020E94010D2FEC39ED42E45EE344
:1014A0000E94BB0E9B01AC0180919C0290919D0219
:1014B000A0919E02B0919F020B97A105B10508F47F
:1014C0009AC060E070E080E89FE30E94940C2DE9F0
:1014D00035EF4DE058E40E944E0E2FEB3EE04CE914
:1014E0005EE30E944E0E6B017C0128E439EF41E57A
:1014F00050E40E944E0E0E94730D00910201109163
:1015000003012091040130910501013348EF1407D4
:101510004FEF240734070CF0E6C16093020170938B
:1015200003018093040190930501C0928602D0923A
:101530008702E0928802F092890200918202109163
:101540008302209184023091850260917E02709125
:101550007F028091800290918102C0907A02D090A7
:101560007B02E0907C02F0907D02C016D106E2067C
:10157000F30684F400937A0210937B0220937C029A
:1015800030937D02609376027093770280937802A5
:101590009093790220E030E040E251E40E944E0E48
:1015A0000E94730DAF81B88512967C9312971396A3
:1015B0006C9320E030E040E251E46091760270915B
:1015C000770280917802909179020E944E0E0E94DB
:1015D000730DEF81F88574836583209196023091B5
:1015E000970281E090E0232B11F090E080E090934F
:1015F0009702809396022A853B854C855D852093D2
:1016000098023093990240939A0250939B0262E3AE
:1016100070E080E090E00E944F0240E050E0452BF7
:1016200009F4C3CD0E943B01882309F4BECD0E947A
:101630000000BBCD3091630320916203932F990F7B
:10164000990BA984BD88CE88DF88E88CF98C0A8D37
:101650001B8D492F592F692F792F892F0E94A01098
:1016600019012A016987772E4C013091610320917D
:101670006003932F990F990BA9A4B8A4C980DA80AD
:10168000EB80FC800D811E81492F592F692F792F06
:10169000892F0E94A01001E10E94CF115101620127
:1016A000E984F72C84010E94051259016A017B012B
:1016B000782E192F88A199A1AAA1BBA124E0880F97
:1016C000991FAA1FBB1F2A95D1F74CA15DA16EA13E
:1016D0007FA134E076956795579547953A95D1F770
:1016E000842B952BA62BB72B4C8D5D8D6E8D7F8D0E
:1016F000ECE0440F551F661F771FEA95D1F7842B46
:10170000952BA62BB72B20E030E040E150E0281BC2
:10171000390B4A0B5B0B19012A01550C2208322C9C
:101720002101622D722D822D922D0FE10E94CF1189
:1017300049014A835983B62FA72FF82FE92F3091FB
:101740005F0320915E03932F990F990B492F592F17
:10175000692F792F892F03E20E94CF11072D0E9454
:10176000051259016A017B018C0194014A8159815A
:101770006B2F7A2F8F2F9E2F0E940E12A5E3AA2E79
:10178000BCE0BB2EC12CD12CE12CF12C00E010E0F0
:101790000E94A010AE84BF84C888D988EA88FB88DC
:1017A0000C89162D0E94FA102987232E49835A830B
:1017B0006B837C838D839E830DE00E94E811322E23
:1017C000432E542E652E762E872E982E9E8730918E
:1017D000690320916803932F990F990BA32CB42CC4
:1017E000C52CD62CE72CF82C092D1E85492F592FF6
:1017F000692F792F892F0E94A0100E94A01009E163
:101800000E94E811A984B22CC980DA80EB80FC80A8
:101810000D811E810E940512322E432E542E652EFC
:10182000762E872E982E9E8730916703209166032F
:10183000932F990F990B492F592F692F792F892FA2
:101840000E94A01003E10E94E81159016A017B0186
:101850008C01232D342D452D562D672D782D892D66
:101860009E850E94051208E00E94E81159016A0154
:101870007B01E82F192F3091650320916403932F8A
:10188000990F990B492F592F692F792F892F04E030
:101890000E94CF110E2F0E94051269017A018B015F
:1018A0008A8399830E94A90D20E030E048EC56E439
:1018B0000E94010D60938A0270938B0280938C02C8
:1018C00090938D029601A701B8018A81998108E061
:1018D0000E94E81120938E0230938F024093900271
:1018E00050939102CBCD601B710B820B930B6093D5
:1018F00082027093830280938402909385022091E8
:101900008602309187024091880250918902C70176
:10191000B6010E94940C60937E0270937F028093C4
:1019200080029093810209CE5058BB27AA270E94BB
:10193000AC0C0C94140E0E94060E38F00E940D0E92
:1019400020F039F49F3F19F426F40C94F30D0EF4B3
:10195000E095E7FB0C94ED0DE92F0E94250E58F35E
:10196000BA17620773078407950720F079F4A6F584
:101970000C94470E0EF4E0950B2EBA2FA02D0B0100
:10198000B90190010C01CA01A0011124FF27591BC4
:1019900099F0593F50F4503E68F11A16F040A22FCA
:1019A000232F342F4427585FF3CF4695379527953B
:1019B000A795F0405395C9F77EF41F16BA0B620B3A
:1019C000730B840BBAF09150A1F0FF0FBB1F661F81
:1019D000771F881FC2F70EC0BA0F621F731F841FC4
:1019E00048F4879577956795B795F7959E3F08F0EA
:1019F000B0CF9395880F08F09927EE0F97958795AC
:101A000008950E94150D0C94140E0E940D0E58F0AE
:101A10000E94060E40F029F45F3F29F00C94ED0D72
:101A200051110C94480E0C94F30D0E94250E68F38E
:101A30009923B1F3552391F3951B550BBB27AA2787
:101A400062177307840738F09F5F5F4F220F331FC1
:101A5000441FAA1FA9F335D00E2E3AF0E0E832D089
:101A600091505040E695001CCAF72BD0FE2F29D08C
:101A7000660F771F881FBB1F261737074807AB075E
:101A8000B0E809F0BB0B802DBF01FF2793585F4FD3
:101A90003AF09E3F510578F00C94ED0D0C94480EF1
:101AA0005F3FE4F3983ED4F3869577956795B795B5
:101AB000F7959F5FC9F7880F911D9695879597F9C0
:101AC0000895E1E0660F771F881FBB1F6217730739
:101AD0008407BA0720F0621B730B840BBA0BEE1F4E
:101AE00088F7E09508950E947A0D6894B1110C94DE
:101AF000480E08950E942D0E88F09F5798F0B92F38
:101B00009927B751B0F0E1F0660F771F881F991F32
:101B10001AF0BA95C9F714C0B13091F00E94470E7F
:101B2000B1E008950C94470E672F782F8827B85F8F
:101B300039F0B93FCCF3869577956795B395D9F78A
:101B40003EF490958095709561957F4F8F4F9F4F94
:101B5000089597FB16F40E94F60D0C94B00DE894CE
:101B6000F92F96EBFF2381F0121613061406440B8F
:101B70009395F69587957795679557954040FF2300
:101B8000B9F71BC099270895882351F49850D2F7CC
:101B9000872B762F652F542F432F322F20E0B1F360
:101BA000121613061406440B88233AF09A95440F34
:101BB000551F661F771F881FCAF755234AF4440F25
:101BC000551F11F460FF04C06F5F7F4F8F4F9F4F11
:101BD000880F9695879597F9089597F99F6780E8FC
:101BE00070E060E008959FEF80EC089590958095F7
:101BF0007095609550954095309521953F4F4F4F8A
:101C00005F4F6F4F7F4F8F4F9F4F089500240A946F
:101C10001616170618060906089500240A941216C7
:101C20001306140605060895092E0394000C11F4FA
:101C3000882352F0BB0F40F4BF2B11F460FF04C0A7
:101C40006F5F7F4F8F4F9F4F089557FD9058440F00
:101C5000551F59F05F3F71F04795880F97FB991F0B
:101C600061F09F3F79F087950895121613061406C8
:101C7000551FF2CF4695F1DF08C016161706180655
:101C8000991FF1CF86957105610508940895E89430
:101C9000BB2766277727CB0197F908950E94610E2D
:101CA0000C94140E0E94060E38F00E940D0E20F0C7
:101CB000952311F00C94ED0D0C94F30D11240C945C
:101CC000480E0E94250E70F3959FC1F3950F50E0CA
:101CD000551F629FF001729FBB27F00DB11D639FDE
:101CE000AA27F00DB11DAA1F649F6627B00DA11D84
:101CF000661F829F2227B00DA11D621F739FB00D2A
:101D0000A11D621F839FA00D611D221F749F332799
:101D1000A00D611D231F849F600D211D822F762F32
:101D20006A2F11249F5750409AF0F1F088234AF00F
:101D3000EE0FFF1FBB1F661F771F881F915050407B
:101D4000A9F79E3F510580F00C94ED0D0C94480EC0
:101D50005F3FE4F3983ED4F3869577956795B79502
:101D6000F795E7959F5FC1F7FE2B880F911D96951C
:101D7000879597F90895FA01EE0FFF1F3096210518
:101D80003105A1F16115710561F48038BFE39B074E
:101D900049F168949038810561F08038BFEF9B0766
:101DA00041F099234AF5FF3FE1053105210519F17D
:101DB000E8940894E795D901AA2329F4AB2FBE2F04
:101DC000F85FD0F310C0FF5F70F4A695E0F7F73925
:101DD00050F019F0FF3A38F49F779F930DD00F9091
:101DE00007FC9058089546F00C94F30D60E070E005
:101DF00080E89FE308954FE79F775F934F933F936A
:101E00002F930E94B60F2F913F914F915F910E94A7
:101E10004E0E0C94130F29F416F00C94ED0D0C9447
:101E2000470E0C94F30D0E942D0EA8F39638A0F7E0
:101E300007F80F92E8942BE33AEA48EB5FE70E9439
:101E4000640E0F920F920F924DB75EB70F920E94E1
:101E5000FE0FE8E6F0E00E94450F4F915F91EF9191
:101E6000FF91E595EE1FFF1F49F0FE57E0684427FC
:101E7000EE0F441FFA95E1F74195550B0E94780F3C
:101E80000F9007FE0C946C0F0895DF93CF931F9370
:101E90000F93FF92EF92DF927B018C01689406C052
:101EA000DA2EEF010E94610EFE01E894A5912591C2
:101EB000359145915591A6F3EF010E94AC0CFE01BE
:101EC0009701A801DA9469F7DF90EF90FF900F91E6
:101ED0001F91CF91DF9108959B01AC0160E070E00C
:101EE00080E89FE30C94010D0C94ED0D0C946F10A1
:101EF0000E942D0ED8F39923C9F3940F511DA3F31B
:101F00009150504094F059F0882332F0660F771FBB
:101F1000881F91505040C1F79E3F51052CF7880F04
:101F2000911D9695879597F908955F3FACF0983E7F
:101F30009CF0BB27869577956795B79508F4B160B7
:101F40009395C1F7BB0F58F711F460FFE8CF6F5FAF
:101F50007F4F8F4F9F4FE3CF0C94480E16F00C9499
:101F60006F100C94F30D68940C94ED0D0E942D0EDF
:101F7000A8F39923C1F3AEF3DF93CF931F930F938D
:101F8000FF92C92FDD2788232AF02197660F771F3C
:101F9000881FDAF720E030E040E85FEB9FE3883904
:101FA00020F0803E38F021968F770E94950CE0E972
:101FB000F0E004C00E94950CEDEBF0E00E94450FAC
:101FC0008B01BE01EC01FB2E6F5771097595771FD0
:101FD000880B990B0E94341028E132E741E35FE35C
:101FE0000E94610EAF2D9801AE01FF900F911F91DD
:101FF000CF91DF910E94AC0C0C94140EFA01DC011D
:10200000AA0FBB1F9B01AC01BF5728F4222733271F
:102010004427507820C0B75190F4AB2F0024469548
:1020200037952795011CA395D2F3002071F0220F5C
:10203000331F441FB395DAF30ED00C94940C613027
:102040007105A0E88A07B94630F49B01AC01662708
:10205000772788279078309621F020833183428338
:1020600053830895E89409C097FB3EF490958095BA
:10207000709561957F4F8F4F9F4F9923A9F0F92F4E
:1020800096E9BB279395F695879577956795B795CC
:10209000F111F8CFFAF4BB0F11F460FF1BC06F5FB2
:1020A0007F4F8F4F9F4F16C0882311F096E911C0C4
:1020B000772321F09EE8872F762F05C0662371F0E5
:1020C00096E8862F70E060E02AF09A95660F771FF9
:1020D000881FDAF7880F9695879597F908959F3F9F
:1020E00031F0915020F4879577956795B795880FD3
:1020F000911D9695879597F90895DB018F939F938E
:102100000E948D10BF91AF91A29F800D911DA39F42
:10211000900DB29F900D112408950E942912A59F41
:10212000900DB49F900DA49F800D911D11240895D2
:10213000B7FF0C948D100E948D10821B930B089595
:10214000DF93CF931F930F939A9DF02D219FF00D56
:102150008B9DF00D8A9DE02DF10D039FF00D029FE8
:10216000E00DF11D4E9DE00DF11D5E9DF00D4F9DAA
:10217000F00D7F936F93BF92AF925F934F93D50112
:102180000E9429128B01AC01D7010E942912EB0198
:10219000E80FF91FD6010E94EF102F913F91D60151
:1021A0000E942912C60FD71FE81FF91FAF91BF91D8
:1021B0000E94EF102F913F910E942912C60FD71F46
:1021C000E81FF91FD6010E942912E60FF71F980198
:1021D000BE01CF010F911F91CF91DF9108950E9411
:1021E0002912460F571FC81FD91F08F431960895AA
:1021F000689401C0E894F92FF12B12F00C942C1183
:10220000A0E0B0E0E6E0F1E10C949E11092E059407
:1022100022F40E948811112392F4F0E80F26FFEFB8
:10222000E094F09400951095B094C094D094A1944B
:10223000BF0ACF0ADF0AEF0AFF0A0F0B1F0B0E942B
:10224000371107FC0E948811CDB7DEB7ECE00C9483
:10225000BA11689401C0E8948F929F92CF93DF9354
:102260000E943711DF91CF919F908F90089588241D
:102270009924F401E401B0E49F93AA279A158B04F2
:102280009C04ED05FE05CF05D007A10798F4AD2FFE
:10229000DC2FCF2FFE2FE92D982C892E982F872FFA
:1022A000762F652F542F432F322F2227B85031F726
:1022B000BF9127C01B2EBF91BB27220F331F441F86
:1022C000551F661F771F881F991F881C991CEE1FBA
:1022D000FF1FCC1FDD1FAA1FBB1F8A149B04EC0528
:1022E000FD05CE05DF05A007B10748F08A189B0859
:1022F000EC09FD09CE09DF09A00BB10B21601A948E
:10230000E1F62EF49401AF01BE01CD01000C089559
:102310006095709580959095309540955095219554
:102320003F4F4F4F5F4F6F4F7F4F8F4F9F4F0895DE
:102330002F923F924F925F926F927F928F929F92D5
:10234000AF92BF92CF92DF92EF92FF920F931F93C3
:10235000CF93DF93CDB7DEB7CA1BDB0B0FB6F89474
:10236000DEBF0FBECDBF09942A88398848885F84B4
:102370006E847D848C849B84AA84B984C884DF8025
:10238000EE80FD800C811B81AA81B981CE0FD11D09
:102390000FB6F894DEBF0FBECDBFED010895002E3D
:1023A000083090F0982F872F762F652F542F432FCA
:1023B000322F22270850F4CF220F331F441F551FFE
:1023C000661F771F881F991F0A95B2F7002D089581
:1023D00097FD1094002E083098F00850232F342FCA
:1023E000452F562F672F782F892F912DF4CF1594D5
:1023F000979587957795679557954795379527953D
:102400000A95AAF71124002D08952A0D3B1D4C1D95
:102410005D1D6E1D7F1D801F911F08952A193B09A8
:102420004C095D096E097F09800B910B089500240A
:10243000A7FD00942A17300540055005600570057A
:10244000800590050895EE0FFF1F0590F491E02D93
:102450000994A29FB001B39FC001A39F700D811D7D
:102460001124911DB29F700D811D1124911D08959D
:04247000F894FFCF0E
:10247400010030F8FFFF12000000000000007101AD
:10248400D100FE00BE012F010D012101000000005A
:10249400FB02F0020C03C602E902D602C7020D0ACF
:1024A400005370656B7472756D20416C74696D6551
:1024B4007465722C205374657665204A61636B2CB5
:1024C40020004F63742032322032303231002C200D
:0C24D40076657273696F6E20312E320045
:00000001FF
