:100000000C94BC000C94E4000C94E4000C94E40008
:100010000C94E4000C94E4000C94E4000C94E400D0
:100020000C94E4000C9403070C94E4000C94E4009A
:100030000C94E4000C94E4000C94E4000C94E400B0
:100040000C94B9060C94E4000C9487060C94610699
:100050000C94E4000C94E4000C94E4000C94E40090
:100060000C9475070C94E40007634236B79BD8A73D
:100070001A39685618AEBAAB558C1D3CB7CC5763CD
:10008000BD6DEDFD753EF6177231BF000000803F7B
:1000900008000000BE922449123EABAAAA2ABECD97
:1000A000CCCC4C3E00000080BEABAAAAAA3E000009
:1000B0000000BF000000803F000000000008417801
:1000C000D3BB4387D1133D190E3CC3BD4282AD2B38
:1000D0003E68EC8276BED98FE1A93E4C80EFFFBE30
:1000E00001C4FF7F3F00000000004E414E494E49D1
:1000F0005459494E46CDCCCC3D0AD7233C17B7D1F5
:100100003877CC2B329595E6241FB14F0A0000209A
:10011000410000C84200401C4620BCBE4CCA1B0E19
:100120005AAEC59D740000000800020100000304DF
:10013000070000000000000000000000002500286B
:10014000002B0000000000240027002A0004040403
:100150000404040404020202020202030303030370
:10016000030102040810204080010204081020014D
:100170000204081020008A0911241FBECFEFD8E026
:10018000DEBFCDBF26E0A2E2B2E001C01D92A637DD
:10019000B207E1F712E0A0E0B1E0E4E8F6E502C062
:1001A00005900D92A232B107D9F710E0CCEBD0E068
:1001B00004C02197FE010E946226CB3BD107C9F7FC
:1001C0000E94600B0C94402B0C940000CF93DF93A3
:1001D000EA011882FB011082FC01248130E02C5FCF
:1001E0003F4FAC014E5F5F4FB0E0A0E0FA0181915C
:1001F000AF01FB019081890F80839881890F8883EB
:100200001196A217B30794F3DF91CF910895E0916F
:10021000C902F091CA02309729F01092D0021092D0
:10022000CF02099408950895AF92BF92CF92DF92C2
:10023000EF92FF920F931F93CF93DF936C017B019B
:100240008B01040F151FEB015E01AE18BF08C0172C
:10025000D10759F06991D601ED91FC910190F0819F
:10026000E02DC6010995892B79F7C501DF91CF9162
:100270001F910F91FF90EF90DF90CF90BF90AF90C4
:100280000895FC01538D448D252F30E0842F90E09C
:10029000821B930B541710F0CF9608950197089581
:1002A000FC01918D828D981761F0A28DAE0FBF2F4A
:1002B000B11D5D968C91928D9F5F9F73928F90E0A0
:1002C00008958FEF9FEF0895FC01918D828D98170F
:1002D00031F0828DE80FF11D858D90E008958FEF4C
:1002E0009FEF0895FC01918D228D892F90E0805C15
:1002F0009F4F821B91098F73992708958FE194E096
:100300000E94720121E0892B09F420E0822F0895D8
:1003100080E090E0892B29F00E947E0181110C94ED
:1003200000000895FC01A48DA80FB92FB11DA35A98
:10033000BF4F2C91848D90E001968F739927848F05
:10034000A689B7892C93A089B1898C918370806428
:100350008C93938D848D981306C00288F389E02DC9
:1003600080818F7D80830895EF92FF920F931F937A
:10037000CF93DF93EC0181E0888F9B8D8C8D981358
:100380001AC0E889F989808185FF15C09FB7F89464
:10039000EE89FF896083E889F989808183708064B0
:1003A00080839FBF81E090E0DF91CF911F910F91FB
:1003B000FF90EF900895F62E0B8D10E00F5F1F4F0A
:1003C0000F731127E02E8C8D8E110CC00FB607FC19
:1003D000FACFE889F989808185FFF5CFCE010E94A7
:1003E0009201F1CFEB8DEC0FFD2FF11DE35AFF4F82
:1003F000F0829FB7F8940B8FEA89FB898081806235
:10040000CFCFCF93DF93EC01888D8823B9F0AA89F1
:10041000BB89E889F9898C9185FD03C0808186FDBF
:100420000DC00FB607FCF7CF8C9185FFF2CF80810E
:1004300085FFEDCFCE010E949201E9CFDF91CF91F0
:10044000089590E0FC01EB5DFE4F2491FC01EF5913
:10045000FE4F3491FC01E35BFE4FE491EE23C9F0C3
:10046000222339F0233001F1A8F4213019F1223090
:1004700029F1F0E0EE0FFF1FE75CFE4FA591B4916C
:100480008FB7F894EC91611126C030953E233C93D0
:100490008FBF08952730A9F02830C9F0243049F7DC
:1004A000809180008F7D03C0809180008F77809342
:1004B0008000DFCF84B58F7784BDDBCF84B58F7D9F
:1004C000FBCF8091B0008F778093B000D2CF809126
:1004D000B0008F7DF9CF3E2BDACF3FB7F8948091F3
:1004E000C5029091C602A091C702B091C80226B57C
:1004F000A89B05C02F3F19F00196A11DB11D3FBF5C
:10050000BA2FA92F982F8827BC01CD01620F711D2A
:10051000811D911D43E0660F771F881F991F4A9523
:10052000D1F708958F929F92AF92BF92CF92DF92B0
:10053000EF92FF924B015C010E946D026B017C0106
:100540000E946D026C197D098E099F09683E7340F7
:1005500081059105A8F321E0821A9108A108B1084C
:1005600088EEC80E83E0D81EE11CF11C81149104B2
:10057000A104B10429F7FF90EF90DF90CF90BF90D6
:10058000AF909F908F900895AF92BF92CF92DF92DD
:10059000EF92FF920F931F93CF93DF93CDB7DEB708
:1005A000C254D1090FB6F894DEBF0FBECDBF23965B
:1005B0001FAE239722961FAE2297DC0112960C9154
:1005C00010E07801B4E0EB0EF11CEBE3EE16F10461
:1005D0000CF05EC025EB298322E62A83FC01CE01C4
:1005E00001965C01DC01819112968C931297119611
:1005F000CD018A199B098E159F05ACF36B01AE01E5
:100600004F5B5F4FBE016E5B7F4FC5010E94E600EE
:10061000FE01E00FF11F23968FAD23978783FE0124
:10062000E00FF11F22968FAD2297808780915506AB
:1006300090915606085F1F4FDC01ED91FC910280FE
:10064000F381E02DA801B5010995C114D10469F029
:100650000C9DB0010D9D700D1C9D700D1124072E79
:10066000000C880B990B0E949202C701CE5BDF4FF2
:100670000FB6F894DEBF0FBECDBFDF91CF911F91B3
:100680000F91FF90EF90DF90CF90BF90AF900895C3
:10069000F12CE12CEACF2FB7F8946091C102709150
:1006A000C2028091C3029091C4022FBF08958F921D
:1006B0009F92AF92BF92CF92DF92EF92FF920F93F1
:1006C0001F93CF93DF930E944B036B017C018091BA
:1006D0002E0290912F02019690932F0280932E026A
:1006E00080912C0290912D02019690932D0280937F
:1006F0002C02089724F010922D0210922C02E09107
:100700002C02F0912D0280916E0390916F03A091C5
:100710007003B0917103EE0FFF1FEE0FFF1FEE5835
:10072000FC4F4081518162817381841B950BA60B24
:10073000B70B80936E0390936F03A0937003B093F5
:10074000710380913C0190913D01A0913E01B091D7
:100750003F01E0912C02F0912D02EE0FFF1FEE0FF2
:10076000FF1FEE58FC4F80839183A283B383409197
:100770003C0150913D0160913E0170913F0180919B
:100780006E0390916F03A0917003B0917103840F79
:10079000951FA61FB71F80936E0390936F03A093BE
:1007A0007003B093710380916E0390916F03A091D9
:1007B0007003B091710343E0B595A7959795879520
:1007C0004A95D1F78093380190933901A0933A016B
:1007D000B0933B0100912A0210912B020F5F1F4F33
:1007E00010932B0200932A0200FF4DC08091280233
:1007F0009091290201968034910509F475C0909377
:10080000290280932802C0912802D09129025E011A
:1008100020E4A20EB11C6091130470911404809125
:1008200015049091160420E030E040E251E40E946B
:100830000D220E94FE234B01A2E6B1E050E040E011
:100840002D913D91F501E21BF30BEF73FF27EE0FA6
:10085000FF1FE251FD4F20813181F401E21BF30BB8
:100860009F01FA01EE0FFF1FED5FFB4F31832083E5
:100870004F5F5F4F4630510519F7CC0FDD1FC25156
:10088000DD4F79836883043011050CF479C0109230
:100890002B0210922A028091260290912702019643
:1008A0008431910534F59093270280932602E091DC
:1008B0002602F09127023197E031F10508F060C07F
:1008C000EC59FB4F0C9462267E04C004C004C004A3
:1008D000C004B604C004C004C004C004B804B60414
:1008E000CD04B604D604B604109229021092280250
:1008F0008ACF1092270210922602D9CFE09194035A
:10090000F091950380819181A281B381A701960125
:10091000281B390B4A0B5B0BDA01C901803D97405C
:10092000A105B10598F0E0919203F09193038081C5
:100930009181A281B381C81AD90AEA0AFB0A40ED63
:10094000C41647E0D406E104F104D0F461E08DE080
:10095000DF91CF911F910F91FF90EF90DF90CF909B
:10096000BF90AF909F908F900C94210260E0EFCFEA
:10097000E0919603F091970380819181069734F777
:10098000DF91CF911F910F91FF90EF90DF90CF906B
:10099000BF90AF909F908F900895E0919603F09153
:1009A00097038081918108975CF3D0CFE091960303
:1009B000F0919703808191810A9714F3C7CF20911A
:1009C0007602260F3327331F21323105ECF42091B4
:1009D0009A02FC0190E080E0243069F082E0089502
:1009E000A09176022191AC014A5A5D4FA40FB52F18
:1009F000B11D2C930196861798F380917602680FAB
:100A00006093760280E0089581E0089510929A0242
:100A100081E080939C0210929B0261E082E10E943F
:100A2000210261E083E10E942102E9EBF0E0808194
:100A30008E7F808380818D7F808380E28093B80069
:100A400085E48093BC0008950895E091D2028091DE
:100A5000D102E81730F4F0E0E05DFD4F808190E0D6
:100A600008958FEF9FEF08959091D2028091D10267
:100A70002FEF3FEF981748F4E92FF0E0E05DFD4FCE
:100A8000208130E09F5F9093D202C9010895809148
:100A9000D1029091D202891B990B0895CF93DF93D5
:100AA000CB01EA01642F0E94DF04CE01DF91CF91D8
:100AB0000895CF93DF931F92CDB7DEB7698361E0CE
:100AC000CE0101960E94DF0481E090E00F90DF915B
:100AD000CF91089590E080E008958091BB0090E070
:100AE000959587958631910509F46BC0BCF58131E8
:100AF000910509F451C08231910509F448C00C9761
:100B000009F072C081E090E02091B303222311F03C
:100B100090E080E0880F991FFC01E155FC4F608157
:100B200071818091AD039091AE038830910564F599
:100B300001969093AE038093AD036115710509F49E
:100B400053C08091C8049091C904DC01ED91FC91DF
:100B50000280F381E02D40E150E009948A33910551
:100B6000F1F180349105E9F04797F1F581E090E0EB
:100B70002091EC03222311F090E080E0880F991F70
:100B8000FC01EC51FC4F1AC090E080E0D2CF6091A4
:100B9000D9027091DA02D1CF6091DD027091DE024C
:100BA000CCCF81E090E02091AC03222311F090E0C3
:100BB00080E0880F991FFC01E855FC4F608171812E
:100BC000BCCF81E090E02091EC03222311F090E073
:100BD00080E0880F991FFC01E851FC4FEFCF609136
:100BE000D5027091D602A9CF08956115710579F0EB
:100BF000FB0101900020E9F73197AF01461B570B2D
:100C0000DC01ED91FC910280F381E02D099490E0EC
:100C100080E00895CF93DF9385ED8093BC008091B1
:100C2000520290915302A0915402B091550207963E
:100C3000A11DB11D23E0B695A795979587952A9597
:100C4000D1F72091BC0024FD03C010929A0236C057
:100C5000409152025091530260915402709155029A
:100C6000452B462B472B69F30097A105B10541F0B1
:100C70002AE12A95F1F700C00197A109B109E1CF56
:100C80008091510291E0909350028823B9F0C09175
:100C9000B800D091BA008091BC008A7B8093BC00E0
:100CA00060E082E10E94210260E083E10E94210273
:100CB0000E940605D093BA00C093B800DF91CF918F
:100CC00008951F920F920FB60F9211242F933F9306
:100CD0004F935F936F937F938F939F93AF93BF9344
:100CE000EF93FF938FE194E00E949201FF91EF91C7
:100CF000BF91AF919F918F917F916F915F914F9134
:100D00003F912F910F900FBE0F901F9018951F923B
:100D10000F920FB60F9211242F938F939F93EF93FF
:100D2000FF93E0912F04F09130048081E09135042D
:100D3000F091360482FD1BC09081809138048F5F52
:100D40008F7320913904821741F0E0913804F0E06C
:100D5000E15EFB4F958F80933804FF91EF919F9157
:100D60008F912F910F900FBE0F901F90189580813B
:100D7000F4CF1F920F920FB60F9211242F933F932F
:100D80008F939F93AF93BF938091C1029091C202C2
:100D9000A091C302B091C4023091C00226E0230F9B
:100DA0002D3758F50296A11DB11D2093C0028093E6
:100DB000C1029093C202A093C302B093C402809177
:100DC000C5029091C602A091C702B091C8020196D7
:100DD000A11DB11D8093C5029093C602A093C702C6
:100DE000B093C802BF91AF919F918F913F912F9186
:100DF0000F900FBE0F901F90189529E8230F0396B0
:100E0000A11DB11DD2CF1F920F920FB60F921124C8
:100E10002F933F934F935F936F937F938F939F9302
:100E2000AF93BF93EF93FF938091E6029091E70217
:100E30008093B2008091E2029091E302A091E402DB
:100E4000B091E5020196A11DB11D8093E20290933D
:100E5000E302A093E402B093E5028091E202909154
:100E6000E302A091E402B091E5024091EA025091C0
:100E7000EB026091EC027091ED0284179507A607D2
:100E8000B70710F18091E10281111EC081E08093CB
:100E9000E1028091E2029091E302A091E402B0911C
:100EA000E502841B950BA60BB70B8093E20290938F
:100EB000E302A093E402B093E502E091E802F0912E
:100EC000E90209951092E102FF91EF91BF91AF9174
:100ED0009F918F917F916F915F914F913F912F9152
:100EE0000F900FBE0F901F9018951F920F920FB684
:100EF0000F9211242F933F934F935F936F937F93A0
:100F00008F939F93AF93BF93EF93FF938091B9001B
:100F1000887F803609F44AC0F0F5883209F4A7C00A
:100F200018F5803109F49BC0B8F4882309F4F9C09E
:100F3000883009F494C0FF91EF91BF91AF919F91D8
:100F40008F917F916F915F914F913F912F910F9072
:100F50000FBE0F901F901895883109F488C0803219
:100F600051F78093990214C0803409F49DC040F475
:100F70008033B9F38833F9F68093990285ECB0C0D9
:100F8000803509F485C0883509F496C0883499F60F
:100F90000E940A06D0CF883909F48CC038F588370A
:100FA00029F050F4883611F0803729F683E08093D9
:100FB0009A021092980257C0883809F47BC0803991
:100FC00019F0803809F0B7CF80919802803208F08C
:100FD00071C0E091980281E08E0F80939802809119
:100FE000BB00F0E0E858FD4F80833DC0803B39F006
:100FF000E0F4803A09F479C0883A09F09CCF84E0A3
:1010000080939A021092770210927602E091CD02BC
:10101000F091CE0209958091760281110FC081E096
:10102000809376021092560209C0803C09F4A6CF44
:10103000883C09F4A3CF883B09F07DCFE09177028B
:1010400081E08E0F80937702F0E0EA5AFD4F8081B5
:101050008093BB00909177028091760229C08091A5
:10106000BF028093BB0085EC8093BC0064CF90915D
:10107000BE028091BD02981758F5E091BE0281E052
:101080008E0F8093BE02F0E0E356FD4F8081E9CFE2
:10109000E091BE0281E08E0F8093BE028091BB0082
:1010A000F0E0E356FD4F80839091BE028091BD0237
:1010B0009817C8F285E8D8CFE091BE0281E08E0F84
:1010C0008093BE028091BB00F0E0E356FD4F808329
:1010D00080919C0281115CCF81E080939B0284EA25
:1010E0008093BC0010929A0226CF85EC8093BC00BE
:1010F00010929A0280919802803230F4E091980226
:10110000F0E0E858FD4F10826091980270E0E091A5
:10111000CB02F091CC0288E792E0099510929802F8
:101120000ACF1092990234CF71E0399A38980000B2
:1011300000000000EAD03998E8D0A8940000000030
:101140000000319BCED0B2F0889430990894771F7C
:1011500060F7399A803011F0389801C0389A000051
:1011600000000000D2D03998A89400000000319B04
:10117000B8D0CBD000000000399A872F9927089566
:1011800080E208950894881F01C0880FB9F0399A49
:1011900000000000000018F40000389802C0389ADF
:1011A00000C0B3D03998A894000000000000319B23
:1011B00098D012F4882712C0A8D0E7CF399A00003F
:1011C00000003898A2D0992788273998A894000061
:1011D000319B87D07AF3309B81E097D000000000EC
:1011E000399A089581E00895399A389A8ED03998BD
:1011F0008CD0319B76D0389888D008958F938F917A
:101200008F93319B6ED0389A80D0BCDF882311F445
:10121000EBDFF5CF0F9008950895399A76D038987E
:1012200074D0399872D0319B5CD0389A6ED0AADFD6
:10123000089581E00895319B54D0389A66D0A2DF9A
:10124000089581E00895AF92BF92CF92DF92EF921E
:10125000FF920F931F93CF93DF93C82F8B01809141
:101260005D060E941B098C2F0E94C20880915D06BA
:1012700081600E940D09C12CD12C7601D0E0C0E024
:10128000580181E0A81AB108FE2CED2CDC2CCC24EE
:1012900081E0AC16BD0609F080E00E949408C82ADF
:1012A00021960C171D0781F70E94F408C701B601AB
:1012B000DF91CF911F910F91FF90EF90DF90CF9032
:1012C000BF90AF90089538983998409841988827F2
:1012D0009927309B0895319B089581E0089581E01E
:1012E0000895B0E0A4E1002409D032F40A94E1F7B3
:1012F0001197C9F7289408C0A89406C0A8943199FA
:1013000001C0289400000895089598E09A95F1F797
:1013100008950895109222041092210488EE93E01B
:10132000A0E0B0E08093230490932404A0932504CC
:10133000B09326042CE831E03093200420931F045E
:1013400025EC30E030932C0420932B0424EC30E087
:1013500030932E0420932D0420EC30E030933004A1
:1013600020932F0421EC30E0309332042093310499
:1013700022EC30E0309334042093330426EC30E048
:1013800030933604209335041092380410923904B7
:1013900010923A0410923B041092BF041092BE04C3
:1013A0008093C0049093C104A093C204B093C3047B
:1013B0008EE991E09093BD048093BC048EE4809309
:1013C000EE0485E48093EF04109225051092240525
:1013D00010922705109226051092290510922805D3
:1013E00010922B0510922A0580ED97E090932D0521
:1013F00080932C0581E090E090932F0580932E053B
:101400009093310580933005109233051092320588
:10141000109235051092340510923705109236055A
:10142000109239051092380510923B0510923A053A
:1014300010923D0510923C0510923E0510923F051A
:1014400010924005109241051092420510924305FA
:1014500010924405109245051092460510924805D9
:101460001092470510924A051092490588EC90E0C9
:1014700090934C0580934B0510924E0510924D05AC
:101480001092500510924F0510925205109251057E
:10149000109253051092540510925505109256055E
:1014A00010925705109258051092590510925A053E
:1014B00010925B0510925C0510925D0510925E051E
:1014C00010925F05109260051092610510926205FE
:1014D00010926305109264051092650510926605DE
:1014E00010926705109268051092690510926A05BE
:1014F00010926B0510926C0510926D0510926E059E
:1015000010926F051092700510927105109272057D
:10151000109273051092740510927505109276055D
:1015200010927705109278051092790510927A053D
:1015300010927B0510927C0510927D0510927E051D
:1015400010927F05109280051092810510928205FD
:1015500010928305109284051092850510928605DD
:1015600010928705109288051092890510928A05BD
:1015700081EE9AEFA7ECB2E480938B0590938C05F3
:10158000A0938D05B0938E0580938F059093900561
:10159000A0939105B0939205109293051092940533
:1015A0001092950510929605109297051092980545
:1015B0001092990510929A0510929B0510929C0525
:1015C00010929D0510929E051092A00510929F0505
:1015D0001092A2051092A105EEECF4E080E2808B5F
:1015E000819394E0ED3DF907D1F71092E904109250
:1015F000D8041092ED041092DD041092230510928D
:101600001C0510921B0510921405109203051092F0
:10161000F8041092130510920C0510920B0510920D
:1016200004051092F7041092F004109256061092DE
:10163000550610925C0610925B0610925A061092A4
:10164000590610925806109257061092CA0410922A
:10165000CB041092CC041092CD048CEB94E09093C8
:10166000C9048093C80410925F0610925E068FEB47
:101670009CE990936106809360068CE390E99093D7
:1016800063068093620685E19BE5909365068093EF
:10169000640682EF9AE5909367068093660688EB6E
:1016A00092E8909369068093680688E99EE6909395
:1016B0006B0680936A0610926D0610926C06089570
:1016C000CF93DF93CDB7DEB7CD56D1090FB6F894DF
:1016D000DEBF0FBECDBF789484B5826084BD84B573
:1016E000816084BD85B5826085BD85B5816085BD1D
:1016F00080916E00816080936E00109281008091D5
:10170000810082608093810080918100816080935C
:101710008100809180008160809380008091B10081
:1017200084608093B1008091B00081608093B000AC
:1017300080917A00846080937A0080917A00826040
:1017400080937A0080917A008E7F80937A008091D6
:101750007A00806880937A001092C1000EE611E052
:10176000F801812C912C54018FEF90E0A0E0B0E0C3
:10177000312C212C4191442391F050E070E060E045
:1017800084239523A623B723842A952AA62AB72A39
:101790002FEF221A320A38E02316310459F7882530
:1017A0009925AA25BB258093CA049093CB04A093C6
:1017B000CC04B093CD041092B4031092C4031092E1
:1017C000D4036101B5E0CC0CDD1CBA95E1F7C6018C
:1017D0000E9464273C019093E0028093DF0200970F
:1017E00009F4B0C0A60170E060E00E948928A10160
:1017F00042595E4F1A01A3EB4A2EA3E05A2E02155E
:10180000130509F47BC08FEA93E02BEDE22E22E072
:10181000F22E67ED72E048EA53E028EE33E0E4EEA2
:10182000AE2EE3E0BE2EF3ED8F2EF2E09F2EF301FD
:10183000D801DC90D082B6E1DB16D9F1BD1538F1C4
:10184000B1E1CB2EDC1479F1A2E1DA1671F1BCE042
:10185000DB1203C0DC01ED93FC9370960296A2E0CC
:10186000EA0EF11C6E5F7F4F4E5F5F4F2E5F3F4F62
:10187000B2E0AB0EB11CA2E08A0E911C48165906CC
:10188000B9F6B0E26B0E711C0F5F1F4FB8CFAAE321
:10189000CA2EDC14A1F0A0E4DA1649F0B7E1DB129D
:1018A000DCCFD501D8CFD701D6CFDB01D4CFDA0139
:1018B000D2CFD901ED93FC93B0E1B687CECFD4015E
:1018C000ED93FC93DF011E966696BFAFAEAF6697B1
:1018D000DF010F2EFFE7CF2EF02D1396CC9213973A
:1018E000DD24DA941296DC92129712966696CEACAC
:1018F000DFAC6697AC15BD0561F7AFCF1092D20291
:101900001092D1021092D0021092CF020E940605CE
:1019100087E091E09093CE028093CD0283E191E045
:101920009093CC028093CB0280E88093BA008091A0
:10193000CA04880F8093BD008DE695E09093CA029B
:101940008093C90286E090E0909345018093440122
:1019500088E090E090934701809346010E944B03FA
:1019600086E0EAE5F1E0DE01A75BBF4F01900D9252
:101970008A95E1F761961FAE1EAE6197FE01339620
:1019800086E4DF011D928A95E9F790EF99832AE0BA
:101990002A839C8389E08D839F8381E089879A874E
:1019A0008B879D8730E43E87988B46E0498B9B8BE5
:1019B00052E05C8B2D8B9E8B37E03F8B998F33E011
:1019C0003A8F9C8F64E06D8F8E8F9F8F7EE078A31F
:1019D0009AA371E47BA32CA39DA375E07EA398A793
:1019E00098E099A78BA76CA72DA78EA75FA788ABB8
:1019F00089AB4AAB8BAB8CAB3DAB8EAB8FAB91E283
:101A000098AF89AF8AAF92E19BAF8CAF1092A305DC
:101A1000E3E2F6E083EA95E081939193B6E0E53561
:101A2000FB07D1F781E090E09093A00580939F059C
:101A30001092A2051092A1058FE194E090935606B2
:101A400080935506E0912F04F091300482E080836A
:101A5000E0912B04F0912C041082E0912D04F09180
:101A60002E0487E6808310923704E0913304F091CE
:101A7000340486E08083E0913104F0913204808167
:101A800080618083E0913104F0913204808188602C
:101A90008083E0913104F0913204808180688083FA
:101AA000E0913104F091320480818F7D80836AEF70
:101AB00070E080E090E00E94920263E070E0CE016E
:101AC000875B9F4F0E94C40288EC90E090934C0586
:101AD00080934B0563E070E088E291E00E94C402CD
:101AE00088EC80932C0110922D0163E070E088E275
:101AF00091E00E94C4028E010F5F1F4FF8018081A8
:101B00008823D9F080931E01818180931F018281F7
:101B100080932001809321018093220180932301EF
:101B2000809324018093250162E070E08AE191E0D6
:101B30000E94C4020D5F1F4FE1CFA2E0FA2EF09287
:101B4000120110920C018BE480930D0110920E0192
:101B500063E070E080E091E00E94C402809155064D
:101B600090915606DC01ED91FC910680F781E02D05
:101B700009950091550610915606D801ED91FC91FA
:101B80000680F781E02DC8010995D8015296ED91A4
:101B9000FC91539780818F7E80835296ED91FC91CA
:101BA00053978081877F80835296ED91FC91539764
:101BB00080818F7780835296ED91FC91539780813D
:101BC0008F7D80835A968C915A9759968C9361E0B9
:101BD00070E080E090E00E949202E0915506F09162
:101BE0005606A089B189FC92A485B5851C92A6856C
:101BF000B78583E38C93108EA489B58986E08C9396
:101C0000A289B3898C9180618C93A289B3898C91CC
:101C100088608C93A289B3898C9180688C930288A8
:101C2000F389E02D80818F7D8083EEE6F1E02491C1
:101C3000EAE5F1E08491882399F090E0880F991FFC
:101C4000FC01ED5BFE4FA591B491FC01E75CFE4FFA
:101C5000859194918FB7F894EC91E22BEC938FBF20
:101C600061E08DE00E94210260E08DE00E9421028F
:101C700088E295E090939703809396038FE695E032
:101C8000909395038093940383E795E09093930357
:101C900080939203E2E7F3E082E993E040913C0114
:101CA00050913D0160913E0170913F0141935193EC
:101CB000619371938E179F0789F780913C019091F2
:101CC0003D01A0913E01B0913F01E3E0880F991FD3
:101CD000AA1FBB1FEA95D1F780936E0390936F0301
:101CE000A0937003B0937103EEEEF2E080E8DF01A1
:101CF0001D928A95E9F789E190E0A0E0B0E0809339
:101D0000EA029093EB02A093EC02B093ED0287E518
:101D100093E09093E9028093E802809170008E7FB7
:101D2000809370008091B0008C7F8093B000809190
:101D3000B100877F8093B1008091B6008F7D809342
:101D4000B600809170008D7F809370008091B1000B
:101D500084608093B1008091B1008C7F8093B1004A
:101D600083E890E09093E7028093E6021092E2020B
:101D70001092E3021092E4021092E5021092E10246
:101D80008091E6029091E7028093B200809170000A
:101D90008160809370000E946D020E944B036C96DC
:101DA0006CAF7DAF8EAF9FAF6C970E944B036B0102
:101DB0007C018091550690915606DC01ED91FC91D5
:101DC0000084F185E02D09956E969FAF8EAF6E97DA
:101DD000892B09F4E0C68091550690915606DC01E6
:101DE000ED91FC910284F385E02D09951C01682F8B
:101DF0008091A4039091A503892B89F4643209F0A2
:101E00003FC0E1E0F0E0F093A503E093A40310925B
:101E1000A3031092A2031092A1031092A0030091B9
:101E2000A4031091A5030130110509F083C280912C
:101E30009E0390919F039C0122533B4FF901EB526B
:101E4000FF4F2082A1015527643209F4E1C308F550
:101E50006A3009F44CC06D3009F4CCC38091A00302
:101E60009091A103892B09F45CC28091A203909107
:101E7000A303482759275093A3034093A20351C2B9
:101E8000653B69F602E010E01093A5030093A403FC
:101E9000C6CF6A3209F4B0C36C3201F76091A00377
:101EA0007091A103672B51F06091A2037091A3037D
:101EB000462757275093A3034093A203409136012E
:101EC00050913701BA016F5F7F4F70933701609374
:101ED0003601440F551FFA01ED5DF94F8C559A4FAD
:101EE000918380832B523F4FD9011C921AC280915B
:101EF000A3038F938091A2038F932CEA31E03F9349
:101F00002F9381E090E08C0F9D1F9F938F930E94F1
:101F10009F28E0915306F09154060F900F900F9078
:101F20000F900F900F9099818081981359C39A81D7
:101F30008181981355C38091590690915A06009754
:101F400009F449C063EA75E00E94F50575E2A72E21
:101F500076E0B72E80913601909137010817190766
:101F6000CCF48091590690915A06DC01ED91FC91D8
:101F70000190F081E02D6CE20995F501619171917C
:101F80005F018091590690915A060E94F5050F5FF6
:101F90001F4FE0CF809154068F93809153068F930B
:101FA00001EB11E01F930F9341E050E04C0F5D1FD8
:101FB0005F934F930E949F28BE016F5F7F4F809178
:101FC000590690915A060E94F5050F900F900F90B8
:101FD0000F900F900F9080913E0590913F05A0913A
:101FE0004005B09141050196A11DB11D80933E05AC
:101FF00090933F05A0934005B093410580919F05C4
:102000009091A005892B09F47EC1809136019091B1
:1020100037012091A605273409F00BC22091A705AE
:10202000273409F09CC22091A805213409F06BC126
:102030000B970CF468C18091470590914805816029
:102040009093480580934705009125061091260638
:102050004BE050E0B80188EF94E00E949028F8012E
:1020600001900020E9F73197E01BF10B399708F454
:1020700063C0D8018C91082E000C990BC0974AE0E0
:10208000489F9001499F300D112411968C91119712
:10209000082E000C990BC097820F931F9093330565
:1020A0008093320512968C911297082E000C990B92
:1020B000C097489F9001499F300D112413968C9131
:1020C0001397082E000C990BC097820F931F9093C3
:1020D00035058093340514968C911497082E000CC6
:1020E000990BC097489F9001499F300D1124159678
:1020F0008C911597082E000C990BC097820F931F97
:10210000909337058093360517968C911797082E74
:10211000000C990BC097489F9001499F300D1124E6
:1021200018968C91082E000C990BC097820F931F64
:102130009093390580933805E0912906F0912A069D
:102140008081811101C08EE48093EE040091270606
:1021500010912806F80101900020E9F73197E01B63
:10216000F10B399708F43FC04FE050E0B8018EEC16
:1021700094E00E9490281092DD04C80102960E940B
:102180000C202B013C01F8011282C8010E94102092
:10219000BC01990F880B990B0E94AE214B015C0189
:1021A00020E030E040E752E4C301B2010E948C23FA
:1021B0009B01AC01C501B4010E94202360939305EB
:1021C0007093940580939505909396052091EE0465
:1021D000233549F490586093930570939405809348
:1021E000950590939605E0912D06F0912E0680813D
:1021F000811101C085E48093EF0400912B061091BA
:102200002C06F80101900020E9F73197E01BF10B53
:102210003A9708F440C04FE050E0B8018EED94E0EA
:102220000E9490281092ED04C80103960E940C2091
:102230002B013C01D80113961C92C8010E9410206A
:10224000BC01990F880B990B0E94AE214B015C01D8
:1022500020E030E040E752E4C301B2010E948C2349
:102260009B01AC01C501B4010E9420236093970536
:10227000709398058093990590939A052091EF04A7
:10228000273549F49058609397057093980580938B
:10229000990590939A0580912F0690913006FC0144
:1022A0002081222309F4BFC00E94102090932B05A7
:1022B00080932A058091310690913206DC012C91A1
:1022C000222309F4B3C00E94102090932905809323
:1022D00028050091350610913606F8018081882383
:1022E00091F047E050E0B80180EF94E00E94902820
:1022F000C8010E940C2060937F0570938005809335
:10230000810590938205C0926F05D0927005E0928E
:102310007105F092720500E810E010939F0300939E
:102320009E0380919E0390919F03019690939F033B
:1023300080939E038091A4039091A503029709F0D6
:102340005BC080919E0390919F038C0102531B4FB1
:10235000F801EB52FF4F20828430910541F4332481
:10236000B6E02B0E311C3092350120923401A09042
:102370003401B090350195012F5F3F4F2817390781
:1023800091F5AE014E5A5F4FBE016D5A7F4F83EA01
:1023900095E00E94E600F501ED55FA4F90816496B4
:1023A0008FAD649798130AC0F801EB52FF4F9081EC
:1023B00063968FAD6397981709F42FC180913C0500
:1023C00090913D05019690933D0580933C05E0E892
:1023D000F0E0F0939F03E0939E0386E090E09093FB
:1023E00035018093340180919E0390919F03019663
:1023F00090939F0380939E0380919E0390919F03EF
:10240000803891050CF4D5CC1092A5031092A4034A
:1024100010929F0310929E0381E090E09093370109
:1024200080933601C6CC90E080E040CF90E080E021
:102430004CCF223509F067CF2091A7052D3409F044
:1024400062CF2091A805233409F05DCF0B970CF4DF
:102450005ACF809147059091480582609093480536
:1024600080934705E0913506F0913606DF010D9027
:102470000020E9F71197AE1BBF0B169708F441C077
:102480008081082E000C990BC0974AE0489F90016C
:10249000499F300D11248181082E000C990BC097A3
:1024A000820F931F90933105809330058281082E0F
:1024B000000C990BC097489F9001499F300D112443
:1024C0008381082E000C990BC097820F931F909365
:1024D0002F0580932E052481022E000C330B2053F0
:1024E0003109429FC001439F900D11242581820F25
:1024F000911D27FD9A958056984F90932D058093B6
:102500002C050091310610913206D8018C91882358
:1025100071F047E050E0B80184E095E00E94902817
:10252000C8010E94102090932505809324050091F6
:10253000330610913406F8018081882309F4E3CE34
:1025400047E050E0B8018CE095E00E949028C80177
:102550000E9410209093270580932605D4CE233522
:1025600009F0D1CE2091A805213409F0CCCE4197B5
:102570000CF4C9CE809147059091480584609093F2
:10258000480580934705609143067091440647E0F3
:1025900050E084E195E00E9490286091450670919A
:1025A000460647E050E08CE195E00E94902884E1E7
:1025B00095E00E940C2060938B0570938C058093AE
:1025C0008D0590938E058CE195E00E940C20609320
:1025D0008F0570939005809391059093920593CE0B
:1025E00080913A0590913B05019690933B0580932D
:1025F0003A0591CE108295CE10828C559A4F9093C9
:102600005406809353061092A1031092A00389CE22
:102610001093A1030093A00384CE80914205909172
:102620004305A0914405B09145050196A11DB11D3A
:102630008093420590934305A0934405B0934505CC
:102640000E944B032091A505213011F1263009F499
:102650002BC2C0927305D0927405E0927505F0927A
:10266000760580915B0690915C06009709F4AFCEE9
:1026700040913401509135014E5F5F4FDC01ED9187
:10268000FC910280F381E02D63EA75E009959FCE0D
:102690008091A605803190F42091490530914A053A
:1026A00041E050E0082E02C0440F551F0A94E2F7A3
:1026B000242B352B30934A0520934905863009F4A5
:1026C00028C108F06FC0823009F4C2C0843009F616
:1026D0006091B3057091B4057093520560935105F4
:1026E00090E080E00E94AC212AE037ED43E25CE319
:1026F0000E940D2260938F05709390058093910541
:10270000909392050091B5051091B6051093500570
:1027100000934F05B80190E080E00E94AC212AE0D0
:1027200037ED43E25CE30E940D2260938B057093CA
:102730008C0580938D0590938E0580919F059091D7
:10274000A005892B09F085CF84E6A82EB12CC801FD
:10275000B5010E941B269F938F937F936F9307EB86
:1027600011E01F930F9384E195E09F938F930E9454
:102770009F288091510590915205B5010E941B261A
:102780009F938F937F936F931F930F938CE195E0AB
:102790009F938F930E949F280FB6F894DEBF0FBEC1
:1027A000CDBF57CF823109F4C0C0813209F051CF7B
:1027B0008091490590914A05906890934A058093CD
:1027C00049058091BC0582FF44CF8091B60590E019
:1027D000982F88272091B505820F911D90932D0584
:1027E00080932C058091B70590E090932F058093FE
:1027F0002E058091B80590E09093310580933005C7
:102800008091B90590E090933305809332058091D3
:10281000BA0590E090933505809334058091BB050F
:1028200090E090933705809336056091B1057091E3
:10283000B2058091B3059091B40520E836E948E9E6
:1028400050E00E944326309339052093380501CF8C
:102850006091AD057091AE058091AF059091B00586
:1028600060935705709358058093590590935A05C6
:102870000E94AE2120E836E948E15BE40E948C2307
:1028800060939705709398058093990590939A05A6
:102890006091B1057091B2058091B3059091B40536
:1028A0006093530570935405809355059093560596
:1028B0000E94AE2120E836E948E15BE40E948C23C7
:1028C0006093930570939405809395059093960576
:1028D0006091B9057091BA058091BB059091BC05D6
:1028E00060935B0570935C0580935D0590935E0536
:1028F0000E94AE212FE632E143E85AE30E940D2206
:1029000060937F0570938005809381059093820585
:10291000A0CE8091B305809346058091D80590E0C4
:10292000909329058093280594CE6091AD05709110
:10293000AE058091AF059091B005609363057093EB
:10294000640580936505909366054090B1055090AD
:10295000B2056090B3057090B4054092670550923F
:1029600068056092690570926A058090B50590903F
:10297000B605A090B705B090B80580926B0590920F
:102980006C05A0926D05B0926E059B01AC010E9492
:102990000B26A0966CAF7DAF8EAF9FAFA097A30123
:1029A0009201C301B2010E940B26A0964CAC5DAC13
:1029B0006EAC7FACA097460E571E681E791EA5010F
:1029C0009401C501B4010E940B26640D751D861D7E
:1029D000971D0E94AE210E948F2460939B057093E7
:1029E0009C0580939D0590939E0528E43DE34FE967
:1029F0005CE30E940D220E94FE23072E000C880B30
:102A0000990B0E94AE21609387057093880580938F
:102A1000890590938A058091B9059091BA05A09196
:102A2000BB05B091BC058093770590937805A09382
:102A30007905B0937A056091BD057091BE058091CE
:102A4000BF059091C00560937B0570937C058093D2
:102A50007D0590937E050E94AC2128E43DE34FE97B
:102A60005CE30E940D220E94FE2370932505609373
:102A700024056091C1057091C2058091C3059091B4
:102A8000C40560935F057093600580936105909322
:102A9000620520EA36E841E050E00E944326309388
:102AA000270520932605D5CD8091A605883009F409
:102AB0004EC0843209F0CDCD8091AB05873008F04F
:102AC00063C087E08093AB0581E090E02091AC0586
:102AD000223009F45CC082E08093AC0585E08093ED
:102AE000A9051092AA0562961FAE62972A961FAE9C
:102AF0002A970091A70510E0AE01475B5F4FBE012A
:102B00006F5A7F4F83EA95E00E94E600C801049661
:102B1000FC01EB55FA4F62962FAD629720838A55E0
:102B20009A4F2A962FAD2A97DC012C938091550657
:102B300090915606A801485F5F4FDC01ED91FC9132
:102B40000280F381E02D63EA75E0099582CD409122
:102B5000A9055091AA0550934E0540934D058091CB
:102B60004B0590914C058417950708F072CD209382
:102B70002A0180932C0190932D0170E060E088E29F
:102B800091E00E94C40265CD90E080E09FCF892B48
:102B900009F0A4CF5ECD80919C0390919D03883075
:102BA000910578F5409198035091990360919A03AB
:102BB00070919B0397018601041B150B260B370BA5
:102BC000B901A8014938534161057105D0F09C0154
:102BD0002F5F3F4F30939D0320939C038370992771
:102BE0008130910509F488C308F47FC3029709F482
:102BF00088C3C0929803D0929903E0929A03F0920E
:102C00009B0380911B0490911C04A0911D04B09122
:102C10001E046C962CAD3DAD4EAD5FAD6C97281B80
:102C2000390B4A0B5B0BDA01C90185369105A10509
:102C3000B10508F485C28091A6039091A703892B62
:102C400059F58EEE80935D060E94630980915D06C2
:102C50000E941B098EE10E94C2080E94F40864E6EB
:102C600070E080E090E00E949202BEE5EB2EB6E0BC
:102C7000FB2E10EA62E070E0812F0E942309D70149
:102C80006D937D937D011E5F103BA1F781E090E085
:102C90009093A7038093A60380915D060E941B0971
:102CA00088E40E94C2080E94F4086AE070E080E0B4
:102CB00090E00E94920263E070E080E00E942309AD
:102CC00068966CAF7DAF8EAF9FAF689780915D06C1
:102CD0000E941B0980E50E94C2080E94F40861E07E
:102CE00070E080E090E00E94920263E070E080E09B
:102CF0000E9423092B013C0180916806909169068E
:102D0000B0E0A0E0BA2FA92F982F8827481A590AB7
:102D10006A0A7B0A60916A0670916B0690E080E017
:102D2000A30192010E94C02607E10E9413274901D6
:102D3000CA01B4016053784F8F4F9F4F0E94AE215C
:102D40002AE037ED43E25CE30E940D22A8966CAFC7
:102D50007DAF8EAF9FAFA8976093500170935101E4
:102D600080935201909353016091640670916506BF
:102D700090E080E0A30192010E94C02608E00E943A
:102D8000132719014A01B62FA72FF82FE92FA0907A
:102D90006006B0906106950140E050E060E070E0B0
:102DA00080E090E00FE00E94FA2659016A017B0161
:102DB0008C019101A4016B2F7A2F8F2F9E2F0E94DF
:102DC00030276896CCACDDACEEACFFAC6897FF0C5E
:102DD000CC08DC2C7601A496CCAEDDAEEEAEFFAE18
:102DE000A4976596AFAC65976696BFAC66976796F5
:102DF000CFAC67976896DFAC6897A196EFACA197C8
:102E0000FE2C0E2D1E2D0E94682605E10E94132720
:102E1000322E232E65964FAF6597A1965FAFA1978F
:102E2000AB966FAFAB97AC967FAFAC97AD968FAFCD
:102E3000AD97AE969FAFAE976091660670916706AC
:102E400090E080E0A30192010E94C02607E00E946A
:102E5000132739014A01B62FA72FF82FE92FA09089
:102E60006206B0906306950140E050E060E070E0DB
:102E700080E090E000E10E94FA2659016A017B019E
:102E80008C019301A4016B2F7A2F8F2F9E2F0E940C
:102E9000302759016A017B018C01232D322D659663
:102EA0004FAD6597A1965FADA197AB966FADAB9710
:102EB000AC967FADAC97AD968FADAD97AE969FAD0E
:102EC000AE970E9439270FE00E94132720933C0100
:102ED00030933D0140933E0150933F018090380173
:102EE00090903901A0903A01B0903B018092170474
:102EF00090921804A0921904B0921A0460913801BB
:102F00007091390180913A0190913B010E94AE216C
:102F100020E836EE45EC57E40E948C232FEC39ED87
:102F200042E45EE30E9439249B01AC0160E070E062
:102F300080E89FE30E941F232DE935EF4DE058E420
:102F40000E940D222FEB3EE04CE95EE30E940D2231
:102F50006B017C0120E030EC49E754EC0E94A72192
:102F600087FDD4C120E03CE34CE156E4C701B60143
:102F70000E94342418160CF4C9C120E030E040EA65
:102F800051ECA8966CAD7DAD8EAD9FADA8970E941B
:102F9000A72187FD0EC020E030E048E452E4A89667
:102FA0006CAD7DAD8EAD9FADA8970E9434241816F0
:102FB00064F480E090E0A0EAB1E480935001909343
:102FC0005101A0935201B093530100E5801A03EC24
:102FD000900AA108B10811EA811616E8910611E0DD
:102FE000A106B10460F08DEC9BE8A1E0B0E0809315
:102FF000170490931804A0931904B0931A046C96C4
:103000002CAD3DAD4EAD5FAD6C97293833414105D8
:10301000510508F487C020E030E84CE254EC6091A0
:103020004C0170914D0180914E0190914F010E9491
:10303000A72187FF08C0C0924C01D0924D01E092B9
:103040004E01F0924F0120914C0130914D01409181
:103050004E0150914F01C701B6010E941F2360939A
:1030600013047093140480931504909316046091D4
:10307000130470911404809115049091160420910A
:103080000F043091100440911104509112040E94D9
:103090003424181684F48091130490911404A091A0
:1030A0001504B091160480930F0490931004A0931C
:1030B0001104B09312046091130470911404809170
:1030C000150490911604F090AC03EF2DEE0FFF0B5A
:1030D000E855FC4F008111810115110519F120E01F
:1030E00030E040E251E40E940D220E94FE23D8010C
:1030F00012967C93129713966C93A3E0B4E0F801B8
:103100008FE094E02C9111963C91119712963483A4
:10311000258332968A179B07A9F781E0F11080E09A
:103120008093AC036C96CCACDDACEEACFFAC6C9792
:10313000C0921B04D0921C04E0921D04F0921E0465
:103140008091FF0390910004A0910104B0910204CA
:103150006C96ECACFDAC0EAD1FAD6C97E81AF90A9D
:103160000A0B1B0BD801C7018E349140A105B10594
:1031700008F47CC00091280510912905083011053C
:10318000ACF180912405909125052091FD033091AB
:10319000FE032817390724F49093FE038093FD0360
:1031A000C0909B05D0909C05E0909D05F0909E05F9
:1031B0006091F9037091FA038091FB039091FC03F5
:1031C0000E94AC219B01AC01C701B6010E943424CE
:1031D000181664F4C701B6010E9405246093F90330
:1031E0007093FA038093FB039093FC03C0907F05D8
:1031F000D0908005E0908105F090820580914A0191
:1032000090914B018133984F0CF484C02091F503C9
:103210003091F6034091F7035091F803C701B601CE
:103220000E941F236B017C012091F1033091F20376
:103230004091F3035091F4030E943424181644F48F
:10324000C092F103D092F203E092F303F092F40300
:103250006C96CCACDDACEEACFFAC6C97C092FF03CF
:10326000D0920004E0920104F092020480911704CD
:1032700090911804A0911904B0911A042091420170
:1032800030914301232B21F010924301109242010F
:10329000E091B303EE0FFF0BE155FC4F008111816C
:1032A00019820115110509F499C0E091AD03F0915F
:1032B000AE032091400130914101E217F30709F478
:1032C0008DC0F0934101E0934001E830F10508F032
:1032D00070C0E359F64E0C946226C119181F2B1FBB
:1032E000551F6E1F7E1F8E1FAA1F70E060E082E8D0
:1032F00091E00E94C4027DCC70E060E08CE791E038
:10330000F8CF70E060E086E791E0F3CFC12CD12CDC
:10331000760133CE6C968CAD9DADAEADBFAD6C97E6
:1033200081369A4EA105B10508F492CF08301105F7
:103330000CF48ECF20E030E040E050E460918F0547
:103340007091900580919105909192050E94A7211E
:1033500087FF7ECF28E439EF41E550E4C701B6018D
:103360000E940D220E94FE2370934B0160934A013C
:10337000C092F503D092F603E092F703F092F803BF
:1033800067CF80EC91E09F938F938CEC91E09F93BB
:103390008F93EE24E394F12CEC0EFD1EFF92EF923E
:1033A0000E949F281D860F900F900F900F900F90F6
:1033B0000F904DE050E0BE016F5F7F4FC801039654
:1033C0000E9490288091AD03F8018283178681E0E6
:1033D0009091B303911180E08093B30380914705EE
:1033E000909148059C01237033272330310509F063
:1033F000C4C18C7F90934805809347058091EC036E
:10340000880F990BFC01E851FC4F008111810115D7
:10341000110509F4B2C18C519C4FDC01ED90FC9078
:10342000E114F10409F4A9C180EF94E00E94102096
:10343000D92E9F938F938FE092E09F938F93E1E03B
:10344000F0E0EC0FFD1FFF93EF930E949F28DD1C1F
:10345000DD24DD1CA996DFAEA997AA961FAEAA9718
:103460008A818295807F9B819053892BD701199601
:103470008C938C818295807F9D819053892BF8015C
:1034800083838E818295807F82838EEC94E0DC0141
:103490000D900020E9F7CD018F5C94400F900F90C4
:1034A0000F900F900F900F90099720F18091CE040C
:1034B0008295807F9091CF049053892B8783809150
:1034C000D0048295807F9091D1049053892B86837C
:1034D0008091D3048295807F9091D4049053892B5E
:1034E00085838091D5048295807F9091D6049053F6
:1034F000892B84838EED94E0FC0101900020E9F794
:10350000CF018F5D9440D12CC12C0A97A0F18091FE
:10351000DF048295807F9091E0049053892BD8013D
:103520001B968C931B978091E1048295807F9091EC
:10353000E2049053892B1A968C931A978091E40495
:103540008295807F9091E5049053892B19968C93F6
:1035500019978091E6048295807F9091E7049053BB
:10356000892B18968C93C090DE040C2C000CDD087F
:10357000B0E3CB1AD1088CE095E00E9410209F9315
:103580008F9384E192E09F938F93E1E0F0E0EC0F62
:10359000FD1FFF93EF930E949F288A818295807F71
:1035A0009B819053892BD8011D968C931D978C81FC
:1035B0008295807F1C968C9384E195E00E940C207C
:1035C0002B013C010F900F900F900F900F900F90D8
:1035D00026E636E64EE151E40E94342418160CF03B
:1035E000CAC489E9F801868784E095E00E9410202A
:1035F0009F938F9384E192E09F938F93E1E0F0E0BB
:10360000EC0FFD1FFF93EF930E949F288A81829504
:10361000807F9B819053892BD70113968C931397AE
:103620008C818295807F12968C93129788EF94E01C
:10363000FC0101900020E9F7CF01895F94400F90D1
:103640000F900F900F900F900F90099758F1809165
:10365000F8048295807F9091F9049053892B1796F6
:103660008C9317978091FA048295807F9091FB0448
:103670009053892B16968C9316978091FC04829513
:10368000807F9091FD049053892B15968C9315970C
:103690008091FF048295807F909100059053892B43
:1036A00014968C9380912805909129056AE070E02A
:1036B0000E942F266295607F862BD70118968C93E7
:1036C00080E1F801878781E09091EE049E3409F053
:1036D00080E08061D8011F968C939091EF0495341F
:1036E00009F066C492E0892B94E0CD2809F490E0BB
:1036F000892BF801878720912A0530912B0598E0C6
:10370000232B09F490E0892BAA96CEACDFACAA97C4
:1037100090E8CD2809F490E0892BD8011F968C936E
:103720001F9720912A0530912B05232B71F0409192
:1037300028055091290520914601309147014217F3
:1037400053071CF080621F968C9380912A059091FC
:103750002B05892B91F02091280530912905809126
:10376000440190914501281739073CF081E0909180
:10377000EC03911180E08093EC03809149059091D6
:103780004A059C01247430782434304809F034C34D
:103790008B7B9F7790934A05809349058091ED0339
:1037A0009091EE03A091EF03B091F0030196A11D5B
:1037B000B11D8093ED039093EE03A093EF03B093BC
:1037C000F0038091EC03880F990BFC01E851FC4F4A
:1037D000008111810115110509F40EC38C519C4F14
:1037E000FC01C080D180C114D10409F405C38091CB
:1037F000530590915405A0915505B0915605B7FF1A
:10380000D9C3F3E56996FFAF699780915705909109
:103810005805A0915905B0915A05B7FFD0C337E5B7
:1038200065963FAF659760915B0570915C058091EF
:103830005D0590915E0528EE33E040E050E00E9487
:10384000432649015A01BF924F939F922F938FE0D5
:1038500092E09F938F9381E090E08C0F9D1F9F9348
:103860008F930E949F28BB0C8808982C5401A29625
:103870009FAE8EAEA2978A818295807F9B81905366
:10388000892BD60119968C938C818295807F9D819E
:103890009053892BF80183838E818295807F828368
:1038A0001092E30360915305709154058091550582
:1038B0009091560597FF07C09095809570956195FA
:1038C0007F4F8F4F9F4F0FB6F894DEBF0FBECDBF17
:1038D00020E836E948E950E00E944326F901F42E39
:1038E000E52E9B01AC01ACE3B0E00E94CE222B019F
:1038F0003C01EF92FF92FF93EF938BEB91E09F934C
:103900008F9384ED93E09F938F930E949F280FB62F
:10391000F894DEBF0FBECDBF312C212C812C31EEAF
:10392000932E35EFA32E35E0B32E42E0E42EF12C9A
:10393000C301B201A50194010E9443262B013C0161
:10394000C7010196F701EC52FC4F205D2083A1E0F6
:103950002A16310409F038C3B2E0EB0EF11C8C5288
:103960009C4F2EE2FC0120833FEF231A330AC5014E
:10397000B4012AE030E040E050E00E9443264901D3
:103980005A0149E0E416F10424F459E02516310403
:1039900079F6F701EC52FC4F8CE28083F701EB5291
:1039A000FC4F69965FAD69975083F701EA52FC4F6F
:1039B00010828091D4038295807F9091D50390539B
:1039C000892BD80117968C9317978091D6038295EF
:1039D000807F9091D7039053892B16968C931697DE
:1039E0008091D9038295807F9091DA039053892B3F
:1039F00015968C9315978091DB038295807F90912B
:103A0000DC039053892B14968C931092D30360910E
:103A10005705709158058091590590915A0597FF67
:103A200007C090958095709561957F4F8F4F9F4F00
:103A300020E836E948E950E00E944326F901F42ED7
:103A4000E52E9B01AC01ACE3B0E00E94CE222B013D
:103A50003C01EF92FF92FF93EF9389E192E09F93F5
:103A60008F9384EC93E09F938F930E949F280FB6CF
:103A7000F894DEBF0FBECDBF83E0E82EF12C812C81
:103A800091EE992E95EFA92E95E0B92E2EE2322EC9
:103A9000C301B201A50194010E9443262B013C0100
:103AA000C7010196F701EC53FC4F205D20836E9611
:103AB0004EAD5FAD6E974130510509F087C252E0BF
:103AC000E50EF11C8C539C4FDC013C926E96EEADE2
:103AD000FFAD6E9731966E96FFAFEEAF6E97C50154
:103AE000B4012AE030E040E050E00E944326490162
:103AF0005A01FAE0EF16F1043CF46E962EAD3FAD9C
:103B00006E972930310521F6F701EC53FC4F8CE21A
:103B10008083F701EB53FC4F65962FAD65972083AB
:103B2000F701EA53FC4F10828091C5038295807F94
:103B30009091C6039053892BD8011B968C931B97A9
:103B40008091C7038295807F9091C8039053892B01
:103B50001A968C931A978091CA038295807F9091D0
:103B6000CB039053892B19968C9319978091CC0392
:103B70008295807F9091CD039053892B18968C93DA
:103B8000F090C40360915F057091600580916105BC
:103B90009091620520E137E240E050E00E94432628
:103BA0003F932F9384E192E09F938F93E1E0F0E0C5
:103BB000EC0FFD1FFF93EF930E949F288981829550
:103BC000807F9A819053892BD8011D968C931D97E5
:103BD0008B818295807F9C819053892B1C968C933E
:103BE00020914F05309150050F900F900F900F903E
:103BF0000F900F902F3DB3E03B0708F4E9C189E92E
:103C0000F801868760917B0570917C0580917D0528
:103C100090917E050E94AC2128E43DE34FE95CE3EE
:103C20000E940D2220E030E040E251E40E940D228B
:103C300020E030E040E05FE30E9420230E94FE236A
:103C40007F936F9384E192E09F938F93E1E0F0E0A4
:103C5000EC0FFD1FFF93EF930E949F2889818295AF
:103C6000807F9A819053892BD60113968C9313975A
:103C70008B818295807F9C819053892B12968C93A7
:103C800080913205909133052AE030E0B9010E941D
:103C90002F2694E0660F771F9A95E1F7682BF601BF
:103CA00067838091340590913505B9010E942F26D4
:103CB00044E0660F771F4A95E1F7682B6683809191
:103CC000360590913705B9010E942F2654E0660F02
:103CD000771F5A95E1F7682B65838091380590919D
:103CE0003905B9010E942F26A4E0660F771FAA9517
:103CF000E1F7682B64838091280590912905B9012B
:103D00000E942F266295607F862B808790914605C2
:103D1000925081E00F900F900F900F900F900F90A6
:103D20006996FFAD6997FE3409F080E08061659681
:103D30002FAD6597253409F069C122E0822B30E36D
:103D400024E0F31201C020E0822B28E0933008F039
:103D500020E0822BA296CEACDFACA297CD20C094FF
:103D600009F056C120E8822BD8011F968C93209130
:103D700046052350223008F04DC14091280550914E
:103D800029052091460130914701421753070CF451
:103D900041C120E2822BF8018787933090F4209173
:103DA00028053091290580914401909145012817FB
:103DB00039073CF081E09091EC03911180E0809311
:103DC000EC038091F0038F938091EF038F938091A8
:103DD000EE038F938091ED038F938EE192E09F939A
:103DE0008F9384EB93E09F938F930E949F280FB64D
:103DF000F894DEBF0FBECDBF0E946D0280914801D6
:103E000090914901892B21F01092490110924801AB
:103E100080E090E0892B11F40C94CB0E0E947E017F
:103E2000882311F40C94CB0E0E9400000C94CB0E4E
:103E3000809129058F93809128058F9384ED91E0DF
:103E40009F938F9321E030E02C0F3D1F3F932F93E2
:103E50000E949F28A8CA809145058F9380914405B0
:103E60008F93809143058F93809142058F9380912A
:103E700041058F93809140058F9380913F058F93EB
:103E800080913E058F938CED91E09F938F9341E05D
:103E900050E04C0F5D1F5F934F930E949F280FB619
:103EA000F894DEBF0FBECDBF84CA80913D058F93CD
:103EB00080913C058F9380913B058F9380913A05CB
:103EC0008F9387EE91E09F938F93A1E0B0E0AC0FCA
:103ED000BD1FBF93AF930E949F28E1CF84E195E07F
:103EE0009F938F9380EF91E09F938F93CC24C39403
:103EF000D12CCC0EDD1EDF92CF92AACF8CE195E0C3
:103F00009F938F9389EF91E09F938F93EE24E39497
:103F1000F12CEC0EFD1EFF92EF929ACF0097A105B7
:103F2000B10579F0BF93AF939F938F9382E092E0B6
:103F30009F938F9321E030E02C0F3D1F3F932F93F1
:103F4000CACF4DE050E064EB73E0CE0101960E94D1
:103F500090282FCA0E944B039F938F937F936F9358
:103F60008AE092E09F938F9381E090E08C0F9D1FF9
:103F70009F938F93B0CFC301B2010E940524B62E48
:103F800020E030E040E251E4C301B2010E940D2282
:103F90000E940524F6EFBF9E600D112420E1B29E21
:103FA000C0011124B62EB82AD8011E96BC921CCB93
:103FB00090E099CB2EE469962FAF699726CC45E423
:103FC00065964FAF65972FCC7C01CECC7C017ECD22
:103FD000C90164E670E00E941B26FB0144E6469F8F
:103FE000C001479F900D1124A901481B590BCA011C
:103FF0006AE070E00E941B26B4E0EE0FFF1FBA9546
:10400000E1F7E62BD8011E96EC93FCCD20E096CE8E
:1040100020E0A9CE20E0BECE662777270C9436207C
:10402000FC0188279927E89421912032E9F329306F
:1040300010F02E30C8F32B3241F02D3239F4689451
:1040400004C00E942E20820F911D219120532A30FE
:10405000C0F31EF4909581959F4F08957AE0979F45
:10406000902D879F802D910D11240895B0E0A0E040
:10407000ECE3F0E20C94DF225C017B016115710539
:1040800019F0DB018D939C9385010F5F1F4FF501A4
:10409000D0818D2F90E00E9486216C01892BB9F58B
:1040A000DD32B9F50F5F1F4FD5011196DC91C1E0EC
:1040B0005801F1E0AF1AB10843E050E062EF70E060
:1040C000C5010E948F21892B69F5680182E0C80E25
:1040D000D11C45E050E06DEE70E0C6010E948F21DA
:1040E000892B21F4680197E0C90ED11CE114F10479
:1040F00019F0D701CD92DC9260E070E080E89FEF8C
:10410000C111FFC060E070E080E89FE7FAC058018D
:10411000BBCFDB3229F485010E5F1F4FF501D18142
:10412000C0E0C6CF43E050E06AEE70E0C5010E94F7
:104130008F21892BE9F0F80110E000E020E030E069
:10414000A9015F01B0ED8B2E8D0E89E08815C8F1B5
:104150009C2E689491F88C2F8870C2FF16C0811134
:1041600002C00F5F1F4F3196D501DC91C92DE9CFF9
:10417000E114F10429F00E5F1F4FF7011183008352
:1041800060E070E080EC9FE7BCC0882311F0015034
:104190001109A5E0B0E00E94CE229B01AC01220FE4
:1041A000331F441F551F280D311D411D511D283936
:1041B00099E93907490799E15907A8F2C6609C2E89
:1041C000D2CFAEEF8A1206C0C3FD3CC09C2E6894CD
:1041D00093F8C9CFDF7DD534A9F580818D3239F4CC
:1041E000C061DF011296818162E070E006C0DF01EC
:1041F0008B32C1F3119661E070E080535D01A61A25
:10420000B70A8A30F8F4E0E8CE16ECE0DE065CF49B
:10421000B601660F771F660F771FC60ED71ECC0C30
:10422000DD1CC80ED11C5D01FFEFAF1ABF0A8C91D7
:1042300080538A30A8F1C4FF03C0D194C194D1083F
:104240000C0D1D1DC1FF09C0E114F10431F081E026
:10425000A81AB108D701AD92BC92CA01B9010E9457
:10426000AC21C370C33009F490584B015C0120E0CD
:1042700030E0A9010E94A721882309F440C0C1E2CF
:10428000D1E017FF05C0119501951109C9E0D1E0F2
:104290006E01B8E1CB1AD10880E2E82EF12C0FC0F4
:1042A000D501B1CFFE0125913591459154910E195B
:1042B0001F09C501B4010E940D224B015C01D5010B
:1042C000C4010E151F0574F72497F594E794CC16D6
:1042D000DD06A9F78A2F880F8B2F881F8F3F49F0A3
:1042E00020E030E0A901C501B4010E94A72181119D
:1042F00006C082E290E09093710680937006C5013B
:10430000B401CDB7DEB7ECE00C94FB2291110C9414
:104310007A22803219F089508550C8F70895FB0140
:10432000DC014150504088F08D9181341CF08B3578
:104330000CF4805E659161341CF06B350CF4605EAA
:10434000861B611171F3990B0895881BFCCF0E94A5
:10435000E92108F481E00895E89409C097FB3EF450
:1043600090958095709561957F4F8F4F9F4F9923C2
:10437000A9F0F92F96E9BB279395F6958795779540
:104380006795B795F111F8CFFAF4BB0F11F460FF00
:104390001BC06F5F7F4F8F4F9F4F16C0882311F058
:1043A00096E911C0772321F09EE8872F762F05C06C
:1043B000662371F096E8862F70E060E02AF09A9507
:1043C000660F771F881FDAF7880F9695879597F9FC
:1043D0000895990F0008550FAA0BE0E8FEEF161696
:1043E0001706E807F907C0F012161306E407F507E9
:1043F00098F0621B730B840B950B39F40A2661F05D
:10440000232B242B252B21F408950A2609F4A140FF
:10441000A6958FEF811D811D08950E9420220C9486
:1044200094220E94862238F00E948D2220F095234B
:1044300011F00C947D220C94832211240C94C82238
:104440000E94A52270F3959FC1F3950F50E0551F70
:10445000629FF001729FBB27F00DB11D639FAA27D9
:10446000F00DB11DAA1F649F6627B00DA11D661F28
:10447000829F2227B00DA11D621F739FB00DA11D49
:10448000621F839FA00D611D221F749F3327A00D03
:10449000611D231F849F600D211D822F762F6A2F9F
:1044A00011249F5750409AF0F1F088234AF0EE0F04
:1044B000FF1FBB1F661F771F881F91505040A9F731
:1044C0009E3F510580F00C947D220C94C8225F3FE2
:1044D000E4F3983ED4F3869577956795B795F7956D
:1044E000E7959F5FC1F7FE2B880F911D96958795E5
:1044F00097F9089599278827089597F99F6780E885
:1045000070E060E008959FEF80EC089500240A9425
:104510001616170618060906089500240A9412169E
:104520001306140605060895092E0394000C11F4D1
:10453000882352F0BB0F40F4BF2B11F460FF04C07E
:104540006F5F7F4F8F4F9F4F089557FD9058440FD7
:10455000551F59F05F3F71F04795880F97FB991FE2
:1045600061F09F3F79F0879508951216130614069F
:10457000551FF2CF4695F1DF08C01616170618062C
:10458000991FF1CF86957105610508940895E89407
:10459000BB2766277727CB0197F908950E94102340
:1045A000A59F900DB49F900DA49F800D911D112487
:1045B00008952F923F924F925F926F927F928F92C7
:1045C0009F92AF92BF92CF92DF92EF92FF920F93A2
:1045D0001F93CF93DF93CDB7DEB7CA1BDB0B0FB6AC
:1045E000F894DEBF0FBECDBF09942A883988488869
:1045F0005F846E847D848C849B84AA84B984C884FF
:10460000DF80EE80FD800C811B81AA81B981CE0FF5
:10461000D11D0FB6F894DEBF0FBECDBFED010895DA
:10462000A29FB001B39FC001A39F700D811D1124F3
:10463000911DB29F700D811D1124911D0895505838
:10464000BB27AA270E9437230C9494220E9486221B
:1046500038F00E948D2220F039F49F3F19F426F49F
:104660000C9483220EF4E095E7FB0C947D22E92F55
:104670000E94A52258F3BA176207730784079507AB
:1046800020F079F4A6F50C94C7220EF4E0950B2ED9
:10469000BA2FA02D0B01B90190010C01CA01A00194
:1046A0001124FF27591B99F0593F50F4503E68F1EF
:1046B0001A16F040A22F232F342F4427585FF3CF30
:1046C000469537952795A795F0405395C9F77EF401
:1046D0001F16BA0B620B730B840BBAF09150A1F04A
:1046E000FF0FBB1F661F771F881FC2F70EC0BA0FD0
:1046F000621F731F841F48F4879577956795B79558
:10470000F7959E3F08F0B0CF9395880F08F0992752
:10471000EE0F9795879508950E94A0230C949422FC
:104720000E948D2258F00E94862240F029F45F3FBB
:1047300029F00C947D2251110C94C8220C948322F0
:104740000E94A52268F39923B1F3552391F3951B99
:10475000550BBB27AA2762177307840738F09F5FA2
:104760005F4F220F331F441FAA1FA9F335D00E2E0F
:104770003AF0E0E832D091505040E695001CCAF77C
:104780002BD0FE2F29D0660F771F881FBB1F26173F
:1047900037074807AB07B0E809F0BB0B802DBF0116
:1047A000FF2793585F4F3AF09E3F510578F00C94E5
:1047B0007D220C94C8225F3FE4F3983ED4F38695A3
:1047C00077956795B795F7959F5FC9F7880F911D06
:1047D0009695879597F90895E1E0660F771F881FF2
:1047E000BB1F621773078407BA0720F0621B730BA5
:1047F000840BBA0BEE1F88F7E09508950E940524FC
:104800006894B1110C94C82208950E94AD2288F0DA
:104810009F5798F0B92F9927B751B0F0E1F0660F84
:10482000771F881F991F1AF0BA95C9F714C0B130C5
:1048300091F00E94C722B1E008950C94C722672F1F
:10484000782F8827B85F39F0B93FCCF386957795F4
:104850006795B395D9F73EF49095809570956195DD
:104860007F4F8F4F9F4F08950E94E92108F48FEFEB
:104870000895FA01EE0FFF1F309621053105A1F1D1
:104880006115710561F48038BFE39B0749F16894B5
:104890009038810561F08038BFEF9B0741F0992384
:1048A0004AF5FF3FE1053105210519F1E894089427
:1048B000E795D901AA2329F4AB2FBE2FF85FD0F3D7
:1048C00010C0FF5F70F4A695E0F7F73950F019F0CB
:1048D000FF3A38F49F779F930DD00F9007FC9058C4
:1048E000089546F00C94832260E070E080E89FE336
:1048F00008954FE79F775F934F933F932F930E94C5
:104900008F252F913F914F915F910E940D220C9422
:10491000D72419F416F40C9483220C9409250E94D0
:10492000AD22B8F39923C9F3B6F39F57550B87FF10
:104930000E9417250024A0E640EA90018058569571
:10494000979528F4805C660F771F881F20F0261744
:104950003707480730F4621B730B840B2029312979
:104960004A2BA69517940794202531254A2758F7F6
:10497000660F771F881F20F026173707480730F487
:10498000620B730B840B200D311D411DA09581F727
:10499000B901842F9158880F96958795089529F429
:1049A00016F00C947D220C94C7220C9483220E9452
:1049B000AD22A8F39638A0F707F80F92E8942BE3FE
:1049C0003AEA48EB5FE70E9423220F920F920F9280
:1049D0004DB75EB70F920E94D725E8E6F0E00E943F
:1049E0001E254F915F91EF91FF91E595EE1FFF1FFF
:1049F00049F0FE57E0684427EE0F441FFA95E1F7AF
:104A00004195550B0E9451250F9007FE0C944525AA
:104A100008959F3F31F0915020F4879577956795E1
:104A2000B795880F911D9695879597F908959150A0
:104A30005040660F771F881FD2F70895DF93CF93FA
:104A40001F930F93FF92EF92DF927B018C0168948A
:104A500006C0DA2EEF010E942022FE01E894A59103
:104A60002591359145915591A6F3EF010E94372389
:104A7000FE019701A801DA9469F7DF90EF90FF90AB
:104A80000F911F91CF91DF9108959B01AC0160E0E0
:104A900070E080E89FE30C948C230C947D220C94AE
:104AA00009250E94AD22D8F39923C9F3940F511D13
:104AB000A3F39150504094F059F0882332F0660FE0
:104AC000771F881F91505040C1F79E3F51052CF72A
:104AD000880F911D9695879597F908955F3FACF0E3
:104AE000983E9CF0BB27869577956795B79508F417
:104AF000B1609395C1F7BB0F58F711F460FFE8CF91
:104B00006F5F7F4F8F4F9F4FE3CF0C94C82216F0FB
:104B10000C9409250C94832268940C947D220E94A5
:104B2000AD22A8F39923C1F3AEF3DF93CF931F9384
:104B30000F93FF92C92FDD2788232AF02197660F54
:104B4000771F881FDAF720E030E040E85FEB9FE353
:104B5000883920F0803E38F021968F770E942023FC
:104B6000E0E9F0E004C00E942023EDEBF0E00E94B9
:104B70001E258B01BE01EC01FB2E6F577109759547
:104B8000771F880B990B0E94AE2128E132E741E3A1
:104B90005FE30E942022AF2D9801AE01FF900F919C
:104BA0001F91CF91DF910E9437230C949422FA0138
:104BB000DC01AA0FBB1F9B01AC01BF5728F42227C1
:104BC00033274427507820C0B75190F4AB2F0024EE
:104BD000469537952795011CA395D2F3002071F0D7
:104BE000220F331F441FB395DAF30ED00C941F230A
:104BF00061307105A0E88A07B94630F49B01AC0129
:104C00006627772788279078309621F02083318394
:104C1000428353830895DB018F939F930E94CE229A
:104C2000BF91AF91A29F800D911DA39F900DB29F48
:104C3000900D11240895AA1BBB1B51E107C0AA1FA8
:104C4000BB1FA617B70710F0A61BB70B881F991F2D
:104C50005A95A9F780959095BC01CD01089597FBD1
:104C6000072E16F4009407D077FD09D00E941B266A
:104C700007FC05D03EF4909581959F4F089570955F
:104C800061957F4F0895052E97FB1EF400940E94B6
:104C90005A2657FD07D00E94422707FC03D04EF446
:104CA0000C945A2650954095309521953F4F4F4F83
:104CB0005F4F089590958095709561957F4F8F4FC8
:104CC0009F4F0895EE0FFF1F0590F491E02D09947A
:104CD000DF93CF931F930F939A9DF02D219FF00D9B
:104CE0008B9DF00D8A9DE02DF10D039FF00D029F2D
:104CF000E00DF11D4E9DE00DF11D5E9DF00D4F9DEF
:104D0000F00D7F936F93BF92AF925F934F93D50156
:104D10000E9410238B01AC01D7010E941023EB01EC
:104D2000E80FF91FD6010E94B7262F913F91D601B7
:104D30000E941023C60FD71FE81FF91FAF91BF9124
:104D40000E94B7262F913F910E941023C60FD71FB4
:104D5000E81FF91FD6010E941023E60FF71F9801E4
:104D6000BE01CF010F911F91CF91DF9108950E9455
:104D70001023460F571FC81FD91F08F431960895F6
:104D800097FB57FF0C94D0269F938F930E94D026B9
:104D90006E1B7F0BAF91BF918A0B9B0B0895E8941C
:104DA000DF93CF93FC01DB010E9410237F936F936D
:104DB000E9019A01AC01BF93AF933F932F93DF01B9
:104DC0000E94102326F46C1B7D0B820B930B9E011B
:104DD000EB01FC010E94B726AF91BF912F913F914B
:104DE0000E94B726BE01CF01F9012F913F91CF91CB
:104DF000DF910895002E083090F0982F872F762F9E
:104E0000652F542F432F322F22270850F4CF220F23
:104E1000331F441F551F661F771F881F991F0A9550
:104E2000B2F7002D089597FD1094002E083098F0E9
:104E30000850232F342F452F562F672F782F892F77
:104E4000912DF4CF159497958795779567955795FC
:104E50004795379527950A95AAF71124002D0895AF
:104E60002A0D3B1D4C1D5D1D6E1D7F1D801F911F5A
:104E700008952A193B094C095D096E097F09800BC9
:104E8000910B0895A1E21A2EAA1BBB1BFD010DC0B8
:104E9000AA1FBB1FEE1FFF1FA217B307E407F507EA
:104EA00020F0A21BB30BE40BF50B661F771F881FC6
:104EB000991F1A9469F760957095809590959B015C
:104EC000AC01BD01CF0108950F931F93CF93DF93E2
:104ED0008230910510F482E090E0E0917406F09148
:104EE000750630E020E0B0E0A0E0309799F421159D
:104EF000310509F44AC0281B390B24303105D8F597
:104F00008A819B816115710589F1FB0193838283FD
:104F1000FE0111C040815181028113814817590758
:104F2000E0F04817590799F4109761F012960C9326
:104F3000129713961C933296CF01DF91CF911F9158
:104F40000F9108950093740610937506F4CF211500
:104F5000310551F04217530738F0A901DB019A01DE
:104F6000BD01DF01F801C1CFEF01F9CF90937506C4
:104F700080937406CDCFFE01E20FF31F81939193CE
:104F80002250310939832883D7CF2091720630917E
:104F90007306232B41F42091560130915701309331
:104FA000730620937206209154013091550121150A
:104FB000310541F42DB73EB7409158015091590148
:104FC000241B350BE0917206F0917306E217F3078C
:104FD000A0F42E1B3F0B2817390778F0AC014E5F69
:104FE0005F4F2417350748F04E0F5F1F509373062D
:104FF00040937206819391939FCFF0E0E0E09CCFC5
:10500000CF93DF930097E9F0FC013297138212826D
:10501000A0917406B0917506ED0130E020E0109784
:10502000A1F420813181820F931F2091720630916B
:1050300073062817390709F061C0F0937306E093EF
:105040007206DF91CF910895EA01CE17DF07E8F5E8
:105050004A815B819E0141155105B1F7E901FB834E
:10506000EA8349915991C40FD51FEC17FD0761F4EC
:10507000808191810296840F951FE901998388832D
:10508000828193819B838A83F0E0E0E012968D9188
:105090009C9113970097B9F52D913C911197CD01F3
:1050A0000296820F931F2091720630917306281783
:1050B000390739F6309751F510927506109274063B
:1050C000B0937306A0937206BCCFD383C283408192
:1050D0005181840F951FC817D90761F44E5F5F4F48
:1050E00088819981480F591F518340838A819B8110
:1050F000938382832115310509F0B0CFF0937506B3
:10510000E09374069ECFFD01DC01C0CF13821282B2
:10511000D7CFDC0101C06D9341505040E0F70895B6
:10512000FB01DC014150504048F001900D920020FD
:10513000C9F701C01D9241505040E0F70895AEE01C
:10514000B0E0E5EAF8E20C94E7220D891E8986E0DA
:105150008C831A8309838FEF9FE79E838D83AE0133
:10516000475E5F4F6F89788DCE0101960E94C228FD
:105170002F813885020F131FF80110822E96E4E06C
:105180000C940323ABE0B0E0E8ECF8E20C94D922F5
:105190007C013B018A01FC0117821682838181FF19
:1051A000C8C1CE0101965C01F7019381F30193FD23
:1051B000859193FF81913F01882309F453C1853282
:1051C00039F493FD859193FF81913F01853229F454
:1051D000B70190E00E94B22AE7CF912C212C312C0C
:1051E000FFE1F31538F08B3211F190F4803209F1C0
:1051F000833229F137FC3CC020ED280F2A3050F5CE
:1052000036FE20C08AE0989E200D1124922E06C002
:105210008D3291F0803371F7689430F8F30193FD8B
:10522000859193FF81913F018111DACF21C068946C
:1052300031F8689432F8F2CF689433F8EFCF68947D
:1052400034F8ECCFEAE02E9E200D1124222E689433
:1052500035F8E4CF8E3229F436FC04C1689436F870
:10526000DDCF8C3619F4689437F8D8CF8836B1F290
:10527000982F9F7D95549330E0F08336A1F18337CA
:10528000C1F1833509F063C02801F2E04F0E511CD3
:10529000F801C080D180692D70E036FC02C06FEF4C
:1052A0007FEFC6010E949C2A4C01689437F8820166
:1052B0000AC00C5F1F4FFFE3F98388248394912C6D
:1052C0006501E89437F833FE2DC0522C8114910407
:1052D00071F5552009F468CFB70180E290E00E9493
:1052E000B22A5A94F6CFF801808189830E5F1F4F4E
:1052F000E4CF2801F2E04F0E511CF801C080D180AC
:10530000692D70E036FC02C06FEF7FEFC6010E948E
:10531000A72A4C018201D5CFB70180E290E00E941C
:10532000B22A2A942814190409F0B0F7CECFF60156
:1053300037FC859137FE81916F01B70190E00E94A3
:10534000B22A51105A94F1E08F1A9108BFCF8436D7
:1053500019F0893609F077C0F80137FE6BC060811B
:105360007181828193810C5F1F4FF32DFF763F2E59
:1053700097FF09C090958095709561957F4F8F4FED
:105380009F4F689437F82AE030E0A5010E94E22A96
:10539000C82ECA188C2C432C36FE0CC0E89440F85A
:1053A000C91440F434FE05C032FC03C0F32DFE7E68
:1053B0004F2E892C44FE95C0FE01EC0DF11D80811D
:1053C000803309F087C0242D297E422E842D8870D9
:1053D000582E43FC95C040FE8FC09C2C821418F4BC
:1053E0002C0C922C981844FE91C0B70180E390E0F9
:1053F0000E94B22A42FE09C088E790E041FE02C046
:1054000088E590E0B7010E94B22AC91408F48AC066
:10541000CA94D12C9FEFC91AD90ACA0CDB1CF60119
:1054200082916F01B70190E00E94B22AAC14BD04D2
:10543000B1F74FCF60817181072E000C880B990B5B
:105440000E5F1F4F92CFD32CE894D4F82AE030E0BF
:10545000853739F1232D297FD22E8F3601F148F47B
:105460008835A9F0F701868197812B96E2E10C94AB
:10547000F522803749F08837A9F7D4FE02C0689436
:10548000D2F820E130E00DC06894D4F8F6CF34FEB5
:1054900003C0822F8660D82E20E132E002C028E0CF
:1054A00030E0F801D7FE0FC0608171818281938165
:1054B0000C5F1F4FA5010E94E22AC82ECA183D2C7E
:1054C000E89437F867CF6081718190E080E00E5FEB
:1054D0001F4FF0CF42FC02C0839478CF8394839413
:1054E00075CF842D867809F471CFF6CFB70180E2AD
:1054F00090E00E94B22A83948214C0F3512C73CF9F
:10550000522C5818821408F46ECFF8CF842D867868
:1055100009F47BCF8BE241FE80E247FC8DE2B701CC
:1055200090E071CFB70180E390E00E94B22A9A9494
:105530006CCF8FEF9FEF99CFFC01059061507040C9
:105540000110D8F7809590958E0F9F1F0895FC014C
:105550006150704001900110D8F7809590958E0FA2
:105560009F1F08950F931F93CF93DF93182F092F39
:10557000EB018B8181FD09C01FEF0FEF812F902F71
:10558000DF91CF911F910F91089582FF14C02E815A
:105590003F818C819D81281739073CF4E881F9818E
:1055A000CF0101969983888310838E819F81019614
:1055B0009F838E83E3CFE885F985812F0995892B19
:1055C000A1F3DACFFA01AA27283051F1203181F175
:1055D000E8946F936E7F6E5F7F4F8F4F9F4FAF4FFB
:1055E000B1E03ED0B4E03CD0670F781F891F9A1F0E
:1055F000A11D680F791F8A1F911DA11D6A0F711DC2
:10560000811D911DA11D20D009F468943F912AE0CD
:10561000269F11243019305D3193DEF6CF010895B5
:10562000462F4770405D4193B3E00FD0C9F7F6CFE6
:10563000462F4F70405D4A3318F0495D31FD4052AE
:10564000419302D0A9F7EACFB4E0A6959795879544
:1056500077956795BA95C9F7009761057105089523
:105660009B01AC010A2E06945795479537952795CF
:10567000BA95C9F7620F731F841F951FA01D089567
:04568000F894FFCFCC
:105684000600140001000000D0080000004B0000D8
:105694000300030000000000000006010800F002FF
:1056A400000000000001000006080600C800010018
:1056B4000100000006000100CD8B0100CD8B01002C
:1056C400FFFF010006000800010030F800002FC4AD
:1056D4000000A041000076068000060001000100E1
:1056E400000005000A0014001E0028003C004016BB
:1056F400170C00000000062400000000063E000015
:10570400000006080000000000000000B4011401BD
:1057140041010102720150016401000000005905B9
:105724004E056A05240547053405250525303258FC
:10573400002A25730D0A002532642E2530326400B8
:105744004F637420323120323032310047505333AA
:1057540020257300256420736174730025356C64FF
:1057640020252D356C640025356420252D356400F5
:1057740048444F50202535730056444F502025355A
:10578400730025366C642050610025366C64002556
:1057940030366400253034640025303364002564D9
:0257A400000003
:00000001FF
